S01A00006275696C642F686F6D656E65742F6D61696E2E7372656307
S11300000C945D000C948F130C9499130C94C113ED
S11300100C94CB130C94D5130C94DF130C94E913A8
S11300200C9419140C947A000C947A000C947215A4
S11300300C94CC140C945C150C944A160C940D136B
S11300400C944D130C946B160C947A000C947A0057
S11300500C947A000C9467140C947A000C947A0033
S11300600C9467150C947A000C947A000C947A0022
S11300700C947A000C947A000C947A000C947A0014
S11300800C947A000C947A000C947A003B0DAB0D1E
S1130090DD0D320E700E820E940EFF0E060F0C0F45
S11300A04D0FB30FB50FB90FDD0FE40FFD0F0C109B
S11300B0C810151100081C18141011241FBECFEF0E
S11300C0D0E1DEBFCDBF11E0A0E0B1E0E2E4F6E3B1
S11300D000E00BBF02C007900D92A231B107D9F71F
S11300E012E0A2E1B1E001C01D92A233B107E1F731
S11300F00C9461110C9400008FB7F894992708951B
S11301008FBF08958FB7F894282F33278BB392E0CD
S113011089278BBB2FBF0895982F8FB7F894282F6A
S1130120E92FFF27EC52FE4F80818F3FB1F480917D
S1130130EB01891791F08091D0018F3F19F49093CE
S1130140D00107C08091EB01E82FFF27EC52FE4F4E
S113015090839093EB0180E001C085E02FBF992745
S11301600895FC0180818C50992708952FB7F89445
S11301703327982F882790935901809358012FBFD4
S113018080E090E00895FC0187819927382F222789
S113019086819927822B932B0895882311F06E9AD8
S11301A008956E98089580911501882319F480E0CC
S11301B090E0089581E090E008952F923F924F924D
S11301C05F926F927F928F929F92AF92BF92CF92E3
S11301D0DF92EF92FF920F931F93CF93DF93CDB7EC
S11301E0DEB72A970FB6F894DEBF0FBECDBF8FB728
S11301F0F894282F332729873A8720905F0130907D
S11302006001409061015090620166247EE4A72E53
S113021063E8B62EC62CD62CE62CF62C062D162D0D
S1130220222D332D442D552D662D762D862D962D7C
S11302300E94F81729833A834B835C836D837E8302
S11302408F839887822E932EA42EB52EC62ED72E5A
S1130250E82EF92E24013501769467945794479437
S113026000E2282D392D4A2D5B2D6C2D7D2D8E2DF0
S11302709F2D0E940219A22EB32EC42ED52EC60184
S1130280B501640D751D861D971D97FF05C09F77E9
S11302906F5F7F4F8F4F9F4F60935F01709360013B
S11302A0809361019093620139853FBF2A960FB60E
S11302B0F894DEBF0FBECDBFDF91CF911F910F9198
S11302C0FF90EF90DF90CF90BF90AF909F908F9072
S11302D07F906F905F904F903F902F900895EF9292
S11302E00F931F93AE2D99E0899FF0011124E95DCE
S11302F0FE4F408351836283738304831583268373
S11303003783A17080858E7F8A2B8260808782E00C
S11303100E948C001F910F91EF900895CF93DF936B
S11303208FB7F894682F7727A0918001B09181014D
S1130330C0918201D091830182B706B600FE04C049
S11303401196C11DD11D82B7282F33274427552765
S113035088279A2FAB2FBC2F822B932BA42BB52B42
S11303606FBFBC01CD01DF91CF910895282F8695F1
S113037086958695E82FFF27E95AFE4F277081E07E
S113038090E002C0880F991F2A95E2F72081282364
S1130390822F99270895FF920F931F93CF93DF9392
S11303A0082F8FB7F894F82E80911D01833009F03F
S11303B062C080910A01801709F05DC080915701E5
S11303C0882309F03EC081E090E0892BE9F5109183
S11303D01E01C12FDD272196C330D10511F4C0E0E1
S11303E0D0E08C2F0E94B601882381F4812F9927B5
S11303F0C817D90781F78FEF90E080937A0181E0E5
S113040080931D0189E00E948C0024C08C2F869566
S113041086958695E82FFF27E95AFE4F2C2F2770E3
S113042081E090E002C0880F991F2A95E2F7982F87
S11304309095808189238083C0931E018C2F9927F6
S1130440DCCF80E090E0C1CF83E080930A0110927A
S11304501D013798802F99278130910561F08230F2
S113046091051CF4892B21F006C0029719F003C0F2
S11304701C9801C0DF98FFBE81E090E0DF91CF912E
S11304801F910F91FF9008951F93CF93DF93C82F6F
S11304908FB7F894282F3327122F80911D018823BA
S11304A001F18C2F0E94B6018823B1F48C2F86951C
S11304B086958695E82FFF27E95AFE4FC77081E09D
S11304C090E002C0880F991FCA95E2F72081282B7B
S11304D0208380E090E002C085E090E01FBF992770
S11304E019C081E080931D01C0937A012FBF8FB79B
S11304F0F8949927379A8FBF8FB7F894C82FDD27C0
S113050080910A01833019F489E00E948C00CFBFE6
S113051080E090E0DF91CF911F91089520918F01A9
S1130520822F99278130910559F0823091051CF46E
S1130530009731F004C0029711F487E001C08FE105
S1130540582F822F99278130910541F082309105EF
S11305501CF4892B19F004C0029711F428E001C09F
S113056020E033278FB7F894E82F8091E8018E7F3D
S11305708093E801322F27B160E070E0922F9295CA
S113058096959695937080E0891749F4852F885045
S1130590863118F42F71521711F461E070E0862F40
S11305A0880F2091E8012D7F282B852F8F71982F9C
S11305B0990F990F2378292B2093E80180629927BA
S11305C087B9406C21702295220F207E4F7D422BEB
S11305D04861383059F5809186019091870121E076
S11305E08638920718F087E090E01FC0833C91059D
S11305F018F086E090E019C08136910518F085E086
S113060090E013C08033910518F084E090E00DC0B1
S11306108831910518F083E090E007C00C9718F03A
S113062082E090E002C080E090E0382F3770487F8D
S1130630432B842F992786B9EFBF0895AF92BF92B9
S1130640CF92DF92EF92FF920F931F935B016C01A5
S1130650F1E0FF2E0E948E01DC01CB01EF2C96010C
S11306608501AC01BD018F2D0E946F011F910F9177
S1130670FF90EF90DF90CF90BF90AF90089597E0F8
S113068087FF02C0919A01C09198880F909A909820
S1130690915097FFF5CF0895982F8FB7F894282F8E
S11306A089B78D7F89BF82E088BF80916A008860A6
S11306B080936A00992321F080916A00846003C0CA
S11306C080916A008B7F80936A0089B7826089BFBA
S11306D02FBF80E090E008952F923F924F925F9257
S11306E06F927F928F929F92AF92BF92CF92DF923E
S11306F0EF92FF920F931F937B01882309F0E6C0CA
S1130700C090C401D090C5018FEFC8168FEFD806F2
S113071009F4DCC07093C1016093C001CB01AA2726
S113072097FDA095BA2FBC01CD010E940E1A3B0182
S11307304C01F7FE08C020E030E040E857E40E9496
S1130740AF193B014C01C601AA2797FDA095BA2F0A
S1130750BC01CD010E940E1AD7FE06C020E030E095
S113076040E857E40E94AF192AE037ED43E25CE326
S11307700E947A1ADC01CB0120E030E040E252E42E
S1130780BC01CD010E94AE191B012C0122EA37EEF7
S11307904BE356EBC401B3010E947A1ADC01CB018E
S11307A0A4019301BC01CD010E947A1A7B018C0142
S11307B024E533EE45E25DE3C401B3010E947A1AF5
S11307C0DC01CB019C01AD01C801B7010E94AF1946
S11307D0DC01CB0120E030E040E850ECBC01CD016D
S11307E00E94AF195B016C0120E030E048EC51E459
S11307F0C201B1010E94AE197B018C012CEA35ECD7
S113080047EA58E3C401B3010E947A1ADC01CB0120
S11308102AE037ED43E25CE3BC01CD010E94AF194D
S1130820DC01CB019C01AD01C801B7010E947A1A19
S1130830DC01CB01A6019501BC01CD010E94AF19D9
S11308406B017C0120E030E048EC52E40E941B1A6A
S1130850181654F40F2EF0E0CF2EF0E0DF2EF8EC53
S1130860EF2EF2E4FF2EF02D2DEC3CEC4CEC5DE38E
S1130870C701B6010E94181A882354F40F2EFDEC08
S1130880CF2EFCECDF2EFCECEF2EFDE3FF2EF02D43
S11308908FB7F894082F1127C201B1010E94F119F2
S11308A0DC01CB0190938901809388010FBF8FB73E
S11308B0F894082F1127C701B6010E94F119DC0131
S11308C0CB0190937D0180937C010FBF82E00E9455
S11308D044021F910F91FF90EF90DF90CF90BF9053
S11308E0AF909F908F907F906F905F904F903F90CC
S11308F02F900895982F8FB7F894282F3327422FDD
S113090080912101882301F1E92FFF27EE50FE4F4A
S113091080818F3FA1F4E0910C01E91781F080916F
S11309200D018F3F19F490930D0104C0FF27EE5081
S1130930FE4F908390930C0180E090E002C085E02C
S113094090E04FBF9927089541E04093210190938F
S113095079012FBF80912001882321F487E00E9430
S11309608C0002C040931F0180E090E0089530E0C5
S1130970232F909A80B399279695879580FD3160AF
S1130980273009F0330F90982F5F283090F3899A1D
S11309909198909A90988998919A832F992708957D
S11309A0899A919A909A90980895CF93982F8FB797
S11309B0F894C82F809121018330A1F580910B0117
S11309C0891781F520E030E080910D018F3F11F40B
S11309D021E030E0232BD9F48F3F81F0282F3327F7
S11309E0F901EE50FE4F808180930D018F3F11F489
S11309F080930C018FEF8083C90102C08FEF90E0D8
S1130A008093790181E08093210186E009C082E02E
S1130A1080930B011092210181E08093200188E0F2
S1130A200E948C00CFBF81E090E0CF9108951F9386
S1130A30CF93DF93182FEB0180E00E94D50411239C
S1130A4021F4D093C501C093C40181E00E947A04CB
S1130A50DF91CF911F91089580E880935201109205
S1130A608A0110927F011092ED0108958FB7F894D6
S1130A70682F772780915501909156012CB53DB58B
S1130A8006B602FE03C001962CB53DB5AA27BB27C6
S1130A9044275527DC0199278827822B932BA42BE5
S1130AA0B52B6FBFBC01CD010895AF92BF92CF9219
S1130AB0DF92EF92FF920F931F93CF93DF930E94E5
S1130AC08E01FC01EB012091710130917201409182
S1130AD07301509174017B018C01E21AF30A040B37
S1130AE0150B109276018091630190916401A0919D
S1130AF06501B0916601E816F9060A071B07C0F004
S1130B00EE24FF248701280F391F4A1F5B1F2093FF
S1130B107101309372014093730150937401E09218
S1130B206301F0926401009365011093660163C050
S1130B305C016D01AE18BF08C00AD10A86017501B7
S1130B4061E0A61661E0B60660E0C60660E0D6067F
S1130B5090F080E0A81680E0B80681E0C80680E046
S1130B60D80610F08FEF04C0BB27AD2D9C2D8B2D24
S1130B708093760158C061E8A616B104C104D1047B
S1130B8030F1C058DF4FEF4FFF4FC0937101D09346
S1130B907201E0937301F0937401C058D040E040B7
S1130BA0F04080E89FEFAFEFBFEFE80EF91E0A1F99
S1130BB01B1FE0926301F09264010093650110939E
S1130BC06601E0E8EE2EF12C012D112D14C0280F42
S1130BD0391F4A1F5B1F20937101309372014093A8
S1130BE07301509374011092630110926401109286
S1130BF06501109266016E2D82B7282F8C1B8E5FC3
S1130C008E1518F0622F6E5F01C06C0F662309F415
S1130C1061E0615000B601FCFDCF61BF82E086BF98
S1130C2087B7826087BFDF91CF911F910F91FF90AB
S1130C30EF90DF90CF90BF90AF9008950F931F93E4
S1130C40DC01CB016FB7F894062F11278093710153
S1130C5090937201A0937301B09374012093630184
S1130C603093640140936501509366010E945505D9
S1130C700FBF1F910F910895982F8FB7F894282FC5
S1130C8089B78F7789BF80E888BF8AB780688ABFB1
S1130C90992319F08AB7806402C08AB78F7B8ABF10
S1130CA089B7806889BF2FBF80E090E00895AF9234
S1130CB0BF92CF92DF92EF92FF920F931F93CF9345
S1130CC0DF930E943605FC01EB018091670190914E
S1130CD06801A0916901B0916A01A090CB01B09024
S1130CE0CC01C090CD01D090CE019C01AD012A0D64
S1130CF03B1D4C1D5D1D79018A01EC1AFD0A0E0B8A
S1130D001F0BC817D907EA07FB0730F02817390764
S1130D104A075B0770F005C0281739074A075B07C5
S1130D2028F4C217D307E407F50718F0EE24FF24CC
S1130D30870121E0E21620E8F20620E0020720E025
S1130D40120730F1C050D048EF4FFF4FC0936701F6
S1130D50D0936801E0936901F0936A01C050D048D0
S1130D60E040F04080E090E8AFEFBFEFE80EF91EFE
S1130D700A1F1B1FE092CB01F092CC010093CD011E
S1130D801093CE01E12CA0E8FA2E012D112D14C0F0
S1130D908A0D9B1DAC1DBD1D809367019093680156
S1130DA0A0936901B0936A011092CB011092CC0117
S1130DB01092CD011092CE01B7012CB53DB5C901F9
S1130DC08C1B9D0B03968E159F0520F0B9016D5F5A
S1130DD07F4F02C06C0F7D1F6115710511F461E036
S1130DE070E0615070407BBD6ABD80E186BF87B70B
S1130DF0806187BFDF91CF911F910F91FF90EF909A
S1130E00DF90CF90BF90AF9008950F931F93DC01B4
S1130E10CB016FB7F894062F112780936701909345
S1130E206801A0936901B0936A012093CB013093C8
S1130E30CC014093CD015093CE010E9457060FBFC1
S1130E401F910F910895EF92FF920F931F93CF93E9
S1130E508FB7F894C82F0E94DD00DC01CB019C0100
S1130E60277030702F5F3F4FC1F0C901B3E0880F86
S1130E70991FBA95E1F7820F931F820F931F7C018C
S1130E80002711270E943605DC01CB01A801970138
S1130E90BC01CD010E94050706C081E090E090935B
S1130EA0140180931301CFBFCF911F910F91FF9035
S1130EB0EF90089597B79F7D97BF90E296BF8823E0
S1130EC019F08EB5806402C08EB58F7B8EBD87B756
S1130ED0806287BF80E090E008958FB9779BFECF52
S1130EE08FB1992708950F931F938B010E946D076B
S1130EF0812F99270E946D07802F0E946D079927E3
S1130F001F910F910895DF92EF92FF920F931F9319
S1130F10CF937A01C22FDD248C01060F111D802F7F
S1130F2080680E946D0716950795802F807C0E942B
S1130F306D07CC2341F0F70181917F010E946D0779
S1130F40D82EC150F6CF8D2D9927CF911F910F9197
S1130F50FF90EF90DF900895882311F06F9A089521
S1130F606F9808951F9310E0812F0E94CD00BA9AC4
S1130F70BB98B99AB89A6C9AC098812F0E94AC0712
S1130F80709A6B986A98689881E00E94CD001F91CE
S1130F9008950F931F93CF93082F8FB7F894282F9A
S1130FA03327122F80911701882321F02FBF85E06A
S1130FB090E021C090911501992341F482E080933F
S1130FC015019093030180E090E002C081E090E07D
S1130FD09927C82F882311F40E94B2078C2F9927D0
S1130FE0282F882329F40093060181E080931701B8
S1130FF01FBF822F9927CF911F910F910895CF93EF
S1131000C82F0E94D300882311F40E94B207809154
S11310101501882359F481E080931501C0938C0154
S113102081E10E948C0080E090E01EC0EC2FFF273D
S1131030E15BFE4F80818F3FA1F4E0910401EC1746
S113104081F0809105018F3F19F4C093050104C01C
S1131050FF27E15BFE4FC083C093040180E090E072
S113106002C085E090E099279927CF910895CF9306
S1131070282F8FB7F894C82F90911701992369F0FE
S113108081E090E002C0880F991F2A95E2F7209131
S11310901601282B2093160108C02093060181E035
S11310A080931701892F0E94FF07CFBF80E090E053
S11310B0CF910895CF9382E00E94C9079927C82F42
S11310C0882319F082E00E9437088C2F9927CF914A
S11310D008951F93CF93DF93982F8FB7F894282FF9
S11310E03327122F80910601891721F02FBF81E049
S11310F090E071C04FEF409306018091150182305A
S113110009F03FC0909103019923D9F520E030E024
S113111080910501841711F421E030E0232B69F557
S11311208F3F79F0282F3327F901E15BFE4F80814F
S1131130809305018F3F11F4409304014083C9015A
S113114002C08FEF90E080938C0181E080931501C1
S113115081E10E948C0015C02093060181E090E09B
S113116002C0880F991F4A95E2F78095382330937F
S1131170160180E00E94FF072BC040930301909367
S113118015010E94D300C82FDD27CC2331F48C2F06
S11311900E94CD00C093EC01C09A30911601332314
S11311A0A9F0209106012F5F632F7727243008F0E0
S11311B020E0422F5527CB01042E02C09595879538
S11311C00A94E2F780FDC8CF2F5FF0CF1092170189
S11311D01FBF80E090E0DF91CF911F910895CF93DE
S11311E0C1E0C09880917501882311F085E001C0A9
S11311F084E00E946D0783FD05C080E00E946D07B6
S113120083FDC0E08FB7F894CC2319F023E030E0DD
S113121002C025E030E030931401209313018FBF06
S1131220C09ACC2329F082E00E9469080E94230717
S1131230CF9108952F923F924F925F926F927F9237
S11312408F929F92AF92BF92CF92DF92EF92FF92D2
S11312500F931F93CF93DF93CDB7DEB724970FB6C9
S1131260F894DEBF0FBECDBF1B012C016624882479
S1131270992467E2A62E61E0B62EF501608561FF30
S11312802AC12081318142815381D201C101821B53
S1131290930BA40BB50BE480F580068117818E15A2
S11312A09F05A007B10708F416C160FF03C06D7F56
S11312B0608709C02E0D3F1D401F511FF50120837B
S11312C0318342835383F1E08F169104B1F082E0BD
S11312D08816910424F48114910459F0FCC092E01E
S11312E08916910441F1E3E08E16910409F458C083
S11312F0F2C080E00E944402EEC08FB7F894082F39
S11313001127902F80910B01823099F48091210153
S1131310813021F486E00E948C0009C0823049F4B7
S11313208091790180930B0183E0809321010FBFA9
S1131330D2C09FBFD0C08091F0019091F10185305F
S11313409105D1F08630910518F4039739F0C3C0A4
S11313504E9709F0C0C010922401BDC01092240120
S11313608091D101682F77276115710509F0B3C009
S113137081E00E941705AFC0109224018091D10131
S11313809927009709F4A7C0019709F0A4C081E048
S11313900E94D50460E070E081E00E946C039BC071
S11313A08FB7F8949927C0901801CC2011F08FBF03
S11313B092C08FBF80B3992756E0969587955A952A
S11313C0E1F7782EF1E07F2280917E0190914C012B
S11313D0891709F47BC0791609F078C084E090E09D
S11313E090931A01809319018E010F5F1F4F809112
S11313F00701909108018983892F9927F801818336
S11314008091D2019091D3018B83892F99278C836A
S11314108FB7F894992721E0D22ED09218018FBF6C
S113142080E10E948C0060E070E08DE10E9473070F
S113143024E0A8016C2D88E691E00E948307C09AFD
S1131440C0988FB7F894E82EFF248D2D0E945A0778
S113145001E010E01093140100931301C0921201F3
S1131460C092CF01EFBE8FB7F894E82EFF240E94FC
S11314702C0510935E0100935D0189B78F7B89BFB2
S113148080E488BF8AB780628ABF8AB78F7E8ABFAA
S113149089B7806489BFEFBE8FB7F894082F1127EE
S11314A08091190190911A01049719F483E00E9424
S11314B06D070FBF8FB7F894082F1127C09A80E0EB
S11314C00E9469080FBF8BE00E948C0070927E011D
S11314D08FE00E948C00639489E090E0A80EB91E0E
S11314E00894811C911C93E0961508F0C6CE82E006
S11314F00E948C0024960FB6F894DEBF0FBECDBFB9
S1131500DF91CF911F910F91FF90EF90DF90CF90DB
S1131510BF90AF909F908F907F906F905F904F900F
S11315203F902F9008958F929F92AF92BF92CF9247
S1131530DF92EF92FF920F931F93CF93DF938FB7B6
S1131540F894C0907701D0907801809050019090E9
S11315505101C0915A01D0915B01AE01465F5F4FCA
S113156020918D0130918E012417350708F09A01DE
S11315708FBF59010894A108B108CA15DB05E8F426
S11315807E01E80CF91C8E010C0D1D1DC114D10443
S113159019F0F801808101C080E00E946D07811478
S11315A0910411F0F701808321960F5F1F4F089477
S11315B0E11CF11CCA15DB0548F381E00E94AC076D
S11315C08FB7F894982FC114D10431F0CC0EDD1EDE
S11315D0F60180818FB901C01FB8D0935B01C0931D
S11315E05A019FBF80E090E0DF91CF911F910F914E
S11315F0FF90EF90DF90CF90BF90AF909F908F902F
S113160008959C018FB7F89499273093780120931B
S11316107701709351016093500150938E01409370
S11316208D0110925B0110925A018FBF8FB10E94FD
S1131630930A992708950F931F93C0980091250149
S1131640109126018FE790E09093BF018093BE0133
S11316508091BE010E946D0741E050E0B80180E036
S113166090E00E94010B1F910F91089582E090E099
S113167090935E0180935D0183E00E94C9078823F3
S113168019F40E941B0B089583E00E943708089503
S1131690CF938FB7F894282F3327C22F80915D0101
S11316A090915E01892B11F42FBF26C02091ED018A
S11316B0222341F080E090E0B79B02C081E090E0FB
S11316C0892B49F481B1992776E0969587957A9587
S11316D0E1F780FD08C0222319F021502093ED0189
S11316E00E94360B08C081E090E090935E018093E5
S11316F05D011092ED01CFBFCF9108951F93CF9359
S1131700DF93C0916D01D0916E018FA19927182F9D
S1131710882309F41FE1C0988091CF01811741F01B
S1131720812F9927806E9068BC0185E10E94730720
S11317301093CF01188111508EE390E09093BF0174
S11317408093BE018091BE010E946D07812F99276D
S1131750AC0160E070E0CE010E94010BDF91CF91FB
S11317601F910895CF93DF93DA01EA018A876E838C
S1131770872F99278F8384E290E08C8360E070E068
S11317806D83245F8FB7F894482F552780911C01EF
S1131790833021F04FBF81E090E059C085E0809311
S11317A01C01B093EA01A093E9018091C6018F5F07
S11317B08093C601FD0183834FBF2193ED0189818D
S11317C09927807290708983892F9927818399271B
S11317D0982F882729813327822B932B816498683B
S11317E08983892F99278183809101019091020136
S11317F08887892F992789876BA768A769A71DA65A
S11318006CA74091E9015091EA018FB7F894282F11
S113181033278091130190911401019711F02FBF88
S113182014C082E090E0909314018093130181E04E
S11318308093750150936E0140936D012FBF0E94F8
S11318405A08882311F40E947E0B80E090E09927C7
S1131850DF91CF910895CF92DF92EF92FF920F9391
S11318601F93209100012F3F09F420E03327C90181
S113187001962817390748F480914D0190914E0143
S1131880892B19F01092000103C08FEF809300019F
S1131890E0910001EF3FF1F0FF27EE0FFF1FE35B44
S11318A0FE4F00811181F8018285C82EDD24C80114
S11318B00E94C3007C01C8010E94B1009927282F0F
S11318C0A801B7018C2D0E94B20B882319F083E183
S11318D00E948C001F910F91FF90EF90DF90CF90AA
S11318E008958998919A909A80B3992796958795A7
S11318F080FF03C081E090E00895909880E090E03C
S11319000895AF92BF92CF92DF92EF920F931F93FD
S11319105B016C010E948E01DC01CB0151E0E52EDC
S113192096018501AC01BD0182E00E946F011F9107
S11319300F91EF90DF90CF90BF90AF9008951F93D9
S1131940889A90988998919A89B78D7F89BF899A46
S1131950919A909888E0909A9098815087FFFBCF55
S1131960899A919A9098909A91989098909A919A2D
S113197090988091F0019091F1018F719070909303
S1131980F1018093F0018091F0010E943F030E94D5
S1131990710C882329F01092240181E090E048C062
S11319A02091F0013091F1012630310561F12730A9
S11319B0310538F42330310579F02530310561F0F3
S11319C035C02730310599F02E31310579F56BE0BA
S11319D070E080E090E008C08998919A0E944C03DE
S11319E06AEF70E080E090E00E94810C1FC00E94CA
S11319F0B704182F0E94B7040E94D0041093230147
S1131A0084E00E948C0080917B010E943F030E942D
S1131A10710C882321F081E08093220104C080911D
S1131A207B018093230184E00E948C0080E090E09D
S1131A301F910895AF92BF92CF92DF92EF92FF92DF
S1131A400F931F93CF93DF93CDB7DEB762970FB693
S1131A50F894DEBF0FBECDBF9927AA27BB27FC0190
S1131A60449708F0F2C3EA5BFF4FEE0FFF1F0590A7
S1131A70F491E02D09948FB7F894282F332780919F
S1131A801001898381E08A8385E08B838AE08C83DB
S1131A9080916F01909170018D839E838091C40128
S1131AA09091C5018F8398878091C0019091C10165
S1131AB089879A8780918401909185018B879C877F
S1131AC080916B0190916C018D879E872FBF0FE0F1
S1131AD012E06EE0B62EFE013196D8012B2D019056
S1131AE00D922A95E1F70B5010408FEF9FEF8093F2
S1131AF00A028FEF90E080930B0259E0C52EC0924A
S1131B000E02E0904D01F0904E01E114F10409F051
S1131B109CC310934E0100934D018AE1809304020B
S1131B20D09000013FEFD31609F08FC3C8010E9483
S1131B30C300109200012B2DA801BC018C2D0E9422
S1131B40B20B882309F481C3D0920001F0924E01B4
S1131B50E0924D017AC340914B01442339F58FB78C
S1131B60F894282F3327E0907101F09072010091CE
S1131B707301109174018091630190916401A091AB
S1131B806501B0916601E80EF91E0A1F1B1F2FBFE5
S1131B908091C7019091C801A091C901B091CA0177
S1131BA09C01AD01C801B7010E941E060E948E016E
S1131BB0DC01CB01BC01CD0140C00E948E017B0140
S1131BC08C014FEFA42E4FEFB42E4FEFC42E4FE7EE
S1131BD0D42E70E087B78D7F87BFE7E2F1E063E042
S1131BE0808581FF1CC080819181A281B381A8017D
S1131BF09701281B390B4A0B5B0BDA01C9012481BD
S1131C00358146815781281B390B4A0B5B0B2A15FA
S1131C103B054C055D051CF459016A0171E06150F6
S1131C20399667FFDDCF772309F40FC31A141B0419
S1131C301C041D042CF0C801B7010E941A0905C335
S1131C40A092C701B092C801C092C901D092CA0142
S1131C5081E080934B01A6019501C801B7010E9460
S1131C601E06F3C280912401882309F4EEC28091F8
S1131C7041018D7F809341010E94B7049927182F59
S1131C8000270E94B7049927082B192B0E94B70438
S1131C900E94D0048091F0019091F101833091056C
S1131CA019F0059761F0D1C2109224018091D101FD
S1131CB0882309F0CAC2B8010E941705C6C210924F
S1131CC024018091D1019927009709F4BEC201979C
S1131CD009F0BBC281E00E94D504B80180E08CC049
S1131CE08091F0019091F1018630910531F00797D0
S1131CF009F0ABC210922401A8C2109224011092E0
S1131D002201A3C280911F01813031F46BE070E0A5
S1131D1080E090E00E941E038FB7F89499271092F8
S1131D201F01109220014EC18FB7F894282F33273A
S1131D309091790190930B0183E0809321012FBF4F
S1131D40892F9927009719F0019779F17EC2809124
S1131D500E01882319F484E090E015C02091240139
S1131D60222319F085E090E00EC081E080932401E5
S1131D7083E090E09093F1018093F0012093D101EE
S1131D800E949F0C9927082F1127002309F45DC294
S1131D9080E00E94D504002321F41092C501109222
S1131DA0C40181E00E947A0450C221E080910E01B6
S1131DB0882319F484E090E014C0809124018823DE
S1131DC019F085E090E00DC02093240185E090E0B7
S1131DD09093F1018093F0012093D1010E949F0C14
S1131DE09927082F1127002309F42FC281E00E94AC
S1131DF0D50460E070E0802F0E946C0326C26BE083
S1131E0070E080E090E00E941E031FC288989098C2
S1131E108998919885E09EC18FB7F894282F33272D
S1131E2090917A0190930A0183E080931D012FBF62
S1131E30892F99278130910571F0823091051CF426
S1131E40892B21F008C0029721F005C0149A1C9A2E
S1131E5002C0D79ADF9A80910A01992781309105AF
S1131E6079F0823091051CF4892B21F0EEC10297A0
S1131E7059F0EBC181E080938B0110928F010AC06D
S1131E8081E080938B0104C081E080938B0182E028
S1131E9080938F010E948E02D8C110928B01809191
S1131EA08F01E0905301F0905401082F1127013065
S1131EB0110569F00230110524F40115110529F00A
S1131EC00BC00230110529F007C080E003C081E097
S1131ED001C082E00E94CB010130110569F102309A
S1131EE011051CF4012B29F0B0C10230110571F168
S1131EF0ACC1C70126E0969587952A95E1F79093A2
S1131F00700180936F0120910F018D52914048F030
S1131F10822F8F5F80930F01853108F44BC084E1D9
S1131F2008C0822F815080930F01882309F042C09A
S1131F3081E080930F013EC086E0F694E7948A9591
S1131F40E1F7F0928501E09284017FC106E0F69406
S1131F50E7940A95E1F7F0926C01E0926B0181E05D
S1131F600E94440272C183E001C081E080931C019D
S1131F706CC18FB7F89499278FBF83E080931C01BD
S1131F802091E9013091EA0180910001082F112785
S1131F90F801E00FF11FE35BFE4F8081918182170E
S1131FA0930709F052C1108211820E942B0C012B5D
S1131FB009F04BC10E94820048C18FB7F894992759
S1131FC010925C018FBF41C18FB7F894C82EDD24F5
S1131FD080911801882379F40E948E01DC01CB01E1
S1131FE011E0E12E01E010E020E030E0AC01BD01A1
S1131FF083E00E946F01CFBE28C18FB7F894282FC9
S1132000332780911801882329F080914A018D7F1C
S113201080934A012FBF19C18FB7F894282F332713
S113202090918C019093030182E0809315012FBF5E
S1132030992309F00AC18FB7F894992720910601D2
S11320408FBF33272130310509F453C022303105C5
S11320501CF4232B51F0F9C02230310509F47DC062
S11320602330310509F491C0F0C0C0988FB7F894BB
S1132070E82EFF248091190190911A010297B9F575
S113208083E090E090931A018093190168E170E075
S11320908DE10E94730711E010934C011092180116
S11320A080B39927F6E096958795FA95E1F7812311
S11320B080937E018FE00E948C00812F0E946D0727
S11320C06FE772E08CE10E9473079091090185E04B
S11320D0989FC0011124825D9E4F9064BC0188E1E9
S11320E00E94730762EF7AE281E10E947307EFBEF8
S11320F0ACC08FB7F894282F332740910901809101
S11321000701909108018F87892F9927888B8091E7
S1132110D2019091D301898B892F99278A8B2FBF64
S1132120C09885E0489FC0011124825D9E4F906451
S1132130BC0188E10E94730724E0AE01415F5F4F58
S113214060E088E691E00E948307C09A81E00E94E3
S113215069088EE00E948C0078C08FB7F8949927A4
S1132160209113018FBF33272230310521F0243011
S1132170310521F006C00E947E0B67C00E94EF0863
S113218064C082E00E94690860C00E941B0B5DC0AD
S1132190A0912501B09126018C919D01280F311D3C
S11321A0F9018081881F8827881FFD0182A7F90112
S11321B082919F012F5F3F4FFD0180A7F90180812C
S11321C08F77FD0181A700912501109126016BE015
S11321D0E62EF12CE00EF11EC8010E94C3009C0102
S11321E080910101909102012817390719F02F5F9E
S11321F03F4FA1F4F8018285893081F483858130D1
S113220069F4F7018181833049F48281833031F4A8
S113221080910F0199270E94B600D8981093260147
S1132220009325010E94480B10C08091000199275A
S1132230FC01E80FF91FE35BFE4F10821182892B2A
S113224011F40E9482000E942B0C62960FB6F8943F
S1132250DEBF0FBECDBFDF91CF911F910F91FF90D5
S1132260EF90DF90CF90BF90AF9008958091D00110
S11322708F3FD1F09091D0018091D001E82FFF27BA
S1132280EC52FE4F80818093D0018091D0018F3F2A
S113229011F48093EB01892F9927FC01EC52FE4F36
S11322A02FEF20839C0102C02FEF30E02F3F19F461
S11322B080E090E00895822F0E941A0D81E090E062
S11322C00895CFEFD0E1DEBFCDBF8FB7F894182FBC
S11322D044E150E06FEF70E084ED91E00E94A719B3
S11322E08FEF8093D0018093EB0181E08EBD88E075
S11322F080BF83E083BF2CB53DB54AE78CB59DB55F
S11323008217930708F441509C014423B9F792B70C
S113231082B78917E9F32CB53DB592B782B789170F
S1132320E9F38CB59DB5821B930B409675E09695A9
S113233087957A95E1F7909387018093860113BE80
S113234083B78EBD8EB580BF12BE1DBC1CBC8FEF83
S113235086BF86B780937C0080B7282F33272770E9
S1132360307021153105C1F7D29AD19AD09ADA9AF0
S1132370D99AD89A25BB8FEF84BB3DBD2CBD87B7B6
S1132380846087BF8EB5887F84608EBD16B880B7A1
S1132390886080BF80E285BF0E9436118823E1F700
S11323A080911001909111010196AA27BB27809377
S11323B05F0190936001A0936101B09362018FEF7C
S11323C080934F0180911C01882319F481E080934C
S11323D01C01B89AD69AD59A809101019091020174
S11323E09093D3018093D2018E98B89A8C9880E907
S11323F091E09093260180932501109257018FEF6D
S11324009FEF9093F3018093F20100B602FCFDCF9D
S113241012BE87B7816087BF83B7887F836000B6A9
S113242000FCFDCF83BF0E943611C82FDD27CC23CB
S1132430D1F71FBF78948FB7F894282F33278FEFE5
S11324409FEF909389018093880190937D018093FD
S11324507C019093700180936F0190938501809328
S113246084019093C5018093C4019093C10180932A
S1132470C00190936C0180936B012FBF84B38F6074
S113248084BBAC98AD9A81E00E943C068FB7F89467
S1132490282F3327C093EE0180E095E190935901F2
S11324A0809358012FBF80910F0199270E94B60095
S11324B00E948E01DC01CB01EC2E08EE13E020E03B
S11324C030E0AC01BD018C2F0E946F0180911C0192
S11324D0813049F582E080931C010E94DD00DC011B
S11324E0CB018093C6018FB7F894282F33278091AE
S11324F0190190911A01892B11F02FBF14C081E0AA
S113250090E090931A01809319012FBFDD9A0E94E5
S11325103605DC01CB0124E130E040E050E0BC01B1
S1132520CD010E9405078FB7F894482F4AC087B79A
S11325309927887B892B41F480917D00282F3327AC
S11325402B7F2115310519F020E030E02AC06F9966
S113255028C08AB1807C29F580919A00807C09F595
S1132560379B03C021E030E01CC087B799278370F4
S11325709070892BA1F080B7992787709070892B70
S1132580D1F781B792B7891B8C3018F082B7853F99
S113259018F022E030E005C023E030E002C025E07E
S11325A030E0E5E02E1708F4E22F85B7837EFF279D
S11325B0EC54FF4F9491892B806285BF7894889561
S11325C0F8948091D0018F3FC9F09091D00180910F
S11325D0D001E82FFF27EC52FE4F80818093D00179
S11325E08091D0018F3F11F48093EB01892F9927BB
S11325F0FC01EC52FE4F2FEF208302C08FEF90E0DE
S11326008F3F09F494CF4FBF0E941A0D8CCF83B72C
S113261083BF00B600FCFDCF08951F920F920FB642
S11326200F9211242F933F934F935F936F937F9354
S11326308F939F93AF93BF93CF93EF93FF930E9496
S1132640071387B78D7F87BF78948FB7F894C82F07
S11326508091630190916401A0916501B09166013C
S11326600097A105B10521F481E00E948C0002C00D
S11326700E945505CFBFFF91EF91CF91BF91AF91CC
S11326809F918F917F916F915F914F913F912F9186
S11326900F900FBE0F901F9018951F920F920FB6B8
S11326A00F9211242F933F934F935F936F937F93D4
S11326B08F939F93AF93BF93EF93FF930E9407135E
S11326C08091800190918101A0918201B091830158
S11326D00196A11DB11D8093800190938101A09367
S11326E08201B093830180917601882339F081506F
S11326F080937601882311F40E945505FF91EF9190
S1132700BF91AF919F918F917F916F915F914F9105
S11327103F912F910F900FBE0F901F9018951F920D
S11327200F920FB60F9211240F900FBE0F901F90AF
S113273018951F920F920FB60F9211242F933F9367
S11327404F935F936F937F938F939F93AF93BF93B5
S1132750EF93FF9389B78D7F89BF83E00E948C003C
S1132760FF91EF91BF91AF919F918F917F916F9165
S11327705F914F913F912F910F900FBE0F901F903B
S113278018951F920F920FB60F9211240F900FBE3F
S11327900F901F9018951F920F920FB60F9211244D
S11327A00F900FBE0F901F9018951F920F920FB6A7
S11327B00F9211240F900FBE0F901F9018951F9227
S11327C00F920FB60F9211240F900FBE0F901F900F
S11327D018951F920F920FB60F9211242F933F93C7
S11327E04F935F936F937F938F939F93AF93BF9315
S11327F0EF93FF9380915D0190915E01019719F42D
S11328000E94360B05C08091ED018F5F8093ED012E
S1132810FF91EF91BF91AF919F918F917F916F91B4
S11328205F914F913F912F910F900FBE0F901F908A
S113283018951F920F920FB60F9211242F933F9366
S11328404F935F936F937F938F939F93AF93BF93B4
S1132850EF93FF9389B78F7789BF80E096E0019764
S113286001960197E1F780915801909159010097E1
S113287021F0019701960197E1F7AC98AD9880E0BB
S113288091E0019701960197E1F7AC9AAD9A809196
S1132890EE01882311F080E001C081E00E943C0633
S11328A08091EE0191E089278093EE01FF91EF91F1
S11328B0BF91AF919F918F917F916F915F914F9154
S11328C03F912F910F900FBE0F901F9018951F925C
S11328D00F920FB60F9211242F933F934F935F9350
S11328E06F937F938F939F93AF93BF93EF93FF93D4
S11328F064B175B178948FB7F894282F33278091F9
S1132900E801482F469541702FBF282F217080FD84
S11329101CC0339880918B0199278130910519F05F
S1132920029759F028C0442351F0709354016093E6
S113293053018AE00E948C001EC0442319F40E94B3
S11329408E0219C020938B0116C08FB7F894992773
S11329508FBF8FB7F894482F552786B1806187774A
S1132960282F332726B98F7B282F332726B9806851
S1132970992786B94FBFFF91EF91BF91AF919F9176
S11329808F917F916F915F914F913F912F910F9014
S11329900FBE0F901F90189578941F920F920FB648
S11329A00F9211242F933F934F935F936F937F93D1
S11329B08F939F93AF93BF93CF93EF93FF9387B777
S11329C08F7E87BF78948FB7F894C82F8091CB01FE
S11329D09091CC01A091CD01B091CE010097A105B9
S11329E0B10509F054C08091130190911401843011
S11329F0910549F18530910518F4039721F035C00C
S1132A00079741F132C080B39927689415F89695D9
S1132A1087951694E1F780FF13C084E090E09093CB
S1132A201401809313010E943605DC01CB0127E0D9
S1132A3030E040E050E0BC01CD010E94050715C024
S1132A400E94230712C00E945A08882371F40E942E
S1132A50EF080BC081E090E0909314018093130180
S1132A6010921B018DE00E948C00809119019091BD
S1132A701A01019771F482E090E090931A01809317
S1132A801901DE98DE9A80E00E94370802C00E9495
S1132A905706CFBFFF91EF91CF91BF91AF919F9117
S1132AA08F917F916F915F914F913F912F910F90F3
S1132AB00FBE0F901F90189578941F920F920FB627
S1132AC00F9211240F900FBE0F901F9018957894B9
S1132AD01F920F920FB60F9211240F900FBE0F90FA
S1132AE01F90189578941F920F920FB60F9211248D
S1132AF01F932F933F934F935F936F937F938F9382
S1132B009F93AF93BF93CF93DF93EF93FF93CCB592
S1132B10DDB580E286BF8FB7F894182F809113013A
S1132B20909114018530910519F0069739F157C039
S1132B3080E00E945A0782E00E94690887B78F7E6E
S1132B4087BF86E090E09093140180931301E09195
S1132B506D01F0916E0181819927877090700197C2
S1132B6021F4C5A78D2F992784A780B39927B4E0B2
S1132B7096958795BA95E1F780FD77C081E00E942C
S1132B805A07E0916D01F0916E01818185FF13C0B8
S1132B9087E090E090931401809313010E9436051E
S1132BA0DC01CB0120E830E040E050E0BC01CD0185
S1132BB00E9405070BC081E090E09093140180937C
S1132BC0130110921B018DE00E948C0080B39927A1
S1132BD0A4E096958795AA95E1F780FF46C0809179
S1132BE01201882351F50E945A0740918A01483006
S1132BF0A0F480917F01840F912D911D9C01887F09
S1132C009370281BE22FFF27EE0FFF1FEC50FE4F9F
S1132C10C083D1834F5F40938A0181E08093120186
S1132C20D093C301C093C20180B39927F4E0969571
S1132C308795FA95E1F780FD18C0809112018823E9
S1132C40A1F081E00E945A07109212018091C20102
S1132C509091C301C81BD90B2A9738F480918A013B
S1132C60882319F0815080938A011FBFFF91EF914F
S1132C70DF91CF91BF91AF919F918F917F916F9190
S1132C805F914F913F912F911F910F900FBE0F9025
S1132C901F90189578941F920F920FB60F921124DB
S1132CA02F933F938F939F938FB7F894282F3327B5
S1132CB0809155019091560101969093560180930D
S1132CC055012FBF9F918F913F912F910F900FBE70
S1132CD00F901F9018951F920F920FB60F92112408
S1132CE0EF92FF920F931F932F933F934F935F9312
S1132CF06F937F938F939F93AF93BF93CF93DF9300
S1132D00EF93FF938FB1282F3327E0915001F09177
S1132D105101309739F080915A0190915B01E80F8D
S1132D20F91F208380915A0190915B010196909341
S1132D305B0180935A0180E00E94AC0720915A0104
S1132D4030915B0180918D0190918E012817390794
S1132D5018F40E94930A35C1E0905001F09051019B
S1132D601092510110925001109278011092770143
S1132D7010928E0110928D0110925B0110925A01F3
S1132D808FB18091BE019091BF012091BE0186FF59
S1132D90D3C02F7B822F99278E33910509F411C15B
S1132DA0CF9709F00EC1C0912501D0912601188159
S1132DB080915D0190915E018230910521F003972D
S1132DC009F444C0B4C083E090E090935E01809322
S1132DD05D01412F55279A012F5F3F4F60915201AA
S1132DE0862F9927821793077CF40E942C05C09A9A
S1132DF0C09888E00E946D0788E00E946D07C09A21
S1132E0083E00E94690890C080E090E0B79B02C014
S1132E1081E090E0892B69F481B1992776E0969559
S1132E2087957A95E1F780FD04C0611B615060933A
S1132E305201193220F4BE016F5F7F4F02C060E07F
S1132E4070E080E090E00E94010BBBC0C09A83E078
S1132E500E94690880918A01882309F11B3028F1B6
S1132E6080917F01E82FFF27EE0FFF1FEC50FE4FEC
S1132E70808191818DA7892F99278CA780917F01CB
S1132E80992701969C01287F3170821B930B8093B4
S1132E907F0180918A01815080938A0106C08FEF5F
S1132EA09FEF8DA78FEF90E08CA7FE01E10FF11D3E
S1132EB0808187FF39C0EF28B9F169816770E0919B
S1132EC02501F0912601623049F5A0916D01B09180
S1132ED06E0120818091130190911401079721F5CF
S1132EE0ED019B8183818917F9F487B78F7E87BFB2
S1132EF081E08BA7E20FF11D8291319688A7808132
S1132F008F7789A781E090E0909314018093130157
S1132F1010921B018DE00E948C0006C0613021F4E8
S1132F2082E10E948C004DC00E94480B4AC0C09AA6
S1132F3083E00E94690845C02E3309F042C0C09A5C
S1132F408091130190911401089739F481E090E085
S1132F50909314018093130134C0809175018823E8
S1132F6049F484E090E090931401809313010E944B
S1132F70EF0827C082E00E94690883E090E0909304
S1132F801401809313010E94DD00DC01CB018F71D9
S1132F90907001969C0143E0220F331F4A95E1F79C
S1132FA0280F391F280F391F7901002711270E9484
S1132FB03605DC01CB01A8019701BC01CD010E94BB
S1132FC00507FF91EF91DF91CF91BF91AF919F9151
S1132FD08F917F916F915F914F913F912F911F91AD
S1132FE00F91FF90EF900F900FBE0F901F901895C8
S1132FF0A0E3B0E0EEEFF7E10C94EA1A222E332EB0
S1133000442E552E662E772E882E992E2A2D3B2D52
S1133010A8E0FE013196AA2E1192AA94E9F729821A
S11330203A824B825C826D827E828F829886FE0118
S11330303996BA2E1192BA94E9F729873A87CB8642
S1133040DC86ED86FE860F87188BFE017196119241
S1133050AA95E9F7C980DA80EB80FC80C9A6DAA6D4
S1133060EBA6FCA6870176018FEF9FEFA0E0B0E00E
S1133070E822F9220A231B23A9A4BAA4CBA4DCA422
S113308016014424552489859A85AB85BC858DA772
S11330909EA7AFA7B8AB5C016D018FEF9FEFA0E0D7
S11330A0B0E0A822B922CA22DB228DA59EA5AFA535
S11330B0B8A93D0188249924C801B701A601950146
S11330C00E94CB1A69A37AA38BA39CA3C801B7015E
S11330D0A40193010E94CB1A6DA37EA38FA398A78A
S11330E0C201B101A60195010E94CB1A7B018C019A
S11330F0C201B101A40193010E94CB1A9B01AC014E
S1133100A9A0BAA0CBA0DCA0C601AA27BB27ADA06A
S1133110BEA0CFA0D8A4A80EB91ECA1EDB1EAE0C3A
S1133120BF1CC01ED11EADA2BEA2CFA2D8A6AE1493
S1133130BF04C006D10620F4205030404F4F5F4FEB
S1133140CDA0DEA0EFA0F8A4C701AA27BB27820F59
S1133150931FA41FB51F8D8F9E8FAF8FB8A3A60199
S11331603327222789A19AA1ABA1BCA1A070B0707A
S1133170280F391F4A1F5B1F298F3A8F4B8F5C8F93
S1133180A98CBA8CCB8CDC8CED8CFE8C0F8D18A1A9
S1133190ED8AFE8A0F8B188F2D853E854F855889C1
S11331A069A57AA58BA59CA50E94CB1A3B014C016D
S11331B08D819E81AF81B885BC01CD012DA53EA531
S11331C04FA558A90E94CB1ADC01CB01680E791EC9
S11331D08A1E9B1E8D899E89AF89B88D860D971D89
S11331E0A81DB91D8D8B9E8BAF8BB88F6D897E8981
S11331F08F89988D2A2D3B2D4C2D5D2DE2E1E09693
S11332000C94061B8F929F92AF92BF92CF92DF9243
S1133210EF92FF920F93CF93DF93CDB7DEB768970A
S11332200FB6F894DEBF0FBECDBFE82E002349F4DD
S1133230298B3A8B4B8B5C8B6D8B7E8B8F8B988F12
S11332406CC088E0FE01319611928A95E9F72983D2
S11332503A834B835C836D837E83EF82988740E25D
S1133260401B14160CF041C08D819E81AF81B8853E
S11332706C017D0104C0CC0CDD1CEE1CFF1C4A95C6
S1133280D2F7202F332727FD3095022E04C0B695A0
S1133290A795979587950A94D2F78D879E87AF87D0
S11332A0B88B89819A81AB81BC8104C0B695A795FE
S11332B0979587952A95D2F78C299D29AE29BF2900
S11332C089879A87AB87BC8729853A854B855C8536
S11332D06D857E858F859889298B3A8B4B8B5C8B8A
S11332E06D8B7E8B8F8B988F18C01D861E861F86D4
S11332F0188A842F992787FD909522273327281B26
S1133300390B8D819E81AF81B88504C0B695A79590
S1133310979587952A95D2F7D3CF29893A894B89EE
S11333205C896D897E898F89988D68960FB6F8942B
S1133330DEBF0FBECDBFDF91CF910F91FF90EF9015
S1133340DF90CF90BF90AF909F908F900895DC0155
S113335001C06D9341505040E0F708955058192E24
S1133360A6D001D08CC0BA176207730784079507EB
S1133370B1F188F40EF410940B2EBA2FA02D062E62
S1133380622F202D072E732F302D082E842F402DD1
S1133390092E952F502DFF275523B9F0591B49F0BD
S11333A0573E98F0469537952795A795F040539545
S11333B0C9F776F0BA0F621F731F841F30F4879524
S11333C077956795B795F040939517FA0F2E089562
S11333D0BF1BBB27BA0B620B730B840BF6CFDEF655
S11333E083C097FB70D09F3738F0FEE9F91B982F04
S11333F0872F762F6B2F05C074C096958795779588
S11334006795F150D0F73EF490958095709561954D
S11334107F4F8F4F9F4F0895E89403C097FB0EF49E
S1133420F3DFB62F672F782F892F9EE9002427C05A
S11334300ED05EF004C00BD026F001C008D019F005
S113344020F48FEF089580E0089581E0089597FBBC
S1133450092E052600F868942DD0E89407FC07C0CF
S1133460621773078407950721F008F40094079402
S1133470989408959A95BB0F661F771F881F11248F
S11334809923A1F08823B2F79F3F59F0BB0F48F46A
S113349021F4002011F460FF04C06F5F7F4F8F4F51
S11334A09F4F881F9795879597F908951AC0052E01
S11334B0092607FA440F551F5F3F79F0AA27A5177D
S11334C008F051E04795880F991F9F3F31F0BB27C3
S11334D0B91708F091E0879508959F919F91112461
S11334E057C066277727882799270895592F482F8B
S11334F0372F262FDCDF01D0C2CF992339F0552393
S113350029F09F575F57950F13F4CAF1EDCF9158E7
S11335109F3FE1F3A62F00241124BB2766275527DC
S1133520F8E0A69520F4020E131EB41F651F220FA7
S1133530331F441F551FFA95A1F7F8E0E72F7727AB
S1133540F8E0E69520F4130EB41F651F7A1F330FBD
S1133550441F551FAA1FFA95A1F7F82F8827F6953F
S113356020F4B40F651F7A1F8E1F440F551FAA1F26
S1133570EE1FFF23A1F788231AF4939539F408C0AA
S1133580000C111CBB1F661F771F881F012808959C
S11335909FEF80EC0895629FD001739FF001829F9A
S11335A0E00DF11D649FE00DF11D929FF00D839FCE
S11335B0F00D749FF00D659FF00D9927729FB00D6B
S11335C0E11DF91F639FB00DE11DF91FBD01CF017E
S11335D0112408952F923F924F925F926F927F929F
S11335E08F929F92AF92BF92CF92DF92EF92FF920F
S11335F00F931F93CF93DF93CDB7DEB7CA1BDB0BBB
S11336000FB6F894DEBF0FBECDBF09942A8839885F
S113361048885F846E847D848C849B84AA84B98466
S1133620C884DF80EE80FD800C811B81AA81B98172
S1133630CE0FD11D0FB6F894DEBF0FBECDBFED0186
S10536400895E7
S1133642FF0100FFFFFFFF24001A0302FFFF011422
S1053652010071
S9030000FC
