:100000000C945D000C9411140C941B140C94431468
:100010000C944D140C9457140C9461140C946B14A0
:100020000C949B140C947A000C947A000C94AF15E9
:100030000C940A150C9499150C9487160C948F1334
:100040000C94CF130C94A8160C947A000C947A009C
:100050000C947A000C94A5140C947A000C947A00F9
:100060000C94A4150C947A000C947A000C947A00E9
:100070000C947A000C947A000C947A000C947A0018
:100080000C947A000C947A000C947A00BE0D010E48
:10009000330E880EC60ED80EEA0E530F5A0F600F9D
:1000A000A90F3B103D10411065106C108510941085
:1000B0005011AA1100081C18141011241FBECFEFF4
:1000C000D0E1DEBFCDBF11E0A0E0B1E0ECEBF6E3A4
:1000D00000E00BBF02C007900D92A231B107D9F723
:1000E00012E0A2E1B1E001C01D92A636B107E1F72E
:1000F0000C94F6110C9400008FB7F894992708958A
:100100008FBF08958FB7F894282F33278BB392E0D1
:1001100089278BBB2FBF0895982F8FB7F894282F6E
:10012000E92FFF27E95CFD4F80818F3FB1F480917B
:100130004E02891791F0809133028F3F19F490930A
:10014000330207C080914E02E82FFF27E95CFD4F84
:10015000908390934E0280E001C085E02FBF9927E5
:100160000895FC0180818C5099270895FC018781B6
:100170009927382F222786819927822B932B089540
:10018000882311F06E9A08956E9808958091150154
:10019000882319F480E090E0089581E090E00895CC
:1001A0002F923F924F925F926F927F928F929F9287
:1001B000AF92BF92CF92DF92EF92FF920F931F9375
:1001C000CF93DF93CDB7DEB72A970FB6F894DEBF93
:1001D0000FBECDBF8FB7F894282F332729873A87D2
:1001E00020906A0130906B0140906C0150906D013D
:1001F00066245EE4A52E43E8B42EC62CD62CE62C4D
:10020000F62C062D162D222D332D442D552D662D21
:10021000762D862D962D0E94351829833A834B839F
:100220005C836D837E838F839887822E932EA42E8A
:10023000B52EC62ED72EE82EF92E24013501769440
:1002400067945794479400E2282D392D4A2D5B2D51
:100250006C2D7D2D8E2D9F2D0E943F19A22EB32E29
:10026000C42ED52EC601B501640D751D861D971DC2
:1002700097FF05C09F776F5F7F4F8F4F9F4F6093B2
:100280006A0170936B0180936C0190936D013985C5
:100290003FBF2A960FB6F894DEBF0FBECDBFDF91E9
:1002A000CF911F910F91FF90EF90DF90CF90BF9073
:1002B000AF909F908F907F906F905F904F903F9006
:1002C0002F900895EF920F931F93AE2D99E0899F81
:1002D000F0011124E95DFE4F4083518362837383F3
:1002E0000483158326833783A17080858E7F8A2BB4
:1002F0008260808782E00E948C001F910F91EF90B6
:100300000895CF93DF938FB7F894682F7727A09144
:10031000B901B091BA01C091BB01D091BC0182B7C3
:1003200006B600FE04C01196C11DD11D82B7282F4C
:1003300033274427552788279A2FAB2FBC2F822B92
:10034000932BA42BB52B6FBFBC01CD01DF91CF91B7
:1003500008950F931F93CF93DF938C01EB01672BCD
:1003600019F00E94B1008883C8010B96DF91CF91EC
:100370001F910F910895AF92BF92CF92DF92EF92AB
:100380000F931F935B016C010E948101DC01CB0183
:10039000E1E0EE2E96018501AC01BD0184E00E94F2
:1003A00062011F910F91EF90DF90CF90BF90AF90BF
:1003B0000895282F869586958695E82FFF27EC5976
:1003C000FE4F277081E090E002C0880F991F2A95A8
:1003D000E2F720812823822F99270895FF920F9317
:1003E0001F93CF93DF93082F8FB7F894F82E809147
:1003F0001D01833009F062C080910A01801709F065
:100400005DC080916401882309F03EC081E090E0E6
:10041000892BE9F510911E01C12FDD272196C430EB
:10042000D10511F4C0E0D0E08C2F0E94D9018823BF
:1004300081F4812F9927C817D90781F78FEF90E0B2
:100440008093B30181E080931D0189E00E948C00BC
:1004500024C08C2F869586958695E82FFF27EC592A
:10046000FE4F2C2F277081E090E002C0880F991F6B
:100470002A95E2F7982F9095808189238083C093F5
:100480001E018C2F9927DCCF80E090E0C1CF84E063
:1004900080930A0110921D013798802F992781308F
:1004A000910561F0823091051CF4892B21F006C082
:1004B000029719F003C01C9801C0DF98FFBE81E0CD
:1004C00090E0DF91CF911F910F91FF9008951F93BE
:1004D000CF93DF93C82F8FB7F894282F3327122F8D
:1004E00080911D01882301F18C2F0E94D90188235E
:1004F000B1F48C2F869586958695E82FFF27EC59C9
:10050000FE4FC77081E090E002C0880F991FCA9526
:10051000E2F72081282B208380E090E002C085E074
:1005200090E01FBF992719C081E080931D01C093FF
:10053000B3012FBF8FB7F8949927379A8FBF8FB722
:10054000F894C82FDD2780910A01843019F489E0DE
:100550000E948C00CFBF80E090E0DF91CF911F918F
:100560000895982F8FB7F894282F3327422F809122
:100570002101882301F1E92FFF27EC5AFD4F8081EB
:100580008F3FA1F4E0910C01E91781F080910D01FA
:100590008F3F19F490930D0104C0FF27EC5AFD4FD3
:1005A000908390930C0180E090E002C085E090E0A1
:1005B0004FBF9927089541E0409321019093840112
:1005C0002FBF80912001882321F487E00E948C00B6
:1005D00002C040931F0180E090E008954091F20135
:1005E000842F99278130910589F0823091051CF480
:1005F000009761F00AC08230910519F0039719F055
:1006000004C087E003C084E001C08FE1982F242F4D
:1006100033272130310579F02230310524F42115BA
:10062000310539F008C02230310529F02330310579
:1006300011F4822F01C080E0E82F242F33272130CE
:10064000310561F0223031051CF4232B39F008C04C
:100650002230310519F02330310511F428E001C0B2
:1006600020E033278FB7F894F82F80914B028E7FCC
:1006700080934B02322F47B160E070E0842F829567
:10068000869586958370E81751F4892F88508631B6
:1006900020F4842F8F71981711F461E070E0862F99
:1006A000880F20914B022D7F282B9F71892F880F57
:1006B000880F2378282B20934B02E295EE0FEE0F44
:1006C000E07C4F734E2B4062407E492B842F99274C
:1006D00087B9506C21702295220F207E5F7D522BAE
:1006E0005861383059F58091BD019091BE0121E0EB
:1006F0008638920718F087E090E01FC0833C910590
:1007000018F086E090E019C08136910518F085E078
:1007100090E013C08033910518F084E090E00DC0A4
:100720008831910518F083E090E007C00C9718F02D
:1007300082E090E002C080E090E0382F3770587F70
:10074000532B852F992786B9FFBF0895AF92BF928B
:10075000CF92DF92EF92FF920F931F935B016C0198
:10076000F1E0FF2E0E948101DC01CB01EF2C96010C
:100770008501AC01BD018F2D0E9462011F910F9177
:10078000FF90EF90DF90CF90BF90AF90089597E0EB
:1007900087FF02C0919A01C09198880F909A909813
:1007A000915097FFF5CF0895982F8FB7F894282F81
:1007B00089B78D7F89BF82E088BF80916A00886099
:1007C00080936A00992321F080916A00846003C0BD
:1007D00080916A008B7F80936A0089B7826089BFAD
:1007E0002FBF80E090E008952F923F924F925F924A
:1007F0006F927F928F929F92AF92BF92CF92DF9231
:10080000EF92FF920F931F937B01882309F0E6C0BC
:10081000C0907601D09077018FEFC8168FEFD80681
:1008200009F4DCC07093B7016093B601CB01AA272D
:1008300097FDA095BA2FBC01CD010E944B1A3B0138
:100840004C01F7FE08C020E030E040E857E40E9489
:10085000EC193B014C01C601AA2797FDA095BA2FC0
:10086000BC01CD010E944B1AD7FE06C020E030E04B
:1008700040E857E40E94EC192AE037ED43E25CE3DC
:100880000E94B71ADC01CB0120E030E040E252E4E4
:10089000BC01CD010E94EB191B012C0122EA37EEAD
:1008A0004BE356EBC401B3010E94B71ADC01CB0144
:1008B000A4019301BC01CD010E94B71A7B018C01F8
:1008C00024E533EE45E25DE3C401B3010E94B71AAB
:1008D000DC01CB019C01AD01C801B7010E94EC19FC
:1008E000DC01CB0120E030E040E850ECBC01CD0160
:1008F0000E94EC195B016C0120E030E048EC51E40F
:10090000C201B1010E94EB197B018C012CEA35EC8C
:1009100047EA58E3C401B3010E94B71ADC01CB01D6
:100920002AE037ED43E25CE3BC01CD010E94EC1903
:10093000DC01CB019C01AD01C801B7010E94B71ACF
:10094000DC01CB01A6019501BC01CD010E94EC198F
:100950006B017C0120E030E048EC52E40E94581A20
:10096000181654F40F2EF0E0CF2EF0E0DF2EF8EC46
:10097000EF2EF2E4FF2EF02D2DEC3CEC4CEC5DE381
:10098000C701B6010E94551A882354F40F2EFDECBE
:10099000CF2EFCECDF2EFCECEF2EFDE3FF2EF02D36
:1009A0008FB7F894082F1127C201B1010E942E1AA7
:1009B000DC01CB0190935F0180935E010FBF8FB785
:1009C000F894082F1127C701B6010E942E1ADC01E6
:1009D000CB0190933102809330020FBF82E00E94DE
:1009E00067021F910F91FF90EF90DF90CF90BF9023
:1009F000AF909F908F907F906F905F904F903F90BF
:100A00002F90089530E0232F909A80B399279695E0
:100A1000879580FD3160273009F0330F90982F5F64
:100A2000283090F3899A9198909A90988998919A01
:100A3000832F99270895899A919A909A909808956A
:100A4000CF93982F8FB7F894C82F809121018330CE
:100A5000A1F580910B01891781F520E030E08091AC
:100A60000D018F3F11F421E030E0232BD9F48F3FAB
:100A700081F0282F3327F901EC5AFD4F80818093B4
:100A80000D018F3F11F480930C018FEF8083C9011A
:100A900002C08FEF90E08093840181E08093210178
:100AA00086E009C082E080930B011092210181E071
:100AB0008093200188E00E948C00CFBF81E090E00D
:100AC000CF9108951F93CF93DF93182FEB0180E010
:100AD0000E942005112321F4D0937701C093760161
:100AE00081E00E94B102DF91CF911F91089580E8CB
:100AF00080935D011092BF011092B80110925002D4
:100B000008958FB7F894682F7727809162019091AC
:100B100063012CB53DB506B602FE03C001962CB5A7
:100B20003DB5AA27BB2744275527DC0199278827ED
:100B3000822B932BA42BB52B6FBFBC01CD01089545
:100B4000AF92BF92CF92DF92EF92FF920F931F93DB
:100B5000CF93DF930E948101FC01EB0120917C0186
:100B600030917D0140917E0150917F017B018C018C
:100B7000E21AF30A040B150B1092810180916E01A9
:100B800090916F01A0917001B0917101E816F90682
:100B90000A071B07C0F0EE24FF248701280F391F26
:100BA0004A1F5B1F20937C0130937D0140937E019F
:100BB00050937F01E0926E01F0926F0100937001FB
:100BC0001093710163C05C016D01AE18BF08C00ACB
:100BD000D10A8601750161E0A61661E0B60660E003
:100BE000C60660E0D60690F080E0A81680E0B80661
:100BF00081E0C80680E0D80610F08FEF04C0BB2764
:100C0000AD2D9C2D8B2D8093810158C061E8A616D7
:100C1000B104C104D10430F1C058DF4FEF4FFF4F92
:100C2000C0937C01D0937D01E0937E01F0937F011E
:100C3000C058D040E040F04080E89FEFAFEFBFEFFA
:100C4000E80EF91E0A1F1B1FE0926E01F0926F0161
:100C50000093700110937101E0E8EE2EF12C012D4C
:100C6000112D14C0280F391F4A1F5B1F20937C01D0
:100C700030937D0140937E0150937F0110926E016D
:100C800010926F0110927001109271016E2D82B757
:100C9000282F8C1B8E5F8E1518F0622F6E5F01C09F
:100CA0006C0F662309F461E0615000B601FCFDCFD2
:100CB00061BF82E086BF87B7826087BFDF91CF9137
:100CC0001F910F91FF90EF90DF90CF90BF90AF906A
:100CD00008950F931F93DC01CB016FB7F894062F93
:100CE000112780937C0190937D01A0937E01B093A6
:100CF0007F0120936E0130936F01409370015093F8
:100D000071010E94A0050FBF1F910F910895AF922E
:100D1000BF92CF92DF92EF92FF920F931F93CF93E8
:100D2000DF930E948105FC01EB018091720190919B
:100D30007301A0917401B0917501A0902C02B09044
:100D40002D02C0902E02D0902F029C01AD012A0DE1
:100D50003B1D4C1D5D1D79018A01EC1AFD0A0E0B2D
:100D60001F0BC817D907EA07FB0730F02817390708
:100D70004A075B0770F005C0281739074A075B0769
:100D800028F4C217D307E407F50718F0EE24FF2470
:100D9000870121E0E21620E8F20620E0020720E0C9
:100DA000120730F1C050D048EF4FFF4FC09372018F
:100DB000D0937301E0937401F0937501C050D04853
:100DC000E040F04080E090E8AFEFBFEFE80EF91EA2
:100DD0000A1F1B1FE0922C02F0922D0200932E029C
:100DE00010932F02E12CA0E8FA2E012D112D14C032
:100DF0008A0D9B1DAC1DBD1D8093720190937301E4
:100E0000A0937401B093750110922C0210922D02E0
:100E100010922E0210922F02B7012CB53DB5C901D8
:100E20008C1B9D0B03968E159F0520F0B9016D5FFD
:100E30007F4F02C06C0F7D1F6115710511F461E0D9
:100E400070E0615070407BBD6ABD80E186BF87B7AE
:100E5000806187BFDF91CF911F910F91FF90EF903D
:100E6000DF90CF90BF90AF9008950F931F93DC0158
:100E7000CB016FB7F894062F1127809372019093DE
:100E80007301A0937401B093750120932C023093E9
:100E90002D0240932E0250932F020E9487060FBF0F
:100EA0001F910F910895EF92FF920F931F93CF938D
:100EB0008FB7F894C82F0E94D000DC01CB019C01B1
:100EC000277030702F5F3F4FC1F0C901B3E0880F2A
:100ED000991FBA95E1F7820F931F820F931F7C0130
:100EE000002711270E948105DC01CB01A801970191
:100EF000BC01CD010E94350706C081E090E09093CF
:100F0000140180931301CFBFCF911F910F91FF90D8
:100F1000EF90089597B79F7D97BF90E296BF882383
:100F200019F08EB5806402C08EB58F7B8EBD87B7F9
:100F3000806287BF80E090E008958FB9779BFECFF5
:100F40008FB1992708950F931F938B010E949D07DE
:100F5000812F99270E949D07802F0E949D07992726
:100F60001F910F910895DF92EF92FF920F931F93BD
:100F7000CF937A01C22FDD248C01060F111D802F23
:100F800080680E949D0716950795802F807C0E949F
:100F90009D07CC2341F0F70181917F010E949D07BD
:100FA000D82EC150F6CF8D2D9927CF911F910F913B
:100FB000FF90EF90DF900895882311F06F9A0895C5
:100FC0006F9808951F9310E0812F0E94C000BA9A75
:100FD000BB98B99AB89A6C9AC098812F0E94DC0786
:100FE000709A6B986A98689881E00E94C0001F917F
:100FF00008950F931F93CF93082F8FB7F894282F3E
:101000003327122F80911701882321F02FBF85E00D
:1010100090E021C090911501992341F482E08093E2
:1010200015019093030180E090E002C081E090E020
:101030009927C82F882311F40E94E2078C2F992743
:10104000282F882329F40093060181E0809317015B
:101050001FBF822F9927CF911F910F910895CF9392
:10106000C82F0E94C600882311F40E94E2078091D5
:101070001501882359F481E080931501C093C101C3
:1010800081E10E948C0080E090E01EC0EC2FFF27E1
:10109000E65AFE4F80818F3FA1F4E0910401EC17E6
:1010A00081F0809105018F3F19F4C093050104C0C0
:1010B000FF27E65AFE4FC083C093040180E090E012
:1010C00002C085E090E099279927CF910895CF93AA
:1010D000282F8FB7F894C82F90911701992369F0A2
:1010E00081E090E002C0880F991F2A95E2F72091D5
:1010F0001601282B2093160108C02093060181E0D9
:1011000080931701892F0E942F08CFBF80E090E0C5
:10111000CF910895CF9382E00E94F9079927C82FB5
:10112000882319F082E00E9467088C2F9927CF91BD
:1011300008951F93CF93DF93982F8FB7F894282F9C
:101140003327122F80910601891721F02FBF81E0EC
:1011500090E071C04FEF40930601809115018230FD
:1011600009F03FC0909103019923D9F520E030E0C8
:1011700080910501841711F421E030E0232B69F5FB
:101180008F3F79F0282F3327F901E65AFE4F8081EF
:10119000809305018F3F11F4409304014083C901FE
:1011A00002C08FEF90E08093C10181E08093150130
:1011B00081E10E948C0015C02093060181E090E03F
:1011C00002C0880F991F4A95E2F780953823309323
:1011D000160180E00E942F082BC0409303019093DA
:1011E00015010E94C600C82FDD27CC2331F48C2FB7
:1011F0000E94C000C0934F02C09A30911601332361
:10120000A9F0209106012F5F632F7727243008F083
:1012100020E0422F5527CB01042E02C095958795DB
:101220000A94E2F780FDC8CF2F5FF0CF109217012C
:101230001FBF80E090E0DF91CF911F910895CF9381
:10124000C1E0C09880918001882311F085E001C041
:1012500084E00E949D0783FD05C080E00E949D07F9
:1012600083FDC0E08FB7F894CC2319F023E030E081
:1012700002C025E030E030931401209313018FBFAA
:10128000C09ACC2329F082E00E9499080E9453075B
:10129000CF9108952F923F924F925F926F927F92DB
:1012A0008F929F92AF92BF92CF92DF92EF92FF9276
:1012B0000F931F93CF93DF93CDB7DEB724970FB66D
:1012C000F894DEBF0FBECDBF1B012C016624AA24FB
:1012D000BB2467E2862E61E0962EF401608561FFF3
:1012E00031C12081318142815381D201C101821BF0
:1012F000930BA40BB50BE480F580068117818E1546
:101300009F05A007B10708F41DC160FF03C06D7FF2
:10131000608709C02E0D3F1D401F511FF40120831F
:10132000318342835383F2E0AF16B104B9F183E015
:10133000A816B10444F4A114B10481F091E0A916F7
:10134000B10471F0FFC0E3E0AE16B10409F45BC074
:10135000F4E0AF16B10409F4F2C0F4C080E0F0C0CC
:101360008FB7F894082F1127902F80910B018230AE
:1013700099F480912101813021F486E00E948C0053
:1013800009C0823049F48091840180930B0183E08D
:10139000809321010FBFD6C09FBFD4C0809152025D
:1013A0009091530285309105D1F08630910518F463
:1013B000039739F0C7C04E9709F0C4C010922401BA
:1013C000C1C01092240180913402682F77276115E3
:1013D000710509F0B7C081E00E946205B3C01092A8
:1013E0002401809134029927009709F4ABC001973A
:1013F00009F0A8C081E00E94200560E070E081E073
:101400000E94F4039FC08FB7F8949927C0901801E9
:10141000CC2011F08FBF96C08FBF80B3992756E0C4
:10142000969587955A95E1F7782E81E078228091FC
:10143000B50190915501891709F47BC0791609F01F
:1014400078C084E090E090931A01809319018E0196
:101450000F5F1F4F80910701909108018983892FA9
:101460009927F801818380913502909136028B8310
:10147000892F99278C838FB7F894992721E0D22E52
:10148000D09218018FBF80E10E948C0060E070E074
:101490008DE10E94A30724E0A8016C2D88E691E06D
:1014A0000E94B307C09AC0988FB7F894E82EFF2423
:1014B0008D2D0E948A0701E010E010931401009323
:1014C0001301C0921201C0923202EFBE8FB7F8949E
:1014D000E82EFF240E9477051093690100936801AC
:1014E00089B78F7B89BF80E488BF8AB780628ABF53
:1014F0008AB78F7E8ABF89B7806489BFEFBE8FB7F6
:10150000F894082F11278091190190911A010497DE
:1015100019F483E00E949D070FBF8FB7F894082F3E
:101520001127C09A80E00E9499080FBF8BE00E94AB
:101530008C007092B5018FE00E948C0003C083E0A4
:101540000E946702639489E090E0880E991E0894D7
:10155000A11CB11C94E0961508F0BFCE82E00E9459
:101560008C0024960FB6F894DEBF0FBECDBFDF917E
:10157000CF911F910F91FF90EF90DF90CF90BF9090
:10158000AF909F908F907F906F905F904F903F9023
:101590002F9008958F929F92AF92BF92CF92DF9239
:1015A000EF92FF920F931F93CF93DF938FB7F8942F
:1015B000C0908201D090830180905B0190905C018B
:1015C000C0916501D0916601AE01465F5F4F2091E9
:1015D000C2013091C3012417350708F09A018FBF6B
:1015E00059010894A108B108CA15DB05E8F47E0189
:1015F000E80CF91C8E010C0D1D1DC114D10419F04D
:10160000F801808101C080E00E949D07811491044F
:1016100011F0F701808321960F5F1F4F0894E11CA2
:10162000F11CCA15DB0548F381E00E94DC078FB787
:10163000F894982FC114D10431F0CC0EDD1EF601C0
:1016400080818FB901C01FB8D0936601C093650136
:101650009FBF80E090E0DF91CF911F910F91FF90AD
:10166000EF90DF90CF90BF90AF909F908F900895B4
:101670009C018FB7F89499273093830120938201BE
:1016800070935C0160935B015093C3014093C2016E
:1016900010926601109265018FBF8FB10E94CA0A35
:1016A000992708950F931F93C098009125011091D9
:1016B00026018FE790E0909322028093210280918F
:1016C00021020E949D0741E050E0B80180E090E0D7
:1016D0000E94380B1F910F91089582E090E0909343
:1016E00069018093680183E00E94F907882319F457
:1016F0000E94520B089583E00E9467080895CF93DB
:101700008FB7F894282F3327C22F809168019091CA
:101710006901892B11F42FBF26C02091500222238A
:1017200041F080E090E0B79B02C081E090E0892B1F
:1017300049F481B1992776E0969587957A95E1F7F6
:1017400080FD08C0222319F02150209350020E94EE
:101750006D0B08C081E090E090936901809368016F
:1017600010925002CFBFCF9108951F93CF93DF9374
:10177000C0917801D09179018FA19927182F8823E2
:1017800009F41FE1C09880913202811741F0812F46
:101790009927806E9068BC0185E10E94A307109391
:1017A0003202188111508EE390E0909322028093D0
:1017B0002102809121020E949D07812F9927AC016F
:1017C00060E070E0CE010E94380BDF91CF911F9155
:1017D0000895CF93DF93DA01EA018A876E83872F1A
:1017E00099278F8384E290E08C8360E070E06D83C2
:1017F000245F8FB7F894482F552780911C018330C0
:1018000021F04FBF81E090E059C085E080931C013A
:10181000B0934D02A0934C02809127028F5F80937A
:101820002702FD0183834FBF2193ED018981992711
:10183000807290708983892F992781839927982FA7
:10184000882729813327822B932B81649868898389
:10185000892F9927818380910101909102018887C6
:10186000892F992789876BA768A769A71DA66CA7E9
:1018700040914C0250914D028FB7F894282F332796
:101880008091130190911401019711F02FBF14C0A2
:1018900082E090E0909314018093130181E08093A3
:1018A000800150937901409378012FBF0E948A08EC
:1018B000882311F40E94B50B80E090E09927DF9116
:1018C000CF910895BF92CF92DF92EF92FF920F9344
:1018D000CF93DF93EB01042F8E83892F99278F837A
:1018E00089E08A87E0905801F0905901E114F104F1
:1018F00019F085E090E028C0709359016093580179
:10190000045F08830C50B09000018FEFB816D9F433
:101910008A85C82EDD24CB010E94B60010920001FA
:10192000202FAE01BC018C2D0E94E90B9927282F96
:10193000882331F0B0920001F0925901E0925801F1
:10194000822F992701C0C7019927DF91CF910F916D
:10195000FF90EF90DF90CF90BF900895CF92DF92ED
:10196000EF92FF920F931F93209100012F3F09F4F4
:1019700020E03327C90101962817390748F48091E0
:10198000580190915901892B19F01092000103C060
:101990008FEF80930001E0910001EF3FF1F0FF270E
:1019A000EE0FFF1FE85AFE4F00811181F80182857A
:1019B000C82EDD24C8010E94B6007C01C8010E9427
:1019C000B1009927282FA801B7018C2D0E94E90B9F
:1019D000882319F083E10E948C001F910F91FF90E2
:1019E000EF90DF90CF9008958998919A909A80B364
:1019F00099279695879580FF03C081E090E0089530
:101A0000909880E090E00895AF92BF92CF92DF92DD
:101A1000EF920F931F935B016C010E948101DC0127
:101A2000CB0161E0E62E96018501AC01BD0182E0AB
:101A30000E9462011F910F91EF90DF90CF90BF90B5
:101A4000AF9008951F93889A90988998919A89B732
:101A50008D7F89BF899A919A909888E0909A909802
:101A6000815087FFFBCF899A919A9098909A91988C
:101A70009098909A919A90988091520290915302E6
:101A80008F71907090935302809352028091520212
:101A90000E94C7030E94F40C882329F010922401AD
:101AA00081E090E048C020915202309153022630EC
:101AB000310561F12730310538F42330310579F0F3
:101AC0002530310561F035C02730310599F02E31D0
:101AD000310579F56BE070E080E090E008C089980E
:101AE000919A0E94D4036AEF70E080E090E00E9437
:101AF000040D1FC00E940205182F0E9402050E94BB
:101B00001B051093230184E00E948C008091B40196
:101B10000E94C7030E94F40C882321F081E0809387
:101B2000220104C08091B4018093230184E00E94CB
:101B30008C0080E090E01F910895AF92BF92CF9209
:101B4000DF92EF92FF920F931F93CF93DF93CDB766
:101B5000DEB766970FB6F894DEBF0FBECDBF9927EC
:101B6000AA27BB27FC01449708F004C4EA5BFF4F97
:101B7000EE0FFF1F0590F491E02D09948FB7F894B4
:101B8000282F332780910F01898381E08A8385E0A4
:101B90008B838AE08C8380915601909157018D83CD
:101BA0009E8380917601909177018F8398878091B1
:101BB000B6019091B70189879A8780917A019091B7
:101BC0007B018B879C8780912302909124028D87D3
:101BD0009E872FBF60E070E085E891E00E94A90138
:101BE0002EE0FE013196DC01322F01900D923A95E4
:101BF000E1F7422F65E871E08FEF9FEF0E94620CE2
:101C0000B9C340915401442339F58FB7F894282F74
:101C10003327E0907C01F0907D0100917E011091CE
:101C20007F0180916E0190916F01A0917001B09140
:101C30007101E80EF91E0A1F1B1F2FBF8091280299
:101C400090912902A0912A02B0912B029C01AD0132
:101C5000C801B7010E9469060E948101DC01CB0125
:101C6000BC01CD0140C00E9481017B018C014FEF7E
:101C7000A42E4FEFB42E4FEFC42E4FE7D42E70E0BA
:101C800087B78D7F87BFE7E2F1E064E0808581FF61
:101C90001CC080819181A281B381A8019701281B7A
:101CA000390B4A0B5B0BDA01C9012481358146816E
:101CB0005781281B390B4A0B5B0B2A153B054C053A
:101CC0005D051CF459016A0171E06150399667FFA6
:101CD000DDCF772309F44EC31A141B041C041D0422
:101CE0002CF0C801B7010E944A0944C3A0922802FF
:101CF000B0922902C0922A02D0922B0281E08093F6
:101D00005401A6019501C801B7010E94690632C3BA
:101D100080912401882309F42DC3809141018D7F96
:101D2000809341010E9402059927182F00270E94E5
:101D300002059927082B192B0E9402050E941B05FA
:101D400080915202909153028330910519F00597CA
:101D500061F010C31092240180913402882309F0AD
:101D600009C3B8010E94620505C310922401809145
:101D700034029927009709F4FDC2019709F0FAC2CD
:101D800081E00E942005B80180E08AC08091520263
:101D9000909153028630910531F0079709F0EAC21D
:101DA00010922401E7C21092240110922201E2C293
:101DB00080911F01813031F46BE070E080E090E0B1
:101DC0000E94A6038FB7F894992710921F011092D2
:101DD000200180C18FB7F894282F33279091840178
:101DE00090930B0183E0809321012FBF892F9927C6
:101DF000009719F0019769F1BDC280910E01882307
:101E000019F484E090E015C020912401222319F0F8
:101E100085E090E00EC081E08093240183E090E0B3
:101E20009093530280935202209334020E94220D19
:101E30009927082F1127002309F49CC280E00E94F3
:101E40002005002321F4109277011092760181E0A1
:101E5000BEC021E080910E01882319F484E090E057
:101E600014C080912401882319F085E090E00DC012
:101E70002093240185E090E09093530280935202D6
:101E8000209334020E94220D9927082F1127002346
:101E900009F470C281E00E94200560E070E0802FAC
:101EA0000E94F40367C26BE070E080E090E00E9463
:101EB000A60360C2889890988998919885E0D2C1CD
:101EC0008FB7F894282F33279091B30190930A018C
:101ED00083E080931D012FBF892F992781309105C1
:101EE00071F0823091051CF4892B21F008C0029713
:101EF00021F005C0149A1C9A02C0D79ADF9A8091EB
:101F00000A0199278130910591F0823091051CF4E6
:101F1000892B39F02FC28230910569F0039781F047
:101F200029C281E08093C0011092F2010FC081E0CC
:101F30008093C00109C081E08093C00182E004C0A9
:101F400081E08093C00183E08093F2010E94EE0261
:101F500011C21092C0018091F201E0906001F090F6
:101F60006101082F11270130110581F002301105A0
:101F700024F40115110541F010C00230110541F0A3
:101F80000330110539F009C080E005C081E003C0CD
:101F900082E001C083E00E94EE0101301105D1F022
:101FA000023011051CF4012B41F0E4C1023011058F
:101FB000D9F00330110529F1DDC126E0F694E7944C
:101FC0002A95E1F7F0925701E092560180E00E94D5
:101FD000B102D0C196E0F694E7949A95E1F7F092B9
:101FE0007B01E0927A01C6C186E0F694E7948A9577
:101FF000E1F7F0922402E092230281E00E9467025E
:10200000B9C106E0F694E7940A95E1F73DE2E316DC
:1020100031E0F30648F180910F018F8783E0888BD0
:10202000898B1A8A60E070E084EC91E00E94A9013B
:10203000FC018F859889A989BA8980839183A283BD
:10204000B38344E064EC71E08FEF9FEF0E94620C79
:10205000882351F4809153018D7F8093530168EE62
:1020600073E080E090E004C062E370E080E090E024
:102070000E94BB017FC183E001C081E080931C010D
:1020800079C18FB7F89499278FBF83E080931C01A3
:1020900020914C0230914D0280910001082F1127B0
:1020A000F801E00FF11FE85AFE4F808191818217FD
:1020B000930709F05FC1108211820E94AE0C012BC0
:1020C00009F058C10E94820055C18FB7F894992732
:1020D000109267018FBF4EC18FB7F894C82EDD24D0
:1020E00080911801882379F40E948101DC01CB01E1
:1020F00011E0E12E01E010E020E030E0AC01BD0194
:1021000083E00E946201CFBE35C18FB7F894282FBB
:10211000332780911801882329F080914A018D7F0F
:1021200080934A012FBF26C18FB7F894282F3327F9
:102130009091C1019093030182E0809315012FBF1C
:10214000992309F017C18FB7F894992720910601B8
:102150008FBF33272130310509F453C022303105B8
:102160001CF4232B51F006C12230310509F47DC047
:102170002330310509F491C0FDC0C0988FB7F894A1
:10218000E82EFF248091190190911A010297B9F568
:1021900083E090E090931A018093190168E170E068
:1021A0008DE10E94A30711E01093550110921801D0
:1021B00080B39927A6E096958795AA95E1F78123A4
:1021C0008093B5018FE00E948C00812F0E949D07B3
:1021D0006FE772E08CE10E94A3079091090185E00E
:1021E000989FC0011124825D9E4F9064BC0188E1DC
:1021F0000E94A30762EF7AE281E10E94A307EFBE8B
:10220000B9C08FB7F894282F3327409109018091E6
:102210000701909108018B8B892F99278C8B8091D6
:102220003502909136028D8B892F99278E8B2FBF87
:10223000C09885E0489FC0011124825D9E4F906444
:10224000BC0188E10E94A30724E0AE014D5E5F4F10
:1022500060E088E691E00E94B307C09A81E00E94A6
:1022600099088EE00E948C0085C08FB7F89499275A
:10227000209113018FBF33272230310521F0243004
:10228000310521F006C00E94B50B74C00E941F09E1
:1022900071C082E00E9499086DC00E94520B6AC012
:1022A000A0912501B09126018C919D01280F311D2F
:1022B000F9018081881F8827881FFD0182A7F90105
:1022C00082919F012F5F3F4FFD0180A7F90180811F
:1022D0008F77FD0181A700912501109126017BE0F8
:1022E000E72EF12CE00EF11EC8010E94B6009C0101
:1022F00080910101909102012817390719F02F5F91
:102300003F4F09F5F80182858930E9F48385282F4C
:10231000332780910F01909110012817390799F404
:10232000F7018181813031F48281853019F480E0B8
:102330000E948C008FB7F894282F33278BB391E03D
:1023400089278BBB2FBF10932601009325010E9484
:102350007F0B10C0809100019927FC01E80FF91F45
:10236000E85AFE4F10821182892B11F40E948200DC
:102370000E94AE0C66960FB6F894DEBF0FBECDBFBE
:10238000DF91CF911F910F91FF90EF90DF90CF9051
:10239000BF90AF900895809133028F3FD1F090911C
:1023A000330280913302E82FFF27E95CFD4F8081E3
:1023B00080933302809133028F3F11F480934E0259
:1023C000892F9927FC01E95CFD4F2FEF20839C01A9
:1023D00002C02FEF30E02F3F19F480E090E0089525
:1023E000822F0E949D0D81E090E00895CFEFD0E113
:1023F000DEBFCDBF8FB7F894182F44E150E06FEFE8
:1024000070E087E392E00E94E4198FEF809333023B
:1024100080934E0281E08EBD88E080BF83E083BF61
:102420002CB53DB54AE78CB59DB58217930708F4E6
:1024300041509C014423B9F792B782B78917E9F359
:102440002CB53DB592B782B78917E9F38CB59DB528
:10245000821B930B409655E0969587955A95E1F728
:102460009093BE018093BD0113BE83B78EBD8EB520
:1024700080BF12BE1DBC1CBC8FEF86BF86B7809389
:102480007C0080B7282F3327277030702115310545
:10249000C1F7D29AD19AD09ADA9AD99AD89A25BB0A
:1024A0008FEF84BB3DBD2CBD87B7846087BF8EB5E1
:1024B000887F84608EBD16B880B7886080BF80E258
:1024C00085BF0E94CB118823E1F780910F01909185
:1024D00010010196AA27BB2780936A0190936B0194
:1024E000A0936C01B0936D018FEF80935A0180919E
:1024F0001C01882319F481E080931C01B89AD69AB4
:10250000D59A8091010190910201909336028093B7
:1025100035028E98B89A8C9883EF91E090932601BB
:1025200080932501109264018FEF9FEF90935502E5
:102530008093540200B602FCFDCF12BE87B78160C3
:1025400087BF83B7887F836000B600FCFDCF83BF61
:102550000E94CB11C82FDD27CC23D1F71FBF789461
:102560008FB7F894282F33278FEF9FEF90935F0159
:1025700080935E01909331028093300290935701D3
:102580008093560190937B0180937A019093770119
:10259000809376019093B7018093B60190932402C3
:1025A000809323022FBFAB9A62E370E080E090E05B
:1025B0000E94BB010E948101DC01CB01EC2E08EEE0
:1025C00013E020E030E0AC01BD018C2F0E946201DD
:1025D00080911C01813049F582E080931C010E94AA
:1025E000D000DC01CB01809327028FB7F894282F0D
:1025F00033278091190190911A01892B11F02FBF77
:1026000014C081E090E090931A01809319012FBFCC
:10261000DD9A0E948105DC01CB0124E130E040E03D
:1026200050E0BC01CD010E9435078FB7F894482FC8
:102630004AC087B79927887B892B41F480917D0018
:10264000282F33272B7F2115310519F020E030E0AA
:102650002AC06F9928C08AB1807C29F580919A00A0
:10266000807C09F5379B03C021E030E01CC087B7B0
:10267000992783709070892BA1F080B79927877074
:102680009070892BD1F781B792B7891B8C3018F0E5
:1026900082B7853F18F022E030E005C023E030E04B
:1026A00002C025E030E0E5E02E1708F4E22F85B700
:1026B000837EFF27EC54FF4F9491892B806285BF66
:1026C00078948895F894809133028F3FC9F0909167
:1026D000330280913302E82FFF27E95CFD4F8081B0
:1026E00080933302809133028F3F11F480934E0226
:1026F000892F9927FC01E95CFD4F2FEF208302C051
:102700008FEF90E08F3F09F494CF4FBF0E949D0D53
:102710008CCF83B783BF00B600FCFDCF08951F9216
:102720000F920FB60F9211242F933F934F935F9305
:102730006F937F938F939F93AF93BF93CF93EF93B9
:10274000FF930E94891387B78D7F87BF78948FB7D7
:10275000F894C82F80916E0190916F01A091700143
:10276000B09171010097A105B10521F481E00E94AB
:102770008C0002C00E94A005CFBFFF91EF91CF91C6
:10278000BF91AF919F918F917F916F915F914F9189
:102790003F912F910F900FBE0F901F9018951F9291
:1027A0000F920FB60F9211242F933F934F935F9385
:1027B0006F937F938F939F93AF93BF93EF93FF9309
:1027C0000E9489138091B9019091BA01A091BB0137
:1027D000B091BC010196A11DB11D8093B9019093E8
:1027E000BA01A093BB01B093BC0180918101882301
:1027F00039F0815080938101882311F40E94A00553
:10280000FF91EF91BF91AF919F918F917F916F91C8
:102810005F914F913F912F910F900FBE0F901F909E
:1028200018951F920F920FB60F9211240F900FBEA2
:102830000F901F9018951F920F920FB60F921124B0
:102840002F933F934F935F936F937F938F939F93B8
:10285000AF93BF93EF93FF9389B78D7F89BF83E0D9
:102860000E948C00FF91EF91BF91AF919F918F914A
:102870007F916F915F914F913F912F910F900FBE7C
:102880000F901F9018951F920F920FB60F92112460
:102890000F900FBE0F901F9018951F920F920FB6BA
:1028A0000F9211240F900FBE0F901F9018951F923A
:1028B0000F920FB60F9211240F900FBE0F901F9022
:1028C00018951F920F920FB60F9211240F900FBE02
:1028D0000F901F9018951F920F920FB60F92112410
:1028E0002F933F934F935F936F937F938F939F9318
:1028F000AF93BF93EF93FF9380916801909169012B
:10290000019719F40E946D0B05C0809150028F5FF2
:1029100080935002FF91EF91BF91AF919F918F9162
:102920007F916F915F914F913F912F910F900FBECB
:102930000F901F9018951F920F920FB60F921124AF
:102940000F900FBE0F901F9018951F920F920FB609
:102950000F9211242F933F934F935F936F937F9325
:102960008F939F93AF93BF93EF93FF9364B175B130
:1029700078948FB7F894282F332780914B02482FF3
:10298000469541702FBF282F217080FD1CC03398C1
:102990008091C00199278130910519F0029759F073
:1029A00028C0442351F070936101609360018AE074
:1029B0000E948C001EC0442319F40E94EE0219C02C
:1029C0002093C00116C08FB7F89499278FBF8FB797
:1029D000F894482F552786B180618777282F3327B1
:1029E00026B98F7B282F332726B98068992786B987
:1029F0004FBFFF91EF91BF91AF919F918F917F91C9
:102A00006F915F914F913F912F910F900FBE0F905B
:102A10001F90189578941F920F920FB60F92112461
:102A20002F933F934F935F936F937F938F939F93D6
:102A3000AF93BF93CF93EF93FF9387B78F7E87BFFB
:102A400078948FB7F894C82F80912C0290912D0222
:102A5000A0912E02B0912F020097A105B10509F0B7
:102A600053C080911301909114018430910541F17C
:102A70008530910518F4039721F034C0079739F198
:102A800031C080B3992766E0969587956A95E1F7FE
:102A900080FF13C084E090E09093140180931301B1
:102AA0000E948105DC01CB0127E030E040E050E0EE
:102AB000BC01CD010E94350715C00E94530712C00A
:102AC0000E948A08882371F40E941F090BC081E0CC
:102AD00090E0909314018093130110921B018DE0FC
:102AE0000E948C008091190190911A01019771F454
:102AF00082E090E090931A0180931901DE98DE9AAB
:102B000080E00E94670802C00E948706CFBFFF9145
:102B1000EF91CF91BF91AF919F918F917F916F91E5
:102B20005F914F913F912F910F900FBE0F901F908B
:102B3000189578941F920F920FB60F9211240F9050
:102B40000FBE0F901F90189578941F920F920FB69A
:102B50000F9211240F900FBE0F901F90189578942C
:102B60001F920F920FB60F9211241F932F933F9332
:102B70004F935F936F937F938F939F93AF93BF9385
:102B8000CF93DF93EF93FF93CCB5DDB580E286BFA3
:102B90008FB7F894182F809113019091140185300C
:102BA000910519F0069739F157C080E00E948A0715
:102BB00082E00E94990887B78F7E87BF86E090E009
:102BC0009093140180931301E0917801F0917901C1
:102BD0008181992787709070019721F4C5A78D2F67
:102BE000992784A780B39927F4E096958795FA955D
:102BF000E1F780FD77C081E00E948A07E0917801CB
:102C0000F0917901818185FF13C087E090E0909376
:102C10001401809313010E948105DC01CB0120E89F
:102C200030E040E050E0BC01CD010E9435070BC010
:102C300081E090E0909314018093130110921B01A6
:102C40008DE00E948C0080B39927E4E096958795EB
:102C5000EA95E1F780FF46C080911201882351F583
:102C60000E948A074091BF014830A0F48091B801CA
:102C7000840F912D911D9C01887F9370281BE22F5A
:102C8000FF27EE0FFF1FEA5AFD4FC083D1834F5F2E
:102C90004093BF0181E080931201D0932602C0933C
:102CA000250280B3992774E0969587957A95E1F788
:102CB00080FD18C0809112018823A1F081E00E945C
:102CC0008A07109212018091250290912602C81B5A
:102CD000D90B2A9738F48091BF01882319F08150CD
:102CE0008093BF011FBFFF91EF91DF91CF91BF9103
:102CF000AF919F918F917F916F915F914F913F9194
:102D00002F911F910F900FBE0F901F9018957894E0
:102D10001F920F920FB60F9211242F933F938F9310
:102D20009F938FB7F894282F332780916201909159
:102D30006301019690936301809362012FBF9F917D
:102D40008F913F912F910F900FBE0F901F9018956C
:102D50001F920F920FB60F921124EF92FF920F93D2
:102D60001F932F933F934F935F936F937F938F9313
:102D70009F93AF93BF93CF93DF93EF93FF938FB165
:102D8000282F3327E0915B01F0915C01309739F0F7
:102D90008091650190916601E80FF91F2083809171
:102DA000650190916601019690936601809365019B
:102DB00080E00E94DC0720916501309166018091DE
:102DC000C2019091C3012817390718F40E94CA0A5A
:102DD00035C1E0905B01F0905C0110925C011092B3
:102DE0005B0110928301109282011092C301109234
:102DF000C20110926601109265018FB1809121028B
:102E0000909122022091210286FFD3C02F7B822F36
:102E100099278E33910509F411C1CF9709F00EC19E
:102E2000C0912501D091260118818091680190916F
:102E300069018230910521F0039709F444C0B4C0C0
:102E400083E090E09093690180936801412F5527BA
:102E50009A012F5F3F4F60915D01862F992782175E
:102E600093077CF40E947705C09AC09888E00E947E
:102E70009D0788E00E949D07C09A83E00E94990800
:102E800090C080E090E0B79B02C081E090E0892B89
:102E900069F481B1992726E0969587952A95E1F7FF
:102EA00080FD04C0611B615060935D01193220F404
:102EB000BE016F5F7F4F02C060E070E080E090E095
:102EC0000E94380BBBC0C09A83E00E949908809191
:102ED000BF01882309F11B3028F18091B801E82F48
:102EE000FF27EE0FFF1FEA5AFD4F808191818DA7CA
:102EF000892F99278CA78091B801992701969C0169
:102F0000287F3170821B930B8093B8018091BF01A1
:102F100081508093BF0106C08FEF9FEF8DA78FEF89
:102F200090E08CA7FE01E10FF11D808187FF39C081
:102F3000EF28B9F169816770E0912501F0912601D0
:102F4000623049F5A0917801B0917901208180919A
:102F5000130190911401079721F5ED019B81838165
:102F60008917F9F487B78F7E87BF81E08BA7E20FBF
:102F7000F11D8291319688A780818F7789A781E0A2
:102F800090E0909314018093130110921B018DE047
:102F90000E948C0006C0613021F482E10E948C0006
:102FA0004DC00E947F0B4AC0C09A83E00E949908DE
:102FB00045C02E3309F042C0C09A80911301909110
:102FC0001401089739F481E090E090931401809304
:102FD000130134C080918001882349F484E090E09B
:102FE00090931401809313010E941F0927C082E06F
:102FF0000E94990883E090E090931401809313015C
:103000000E94D000DC01CB018F71907001969C0171
:10301000B3E0220F331FBA95E1F7280F391F280FAD
:10302000391F7901002711270E948105DC01CB019E
:10303000A8019701BC01CD010E943507FF91EF91D6
:10304000DF91CF91BF91AF919F918F917F916F91C0
:103050005F914F913F912F911F910F91FF90EF90B2
:103060000F900FBE0F901F901895A0E3B0E0EBE318
:10307000F8E10C94271B222E332E442E552E662E5B
:10308000772E882E992E2A2D3B2DA8E0FE01319611
:10309000AA2E1192AA94E9F729823A824B825C8285
:1030A0006D827E828F829886FE013996BA2E1192A9
:1030B000BA94E9F729873A87CB86DC86ED86FE86C7
:1030C0000F87188BFE0171961192AA95E9F7C980B6
:1030D000DA80EB80FC80C9A6DAA6EBA6FCA6870105
:1030E00076018FEF9FEFA0E0B0E0E822F9220A23FB
:1030F0001B23A9A4BAA4CBA4DCA416014424552400
:1031000089859A85AB85BC858DA79EA7AFA7B8ABEF
:103110005C016D018FEF9FEFA0E0B0E0A822B92223
:10312000CA22DB228DA59EA5AFA5B8A93D018824A2
:103130009924C801B701A60195010E94081B69A343
:103140007AA38BA39CA3C801B701A40193010E9499
:10315000081B6DA37EA38FA398A7C201B101A6018E
:1031600095010E94081B7B018C01C201B101A401E1
:1031700093010E94081B9B01AC01A9A0BAA0CBA09F
:10318000DCA0C601AA27BB27ADA0BEA0CFA0D8A4B3
:10319000A80EB91ECA1EDB1EAE0CBF1CC01ED11E5F
:1031A000ADA2BEA2CFA2D8A6AE14BF04C006D1065F
:1031B00020F4205030404F4F5F4FCDA0DEA0EFA055
:1031C000F8A4C701AA27BB27820F931FA41FB51F0E
:1031D0008D8F9E8FAF8FB8A3A6013327222789A199
:1031E0009AA1ABA1BCA1A070B070280F391F4A1FD3
:1031F0005B1F298F3A8F4B8F5C8FA98CBA8CCB8C3D
:10320000DC8CED8CFE8C0F8D18A1ED8AFE8A0F8B65
:10321000188F2D853E854F85588969A57AA58BA580
:103220009CA50E94081B3B014C018D819E81AF81B2
:10323000B885BC01CD012DA53EA54FA558A90E947A
:10324000081BDC01CB01680E791E8A1E9B1E8D892E
:103250009E89AF89B88D860D971DA81DB91D8D8BD0
:103260009E8BAF8BB88F6D897E898F89988D2A2D23
:103270003B2D4C2D5D2DE2E1E0960C94431B8F928B
:103280009F92AF92BF92CF92DF92EF92FF920F93F5
:10329000CF93DF93CDB7DEB768970FB6F894DEBF54
:1032A0000FBECDBFE82E002349F4298B3A8B4B8B00
:1032B0005C8B6D8B7E8B8F8B988F6CC088E0FE0152
:1032C000319611928A95E9F729833A834B835C837F
:1032D0006D837E83EF82988740E2401B14160CF0CA
:1032E00041C08D819E81AF81B8856C017D0104C094
:1032F000CC0CDD1CEE1CFF1C4A95D2F7202F332787
:1033000027FD3095022E04C0B695A7959795879511
:103310000A94D2F78D879E87AF87B88B89819A816F
:10332000AB81BC8104C0B695A795979587952A95E2
:10333000D2F78C299D29AE29BF2989879A87AB8727
:10334000BC8729853A854B855C856D857E858F8513
:103350009889298B3A8B4B8B5C8B6D8B7E8B8F8BFB
:10336000988F18C01D861E861F86188A842F99275D
:1033700087FD909522273327281B390B8D819E814D
:10338000AF81B88504C0B695A795979587952A957E
:10339000D2F7D3CF29893A894B895C896D897E8997
:1033A0008F89988D68960FB6F894DEBF0FBECDBF9B
:1033B000DF91CF910F91FF90EF90DF90CF90BF9072
:1033C000AF909F908F900895DC0101C06D934150A4
:1033D0005040E0F708955058192EA6D001D08CC067
:1033E000BA176207730784079507B1F188F40EF4E2
:1033F00010940B2EBA2FA02D062E622F202D072EF3
:10340000732F302D082E842F402D092E952F502DEF
:10341000FF275523B9F0591B49F0573E98F04695C0
:1034200037952795A795F0405395C9F776F0BA0FD1
:10343000621F731F841F30F4879577956795B79542
:10344000F040939517FA0F2E0895BF1BBB27BA0BB8
:10345000620B730B840BF6CFDEF683C097FB70D044
:103460009F3738F0FEE9F91B982F872F762F6B2FA7
:1034700005C074C09695879577956795F150D0F7FC
:103480003EF490958095709561957F4F8F4F9F4F3B
:103490000895E89403C097FB0EF4F3DFB62F672F6F
:1034A000782F892F9EE9002427C00ED05EF004C03B
:1034B0000BD026F001C008D019F020F48FEF08954A
:1034C00080E0089581E0089597FB092E052600F815
:1034D00068942DD0E89407FC07C06217730784072F
:1034E000950721F008F400940794989408959A950C
:1034F000BB0F661F771F881F11249923A1F0882313
:10350000B2F79F3F59F0BB0F48F421F4002011F4AB
:1035100060FF04C06F5F7F4F8F4F9F4F881F97954D
:10352000879597F908951AC0052E092607FA440FC2
:10353000551F5F3F79F0AA27A51708F051E047957E
:10354000880F991F9F3F31F0BB27B91708F091E012
:10355000879508959F919F91112457C066277727DB
:10356000882799270895592F482F372F262FDCDFDA
:1035700001D0C2CF992339F0552329F09F575F57C7
:10358000950F13F4CAF1EDCF91589F3FE1F3A62FA9
:1035900000241124BB2766275527F8E0A69520F4C0
:1035A000020E131EB41F651F220F331F441F551F29
:1035B000FA95A1F7F8E0E72F7727F8E0E69520F4F1
:1035C000130EB41F651F7A1F330F441F551FAA1F08
:1035D000FA95A1F7F82F8827F69520F4B40F651F08
:1035E0007A1F8E1F440F551FAA1FEE1FFF23A1F73E
:1035F00088231AF4939539F408C0000C111CBB1FE2
:10360000661F771F881F012808959FEF80EC08959B
:10361000629FD001739FF001829FE00DF11D649FB6
:10362000E00DF11D929FF00D839FF00D749FF00D42
:10363000659FF00D9927729FB00DE11DF91F639FE3
:10364000B00DE11DF91FBD01CF01112408952F9286
:103650003F924F925F926F927F928F929F92AF9222
:10366000BF92CF92DF92EF92FF920F931F93CF936F
:10367000DF93CDB7DEB7CA1BDB0B0FB6F894DEBF06
:103680000FBECDBF09942A88398848885F846E842C
:103690007D848C849B84AA84B984C884DF80EE8076
:1036A000FD800C811B81AA81B981CE0FD11D0FB67F
:0C36B000F894DEBF0FBECDBFED01089501
:1036BC00FF0100FFFFFFFF24001A0402FFFF0101BE
:0236CC000000FC
:00000001FF
