S01A00006275696C642F686F6D656E65742F6D61696E2E7372656307
S11300000C945F000C94A3140C94AD140C94D514AC
S11300100C94DF140C94E9140C94F3140C9424152C
S11300200C9454150C947C000C947C000C9468166D
S11300300C94C3150C9452160C9440170C94211470
S11300400C9461140C9461170C94EE180C947C00BD
S11300500C9424190C945E150C947C000C947C0074
S11300600C945D160C949C190C947B190C948619B1
S11300700C9491190C94AF190C945E190C947C0097
S11300800C9470190C947C000C947C00C90D080E1F
S11300903A0E8F0ECD0EDF0EF10E5A0F610F670F61
S11300A0A80FF80FFA0FFE0F22102910421051105A
S11300B00D119311A411E71100081C181410112438
S11300C01FBECFEFD0E1DEBFCDBF11E0A0E0B1E0B5
S11300D0E6E3FAE300E00BBF02C007900D92A23101
S11300E0B107D9F712E0A2E1B1E001C01D92A43B2F
S11300F0B107E1F70C942D120C9400008FB7F8941B
S1130100992708958FBF0895982F8FB7F894282FB3
S1130110E92FFF27E158FD4F80818F3FB1F4809193
S11301209802891791F080917B028F3F19F4909384
S11301307B0207C080919802E82FFF27E158FD4F0A
S113014090839093980280E001C085E02FBF9927A7
S11301500895EF920F931F93AE2D99E0899FF001BC
S11301601124E95DFE4F40835183628373830483CA
S1130170158326833783A17080858E7F8A2B8260C6
S1130180808782E00E9484001F910F91EF90089570
S1130190CF93DF938FB7F894682F7727A091F50159
S11301A0B091F601C091F701D091F80182B706B67B
S11301B000FE04C01196C11DD11D82B7282F33271C
S11301C04427552788279A2FAB2FBC2F822B932B9C
S11301D0A42BB52B6FBFBC01CD01DF91CF91089546
S11301E0AF92BF92CF92DF92EF92FF920F931F9341
S11301F0F82E5A016B010E94C800DC01CB01EE24E9
S113020096018501AC01BD018F2D0E94A9001F91AB
S11302100F91FF90EF90DF90CF90BF90AF90089533
S1130220FC0187819927382F222786819927822BE1
S1130230932B08958FB7F894282F33278BB392E02C
S113024089278BBB2FBF0895FC01828599270895C8
S1130250DC01FB01672B19F08C918C508083CD015C
S11302600B960895882311F06E9A08956E98089558
S113027080911501882319F480E090E0089581E0CD
S113028090E008952F923F924F925F926F927F92E7
S11302908F929F92AF92BF92CF92DF92EF92FF9292
S11302A00F931F93CF93DF93CDB7DEB72A970FB683
S11302B0F894DEBF0FBECDBF8FB7F894282F332735
S11302C029873A872090D6013090D7014090D801F1
S11302D05090D90166245EE4A52E43E8B42EC62CC2
S11302E0D62CE62CF62C062D162D222D332D442D3E
S11302F0552D662D762D862D962D0E94D019298395
S11303003A834B835C836D837E838F839887822EAD
S1130310932EA42EB52EC62ED72EE82EF92E240108
S11303203501769467945794479400E2282D392D2B
S11303304A2D5B2D6C2D7D2D8E2D9F2D0E94DA1A5A
S1130340A22EB32EC42ED52EC601B501640D751D83
S1130350861D971D97FF05C09F776F5F7F4F8F4F57
S11303609F4F6093D6017093D7018093D8019093E7
S1130370D90139853FBF2A960FB6F894DEBF0FBE68
S1130380CDBFDF91CF911F910F91FF90EF90DF9040
S1130390CF90BF90AF909F908F907F906F905F9021
S11303A04F903F902F900895282F86958695869597
S11303B0E82FFF27E953FE4F277081E090E002C049
S11303C0880F991F2A95E2F720812823822F9927E5
S11303D00895FF920F931F93CF93DF93082F8FB746
S11303E0F894F82E80911D01833009F062C0809149
S11303F00A01801709F05DC08091C701882309F0C4
S11304003EC081E090E0892BE9F510911E01C12FD7
S1130410DD272196C330D10511F4C0E0D0E08C2F44
S11304200E94D401882381F4812F9927C817D90702
S113043081F78FEF90E08093ED0181E080931D01BF
S113044089E00E94840024C08C2F86958695869529
S1130450E82FFF27E953FE4F2C2F277081E090E00F
S113046002C0880F991F2A95E2F7982F90958081F2
S113047089238083C0931E018C2F9927DCCF80E0D1
S113048090E0C1CF83E080930A0110921D01379858
S1130490802F99278130910561F0823091051CF4F9
S11304A0892B21F006C0029719F003C01C9801C0E3
S11304B0DF98FFBE81E090E0DF91CF911F910F9113
S11304C0FF9008951F93CF93DF93C82F8FB7F894AD
S11304D0282F3327122F80911D01882301F18C2F9F
S11304E00E94D4018823B1F48C2F86958695869535
S11304F0E82FFF27E953FE4FC77081E090E002C068
S1130500880F991FCA95E2F72081282B208380E069
S113051090E002C085E090E01FBF992719C081E0F8
S113052080931D01C093ED012FBF8FB7F8949927D5
S1130530379A8FBF8FB7F894C82FDD2780910A01AF
S1130540833019F489E00E948400CFBF80E090E0FA
S1130550DF91CF911F910895982F8FB7F894282F8A
S11305603327422F80912101882301F1E92FFF27AE
S1130570E056FD4F80818F3FA1F4E0910C01E91713
S113058081F080910D018F3F19F490930D0104C007
S1130590FF27E056FD4F908390930C0180E090E09C
S11305A002C085E090E04FBF9927089541E0409351
S11305B021019093EC012FBF80912001882321F425
S11305C087E00E94840002C040931F0180E090E015
S11305D0089520910602822F99278130910559F0C0
S11305E0823091051CF4009731F004C0029711F495
S11305F087E001C08FE1582F822F99278130910520
S113060041F0823091051CF4892B19F004C0029743
S113061011F428E001C020E033278FB7F894E82FC5
S1130620809195028E7F80939502322F27B160E0EE
S113063070E0922F929596959695937080E0891725
S113064049F4852F8850863118F42F71521711F40C
S113065061E070E0862F880F209195022D7F282B72
S1130660852F8F71982F990F990F2378292B209319
S113067095028062992787B9406C21702295220FD8
S1130680207E4F7D422B4861383059F58091FD0121
S11306909091FE0121E08638920718F087E090E0FF
S11306A01FC0833C910518F086E090E019C08136A4
S11306B0910518F085E090E013C08033910518F09F
S11306C084E090E00DC08831910518F083E090E05B
S11306D007C00C9718F082E090E002C080E090E040
S11306E0382F3770487F432B842F992786B9EFBF63
S11306F00895AF92BF92CF92DF92EF92FF920F9341
S11307001F935B016C0161E0F62E0E94C800DC01BE
S1130710CB01EF2C96018501AC01BD018F2D0E9408
S1130720A9001F910F91FF90EF90DF90CF90BF90A1
S1130730AF90089597E087FF02C0919A01C0919805
S1130740880F909A9098915097FFF5CF0895982F1D
S11307508FB7F894282F89B78D7F89BF82E088BF2F
S113076080916A00886080936A00992321F08091C7
S11307706A00846003C080916A008B7F80936A0062
S113078089B7826089BF2FBF80E090E008952F92DF
S11307903F924F925F926F927F928F929F92AF920D
S11307A0BF92CF92DF92EF92FF920F931F937B0140
S11307B0882309F0E6C0C090CF01D090D0018FEF1C
S11307C0C8168FEFD80609F4DCC07093FA01609361
S11307D0F901CB01AA2797FDA095BA2FBC01CD0141
S11307E00E94E61B3B014C01F7FE08C020E030E00C
S11307F040E857E40E94871B3B014C01C601AA272D
S113080097FDA095BA2FBC01CD010E94E61BD7FE2F
S113081006C020E030E040E857E40E94871B2AE04D
S113082037ED43E25CE30E94521CDC01CB0120E083
S113083030E040E252E4BC01CD010E94861B1B0162
S11308402C0122EA37EE4BE356EBC401B3010E94BC
S1130850521CDC01CB01A4019301BC01CD010E9417
S1130860521C7B018C0124E533EE45E25DE3C401B7
S1130870B3010E94521CDC01CB019C01AD01C801F3
S1130880B7010E94871BDC01CB0120E030E040E887
S113089050ECBC01CD010E94871B5B016C0120E080
S11308A030E048EC51E4C201B1010E94861B7B0197
S11308B08C012CEA35EC47EA58E3C401B3010E94E9
S11308C0521CDC01CB012AE037ED43E25CE3BC01BE
S11308D0CD010E94871BDC01CB019C01AD01C80145
S11308E0B7010E94521CDC01CB01A6019501BC0199
S11308F0CD010E94871B6B017C0120E030E048ECB5
S113090052E40E94F31B181654F40F2EF0E0CF2E7D
S1130910F0E0DF2EF8ECEF2EF2E4FF2EF02D2DECBC
S11309203CEC4CEC5DE3C701B6010E94F01B88234C
S113093054F40F2EFDECCF2EFCECDF2EFCECEF2E4E
S1130940FDE3FF2EF02D8FB7F894082F1127C20175
S1130950B1010E94C91BDC01CB0190939F028093DB
S11309609E020FBF8FB7F894082F1127C701B60155
S11309700E94C91BDC01CB01909373028093720225
S11309800FBF82E00E9462021F910F91FF90EF90CF
S1130990DF90CF90BF90AF909F908F907F906F909B
S11309A05F904F903F902F90089530E0232F909ABE
S11309B080B399279695879580FD3160273009F09B
S11309C0330F90982F5F283090F3899A9198909ADA
S11309D090988998919A832F99270895899A919A42
S11309E0909A90980895CF93982F8FB7F894C82F22
S11309F0809121018330A1F580910B01891781F544
S1130A0020E030E080910D018F3F11F421E030E0CF
S1130A10232BD9F48F3F81F0282F3327F901E05697
S1130A20FD4F808180930D018F3F11F480930C0161
S1130A308FEF8083C90102C08FEF90E08093EC01B7
S1130A4081E08093210186E009C082E080930B015C
S1130A501092210181E08093200188E00E948400AB
S1130A60CFBF81E090E0CF9108951F93CF93DF93A0
S1130A70182FEB0180E00E94F304112321F4D0939A
S1130A80D001C093CF0181E00E94AC02DF91CF91ED
S1130A901F91089580E8809366011092FF011092DF
S1130AA0F40110929A0208958FB7F894682F77276B
S1130AB08091C5019091C6012CB53DB506B602FEE4
S1130AC003C001962CB53DB5AA27BB27442755275B
S1130AD0DC0199278827822B932BA42BB52B6FBF7E
S1130AE0BC01CD010895AF92BF92CF92DF92EF92F5
S1130AF0FF920F931F93CF93DF930E94C800FC01D2
S1130B00EB012091E4013091E5014091E60150911F
S1130B10E7017B018C01E21AF30A040B150B109216
S1130B20E9018091DA019091DB01A091DC01B0919F
S1130B30DD01E816F9060A071B07C0F0EE24FF24BE
S1130B408701280F391F4A1F5B1F2093E40130934C
S1130B50E5014093E6015093E701E092DA01F09257
S1130B60DB010093DC011093DD0163C05C016D01C6
S1130B70AE18BF08C00AD10A8601750161E0A61645
S1130B8061E0B60660E0C60660E0D60690F080E05C
S1130B90A81680E0B80681E0C80680E0D80610F008
S1130BA08FEF04C0BB27AD2D9C2D8B2D8093E901C5
S1130BB058C061E8A616B104C104D10430F1C0588C
S1130BC0DF4FEF4FFF4FC093E401D093E501E09373
S1130BD0E601F093E701C058D040E040F04080E8DF
S1130BE09FEFAFEFBFEFE80EF91E0A1F1B1FE09245
S1130BF0DA01F092DB010093DC011093DD01F0E8EF
S1130C00EF2EF12C012D112D14C0280F391F4A1F6E
S1130C105B1F2093E4013093E5014093E601509378
S1130C20E7011092DA011092DB011092DC011092BC
S1130C30DD016E2D82B7282F8C1B8E5F8E1518F068
S1130C40622F6E5F01C06C0F662309F461E061508E
S1130C5000B601FCFDCF61BF82E086BF87B782602A
S1130C6087BFDF91CF911F910F91FF90EF90DF909D
S1130C70CF90BF90AF9008950F931F93DC01CB01E9
S1130C806FB7F894062F11278093E4019093E50140
S1130C90A093E601B093E7012093DA013093DB01DE
S1130CA04093DC015093DD010E9473050FBF1F9137
S1130CB00F910895AF92BF92CF92DF92EF92FF927D
S1130CC00F931F93CF93DF930E945405FC01EB0114
S1130CD08091DE019091DF01A091E001B091E101EA
S1130CE0A0907402B0907502C0907602D090770202
S1130CF09C01AD012A0D3B1D4C1D5D1D79018A012E
S1130D00EC1AFD0A0E0B1F0BC817D907EA07FB07DD
S1130D1030F0281739074A075B0770F005C0281719
S1130D2039074A075B0728F4C217D307E407F50716
S1130D3018F0EE24FF24870121E0E21620E8F206F1
S1130D4020E0020720E0120730F1C050D048EF4FF6
S1130D50FF4FC093DE01D093DF01E093E001F093F5
S1130D60E101C050D048E040F04080E090E8AFEFAF
S1130D70BFEFE80EF91E0A1F1B1FE0927402F092E7
S1130D8075020093760210937702E12CB0E8FB2EF3
S1130D90012D112D14C08A0D9B1DAC1DBD1D80930A
S1130DA0DE019093DF01A093E001B093E101109282
S1130DB07402109275021092760210927702B701B3
S1130DC02CB53DB5C9018C1B9D0B03968E159F0553
S1130DD020F0B9016D5F7F4F02C06C0F7D1F61155C
S1130DE0710511F461E070E0615070407BBD6ABD33
S1130DF080E186BF87B7806187BFDF91CF911F9164
S1130E000F91FF90EF90DF90CF90BF90AF90089537
S1130E100F931F93DC01CB016FB7F894062F1127B2
S1130E208093DE019093DF01A093E001B093E10190
S1130E3020937402309375024093760250937702A4
S1130E400E945A060FBF1F910F910895EF92FF92CF
S1130E500F931F93CF938FB7F894C82F0E9442012A
S1130E60DC01CB019C01277030702F5F3F4FC1F034
S1130E70C90113E0880F991F1A95E1F7820F931F98
S1130E80820F931F7C01002711270E945405DC0167
S1130E90CB01A8019701BC01CD010E94080706C03F
S1130EA081E090E09093140180931301CFBFCF9120
S1130EB01F910F91FF90EF90089597B79F7D97BF73
S1130EC090E296BF882319F08EB5806402C08EB577
S1130ED08F7B8EBD87B7806287BF80E090E00895E6
S1130EE08FB9779BFECF8FB1992708950F931F93E6
S1130EF08B010E947007812F99270E947007802F11
S1130F000E94700799271F910F910895DF92EF9225
S1130F10FF920F931F93CF937A01C22FDD248C018C
S1130F20060F111D802F80680E9470071695079583
S1130F30802F807C0E947007CC2341F0F7018191BF
S1130F407F010E947007D82EC150F6CF8D2D9927AE
S1130F50CF911F910F91FF90EF90DF900895882318
S1130F6011F06F9A08956F9808951F9310E0812FE0
S1130F700E943201BA9ABB98B99AB89A6C9AC098EE
S1130F80812F0E94AF07709A6B986A98689881E0E5
S1130F900E9432011F9108950F931F93CF93082F3E
S1130FA08FB7F894282F3327122F809117018823A5
S1130FB021F02FBF85E090E021C090911501992385
S1130FC041F482E0809315019093030180E090E066
S1130FD002C081E090E09927C82F882311F40E9471
S1130FE0B5078C2F9927282F882329F4009306010D
S1130FF081E0809317011FBF822F9927CF911F9102
S11310000F910895CF93C82F0E943801882311F4BB
S11310100E94B50780911501882359F481E08093DB
S11310201501C093010281E10E94840080E090E0F8
S11310301EC0EC2FFF27ED59FE4F80818F3FA1F496
S1131040E0910401EC1781F0809105018F3F19F4C0
S1131050C093050104C0FF27ED59FE4FC083C09320
S1131060040180E090E002C085E090E09927992790
S1131070CF910895CF93282F8FB7F894C82F9091CC
S11310801701992369F081E090E002C0880F991F4D
S11310902A95E2F720911601282B2093160108C007
S11310A02093060181E080931701892F0E94020892
S11310B0CFBF80E090E0CF910895CF9382E00E946B
S11310C0CC079927C82F882319F082E00E943A0898
S11310D08C2F9927CF9108951F93CF93DF93982F47
S11310E08FB7F894282F3327122F80910601891780
S11310F021F02FBF81E090E071C04FEF40930601D3
S113110080911501823009F03FC090910301992329
S1131110D9F520E030E080910501841711F421E035
S113112030E0232B69F58F3F79F0282F3327F9011D
S1131130ED59FE4F8081809305018F3F11F4409358
S113114004014083C90102C08FEF90E08093010243
S113115081E08093150181E10E94840015C02093F1
S1131160060181E090E002C0880F991F4A95E2F7DA
S1131170809538233093160180E00E9402082BC02A
S113118040930301909315010E943801C82FDD2775
S1131190CC2331F48C2F0E943201C0939902C09A5F
S11311A0309116013323A9F0209106012F5F632F9C
S11311B07727243008F020E0422F5527CB01042E56
S11311C002C0959587950A94E2F780FDC8CF2F5FFA
S11311D0F0CF109217011FBF80E090E0DF91CF9114
S11311E01F910895CF93C1E0C0988091E8018823AE
S11311F011F085E001C084E00E94700783FD05C002
S113120080E00E94700783FDC0E08FB7F894CC2380
S113121019F023E030E002C025E030E030931401FF
S1131220209313018FBFC09ACC2329F082E00E943F
S11312306C080E942607CF9108958F929F92AF92D7
S1131240BF92CF92DF92EF92FF920F931F93CF93AF
S1131250DF938FB7F894C090EA01D090EB018090AF
S1131260640190906501C091CB01D091CC01AE0195
S1131270465F5F4F20910402309105022417350721
S113128008F09A018FBF59010894A108B108CA1542
S1131290DB05E8F47E01E80CF91C8E010C0D1D1D24
S11312A0C114D10419F0F801808101C080E00E94CA
S11312B070078114910411F0F701808321960F5F68
S11312C01F4F0894E11CF11CCA15DB0548F381E0AB
S11312D00E94AF078FB7F894982FC114D10431F04E
S11312E0CC0EDD1EF60180818FB901C01FB8D093EA
S11312F0CC01C093CB019FBF80E090E0DF91CF9100
S11313001F910F91FF90EF90DF90CF90BF90AF901F
S11313109F908F9008959C018FB7F89499273093EC
S1131320EB012093EA01709365016093640150938B
S11313300502409304021092CC011092CB018FBF9E
S11313408FB10E941D09992708950F931F93C09888
S113135000912501109126018FE790E090933A02C5
S113136080933902809139020E94700741E050E075
S1131370B80180E090E00E948B091F910F910895BD
S113138082E090E09093D5018093D40183E00E94A1
S1131390CC07882319F40E94A509089583E00E94CC
S11313A03A080895CF938FB7F894282F3327C22F84
S11313B08091D4019091D501892B11F42FBF26C0BF
S11313C020919A02222341F080E090E0B79B02C072
S11313D081E090E0892B49F481B1992736E0969514
S11313E087953A95E1F780FD08C0222319F0215032
S11313F020939A020E94C00908C081E090E0909373
S1131400D5018093D40110929A02CFBFCF91089551
S11314101F93CF93DF93C091E201D091E3018FA199
S11314209927182F882309F41FE1C09880917A0224
S1131430811741F0812F9927806E9068BC0185E166
S11314400E94760710937A02188111508EE390E07F
S113145090933A0280933902809139020E94700776
S1131460812F9927AC0160E070E0CE010E948B09C6
S1131470DF91CF911F910895CF93DF93DA01EA01B1
S11314808A876E83872F99278F8384E290E08C83E9
S113149060E070E06D83245F8FB7F894482F552780
S11314A080911C01833021F04FBF81E090E059C04E
S11314B085E080931C01B0939702A09396028091DB
S11314C03F028F5F80933F02FD0183834FBF2193CF
S11314D0ED0189819927807290708983892F9927DA
S11314E081839927982F882729813327822B932B4F
S11314F0816498688983892F992781838091010168
S1131500909102018887892F992789876BA768A7FB
S113151069A71DA66CA740919602509197028FB7B8
S1131520F894282F33278091130190911401019787
S113153011F02FBF14C082E090E0909314018093C7
S1131540130181E08093E8015093E3014093E201A9
S11315502FBF0E945D08882311F40E94080A80E0CE
S113156090E09927DF91CF910895BF92CF92DF92B7
S1131570EF92FF920F93CF93DF93EB01042F8E83AF
S1131580892F99278F8389E08A87E0906101F09001
S11315906201E114F10419F085E090E02AC070932F
S11315A0620160936101045F08830C50B0900001F4
S11315B08FEFB816E9F4CB010E942401C82EDD2474
S11315C0CE010E94100110920001202FAE01BC0137
S11315D08C2D0E943C0A9927282F882331F0B09241
S11315E00001F0926201E0926101822F992701C00B
S11315F0C7019927DF91CF910F91FF90EF90DF9072
S1131600CF90BF9008952F923F924F925F926F9226
S11316107F928F929F92AF92BF92CF92DF92EF927E
S1131620FF920F931F93CF93DF93CDB7DEB7289725
S11316300FB6F894DEBF0FBECDBF1B012C0188246A
S1131640AA24BB2477E2672E71E0772EF30160852C
S113165061FF6BC12081318142815381D201C1017B
S1131660821B930BA40BB50BE480F58006811781D4
S11316708E159F05A007B10708F457C160FF03C08A
S11316806D7F608709C02E0D3F1D401F511FF30160
S11316902083318342835383F2E0AF16B10409F40B
S11316A03EC083E0A816B10444F4A114B104A9F027
S11316B091E0A916B104A9F038C1E4E0AE16B10472
S11316C009F4FCC0F4E0AF16B1040CF45DC085E08D
S11316D0A816B10409F420C128C180E00E94620266
S11316E024C18FB7F894082F1127902F80910B01F4
S11316F0823099F480912101813021F486E00E94A6
S1131700840009C0823049F48091EC0180930B017C
S113171083E0809321010FBF08C19FBF06C1809160
S11317209C0290919D0285309105D1F086309105FF
S113173018F4039739F0F9C04E9709F0F6C01092E7
S11317402401F3C01092240180917C02682F772732
S11317506115710509F0E9C081E00E943505E5C015
S11317601092240180917C029927009709F4DDC02E
S1131770019709F0DAC081E00E94F30460E070E0B0
S113178081E00E94C703D1C08FB7F8949927C09015
S11317901801CC2011F08FBFC8C08FBF80B3992728
S11317A066E0969587956A95E1F7982E91E09922DF
S11317B08091F10190915E01891709F47BC099161B
S11317C009F078C084E090E090931A0180931901A5
S11317D08E010F5F1F4F809107019091080189834B
S11317E0892F9927F801818380917D0290917E024F
S11317F08B83892F99278C838FB7F894992731E0AD
S1131800D32ED09218018FBF80E10E94840060E043
S113181070E08DE10E94760724E0A8016C2D88E633
S113182091E00E948607C09AC0988FB7F894E82E7A
S1131830FF248D2D0E945D0701E010E01093140138
S113184000931301C0921201C0927A02EFBE8FB7C7
S1131850F894E82EFF240E944A051093D5010093C2
S1131860D40189B78F7B89BF80E488BF8AB780623F
S11318708ABF8AB78F7E8ABF89B7806489BFEFBE6B
S11318808FB7F894082F11278091190190911A01AC
S1131890049719F483E00E9470070FBF8FB7F89480
S11318A0082F1127C09A80E00E946C080FBF8BE0BC
S11318B00E9484009092F1018FE031C00D9B35C0ED
S11318C080910F018D8383E08E8382E08F8318865D
S11318D08FB7F894282F332781E08093CA012FBF54
S11318E060E070E087E691E00E942801FC018D81B0
S11318F09E81AF81B88580839183A283B38344E0C2
S113190067E671E08FEF9FEF0E94B50A8091530163
S11319108D7F8093530109C00D9904C084E10E9416
S1131920840003C089B7806289BF839489E090E012
S1131930680E791E0894A11CB11C95E0981508F056
S113194085CE82E00E94840028960FB6F894DEBF0C
S11319500FBECDBFDF91CF911F910F91FF90EF90FC
S1131960DF90CF90BF90AF909F908F907F906F90BB
S11319705F904F903F902F900895EF92FF920F93B6
S11319801F93209100012F3F09F420E03327C90160
S113199001962817390748F48091610190916201FA
S11319A0892B19F01092000103C08FEF809300017E
S11319B0E0910001EF3FF1F0FF27EE0FFF1FEF5919
S11319C0FE4F00811181C8010E942401E82EFF24EA
S11319D0C8010E941001BC01F80180818C50992734
S11319E0282FA8018E2D0E943C0A882319F083E138
S11319F00E9484001F910F91FF90EF9008958998A1
S1131A00919A909A80B399279695879580FF03C001
S1131A1081E090E00895909880E090E00895AF927E
S1131A20BF92CF92DF92EF920F931F935B016C01F1
S1131A300E94C800DC01CB01F1E0EF2E9601850184
S1131A40AC01BD0182E00E94A9001F910F91EF90AB
S1131A50DF90CF90BF90AF9008951F93889A90988D
S1131A608998919A89B78D7F89BF899A919A90981C
S1131A7088E0909A9098815087FFFBCF899A919A39
S1131A809098909A91989098909A919A9098809121
S1131A909C0290919D028F71907090939D0280930F
S1131AA09C0280919C020E949A030E94FF0C88234E
S1131AB029F01092240181E090E048C020919C021A
S1131AC030919D022630310561F12730310538F41B
S1131AD02330310579F02530310561F035C02730E8
S1131AE0310599F02E31310579F56BE070E080E035
S1131AF090E008C08998919A0E94A7036AEF70E069
S1131B0080E090E00E940F0D1FC00E94D504182FA2
S1131B100E94D5040E94EE041093230184E00E94E5
S1131B2084008091EE010E949A030E94FF0C882396
S1131B3021F081E08093220104C08091EE01809322
S1131B40230184E00E94840080E090E01F910895C6
S1131B50AF92BF92CF92DF92EF92FF920F931F93B7
S1131B60CF93DF93CDB7DEB76B970FB6F894DEBF94
S1131B700FBECDBF9927AA27BB27FC01469708F0C3
S1131B8030C4EA5BFF4FEE0FFF1F0590F491E02D88
S1131B9009948FB7F894282F332780910F018983F4
S1131BA081E08A8385E08B838AE08C838091D201F3
S1131BB09091D3018D839E838091CF019091D00128
S1131BC08F8398878091F9019091FA0189879A8788
S1131BD08091090290910A028B879C878091CD01A4
S1131BE09091CE018D879E872FBF60E070E080E4E6
S1131BF092E00E9428012EE0FE013196DC01322F92
S1131C0001900D923A95E1F7422F60E472E0DAC355
S1131C1040915D01442339F58FB7F894282F332779
S1131C20E090E401F090E5010091E6011091E701F4
S1131C308091DA019091DB01A091DC01B091DD018A
S1131C40E80EF91E0A1F1B1F2FBF80916E02909190
S1131C506F02A0917002B09171029C01AD01C801A4
S1131C60B7010E943C060E94C800DC01CB01BC0104
S1131C70CD0140C00E94C8007B018C018FEFA82ECB
S1131C808FEFB82E8FEFC82E8FE7D82E70E087B76E
S1131C908D7F87BFE7E2F1E065E0808581FF1CC0AE
S1131CA080819181A281B381A8019701281B390BFE
S1131CB04A0B5B0BDA01C9012481358146815781C6
S1131CC0281B390B4A0B5B0B2A153B054C055D059C
S1131CD01CF459016A0171E06150399667FFDDCF48
S1131CE0772309F47EC31A141B041C041D042CF06E
S1131CF0C801B7010E94030B74C3A0926E02B09294
S1131D006F02C0927002D092710281E080935D01F3
S1131D10A6019501C801B7010E943C0662C38091E7
S1131D202401882309F45DC3809141018D7F809350
S1131D3041010E94D5049927182F00270E94D50439
S1131D409927082B192B0E94D5040E94EE04809138
S1131D509C0290919D028330910519F0059761F0E2
S1131D6040C31092240180917C02882309F039C376
S1131D70B8010E94350535C31092240180917C027C
S1131D809927009709F42DC3019709F02AC381E02C
S1131D900E94F304B80180E08AC080919C02909173
S1131DA09D028630910531F0079709F01AC310920D
S1131DB0240117C3109224011092220112C38091AE
S1131DC01F01813031F46BE070E080E090E00E940C
S1131DD079038FB7F894992710921F01109220016C
S1131DE036C18FB7F894282F33279091EC01909344
S1131DF00B0183E0809321012FBF892F992700973E
S1131E0019F0019769F1EDC280910E01882319F44C
S1131E1084E090E015C020912401222319F085E08C
S1131E2090E00EC081E08093240183E090E09093E1
S1131E309D0280939C0220937C020E942D0D992781
S1131E40082F1127002309F4CCC280E00E94F30478
S1131E50002321F41092D0011092CF0181E0AEC092
S1131E6021E080910E01882319F484E090E014C0ED
S1131E7080912401882319F085E090E00DC020931F
S1131E80240185E090E090939D0280939C0220932E
S1131E907C020E942D0D9927082F1127002309F495
S1131EA0A0C281E00E94F30460E070E0802F0E94F1
S1131EB0C70397C26BE070E080E090E00E94790372
S1131EC090C2889890988998919885E088C18FB736
S1131ED0F894282F33279091ED0190930A0183E021
S1131EE080931D012FBF892F99278130910571F0AF
S1131EF0823091051CF4892B21F008C0029721F04F
S1131F0005C0149A1C9A02C0D79ADF9A80910A01DC
S1131F1099278130910579F0823091051CF4892B41
S1131F2021F05FC2029759F05CC281E08093000205
S1131F30109206020AC081E08093000204C081E08E
S1131F408093000282E0809306020E94E90249C263
S1131F501092000280910602E0909501F0909601A3
S1131F60082F11270130110569F00230110524F4FE
S1131F700115110529F00BC00230110529F007C025
S1131F8080E003C081E001C082E00E94E9010130E9
S1131F901105B9F0023011051CF4012B29F021C2FE
S1131FA002301105C1F01DC2A6E0F694E794AA958B
S1131FB0E1F7F092D301E092D20180E00E94AC02FA
S1131FC010C2F6E0F694E794FA95E1F7F0920A026B
S1131FD0E092090206C2E6E0F694E794EA95E1F796
S1131FE0F092CE01E092CD0181E00E946202F9C13B
S1131FF083E001C081E080931C01F3C18FB7F894A2
S113200099278FBF83E080931C0120919602309121
S1132010970280910001082F1127F801E00FF11FAA
S1132020EF59FE4F808191818217930709F0D9C13E
S1132030108211820E94BD0C012B09F0D2C10E94B2
S11320401A01CFC18FB7F89499271092D1018FBF8D
S1132050C8C18FB7F894C82EDD2480911801882355
S113206079F40E94C800DC01CB0171E0E72E01E0A5
S113207010E020E030E0AC01BD0183E00E94A90043
S1132080CFBEAFC18FB7F894282F332780911801A2
S1132090882329F080914A018D7F80934A012FBFC4
S11320A0A0C18FB7F894282F332790910102909301
S11320B0030182E0809315012FBF992309F091C198
S11320C08FB7F8949927209106018FBF33272130C9
S11320D0310509F453C0223031051CF4232B51F08F
S11320E080C12230310509F47DC02330310509F463
S11320F091C077C1C0988FB7F894E82EFF248091DF
S1132100190190911A010297B9F583E090E0909338
S11321101A018093190168E170E08DE10E9476074D
S113212011E010935E011092180180B3992766E0C4
S1132130969587956A95E1F781238093F1018FE065
S11321400E948400812F0E9470076FE772E08CE187
S11321500E9476079091090185E0989FC00111249F
S1132160825D9E4F9064BC0188E10E94760762EF15
S11321707AE281E10E947607EFBE33C18FB7F8940B
S1132180282F33274091090180910701909108017C
S11321908C8B892F99278D8B80917D0290917E0263
S11321A08E8B892F99278F8B2FBFC09885E0489FEE
S11321B0C0011124825D9E4F9064BC0188E10E949D
S11321C0760724E0AE014C5E5F4F60E088E691E064
S11321D00E948607C09A81E00E946C088EE00E94EB
S11321E08400FFC08FB7F8949927209113018FBF03
S11321F033272230310521F02430310521F006C087
S11322000E94080AEEC00E94F208EBC082E00E941D
S11322106C08E7C00E94A509E4C0A0912501B09113
S113222026018C919D01280F311DF9018081881FA1
S11322308827881FFD0182A7F90182919F012F5FE2
S11322403F4FFD0180A7F90180818F77FD0181A7B0
S113225000912501109126018BE0E82EF12CE00E6F
S1132260F11EC8010E9410019C018091010190910E
S113227002012817390721F02F5F3F4F09F04CC0A6
S1132280C8010E942401893009F046C0F801838501
S1132290282F332780910F019091100128173907B7
S11322A0D9F5F7018181813071F59281953021F45E
S11322B080E00E94840027C0973029F58FB7F894F6
S11322C0282F332780910F018F8781E0888B998B8A
S11322D08A8B8091CA018B8B2FBF60E070E087E905
S11322E091E00E94280125E0FE013F96DC01322F97
S11322F001900D923A95E1F7422F67E971E08FEF73
S11323009FEF0E94B50A8FB7F894282F33278BB319
S113231091E089278BBB2FBF1093260100932501E1
S11323200E94D2095EC0809100019927FC01E80F48
S1132330F91FEF59FE4F10821182892B11F40E946C
S11323401A010E94BD0C4DC08091070290910802B1
S11323505C01CC24DD240E94C800DC01CB0111E027
S1132360E12E96018501AC01BD0185E00E94A90022
S11323708091EF019091F001AA27BB27AC01BD0128
S113238084E00E94F00080910F01888F83E0898FA0
S1132390EA8E1B8E8FB7F89499271092CA018FBFCB
S11323A060E070E087E691E00E942801FC01888DDE
S11323B0998DAA8DBB8D80839183A283B38344E0DE
S11323C067E671E08FEF9FEF0E94B50A0AC0809123
S11323D05C018D7F80935C01809153018D7F80939C
S11323E053016B960FB6F894DEBF0FBECDBFDF91DD
S11323F0CF911F910F91FF90EF90DF90CF90BF90FE
S1132400AF90089580917B028F3FD1F090917B0231
S113241080917B02E82FFF27E158FD4F8081809354
S11324207B0280917B028F3F11F480939802892F65
S11324309927FC01E158FD4F2FEF20839C0102C036
S11324402FEF30E02F3F19F480E090E00895822FC1
S11324500E94A80D81E090E00895CFEFD0E1DEBFA7
S1132460CDBF8FB7F894F82E46E150E06FEF70E0DF
S11324708FE792E00E947F1B8FEF80937B02809313
S1132480980281E08EBD88E080BF83E083BF2CB5D5
S11324903DB54AE78CB59DB58217930708F44150C2
S11324A09C014423B9F792B782B78917E9F32CB595
S11324B03DB592B782B78917E9F38CB59DB5821BF8
S11324C0930B409645E0969587954A95E1F790934E
S11324D0FE018093FD0113BE83B78EBD8EB580BF10
S11324E012BE1DBC1CBC8FEF86BF86B780937C00D8
S11324F080B7282F33272770307021153105C1F795
S1132500D29AD19AD09ADA9AD99AD89A25BB8FEFCF
S113251084BB309389002093880080917D0084607F
S113252080937D0080918A00887F826080938A00F6
S11325303DBD2CBD87B7846087BF8EB5887F84601E
S11325408EBD16B880B7886080BF80E285BF0E94C8
S11325500212C82FDD27CC23D1F712E006E08091C8
S1132560FD019091FE01AA27BB273CE0880F991F2B
S1132570AA1FBB1F3A95D1F7BC01CD0120E031EE73
S113258040E050E00E94A31CDA01C901019789B917
S1132590292F3327209390001BB900939500CAB9C3
S11325A0809399002093980010939B0000939D00C2
S11325B0C0939A0084E490E09093F3018093F20135
S11325C080910F01909110010196AA27BB27809357
S11325D0D6019093D701A093D801B093D9018FEF7E
S11325E08093630180911C01882319F481E0809316
S11325F01C01B89AD69AD59A809101019091020152
S113260090937E0280937D028E98B89A8C988BE08A
S113261092E090932601809325011092C7018FEFD9
S11326209FEF9093A1028093A00200B602FCFDCF1D
S113263012BE87B7816087BF83B7887F836000B687
S113264000FCFDCF83BF0E940212C82FDD27CC23DC
S1132650D1F7FFBE78948FB7F894282F33278FEFE4
S11326609FEF90939F0280939E02909373028093B6
S113267072029093D3018093D20190930A028093C3
S113268009029093D0018093CF019093FA01809333
S1132690F9019093CE018093CD012FBF80916A0000
S11326A0886080936A0080916A008B7F80936A00BF
S11326B084EF91E09093F0018093EF0180E197E241
S11326C0909308028093070280E288BF0D9B05C0A7
S11326D089B7806289BF81E004C084E10E948400DC
S11326E08C2F8093CA0148EE53E060E070E080E0F4
S11326F00E94F00080911C01813049F582E08093B2
S11327001C010E944201DC01CB0180933F028FB780
S1132710F894282F33278091190190911A01892B5D
S113272011F02FBF14C081E090E090931A018093C0
S113273019012FBFDD9A0E945405DC01CB0124E16D
S113274030E040E050E0BC01CD010E9408078FB7A3
S1132750F894482F4AC087B79927887B892B41F47E
S113276080917D00282F33272B7F2115310519F007
S113277020E030E02AC06F9928C08AB1807C29F516
S113278080919A00807C09F5379B03C021E030E0FA
S11327901CC087B7992783709070892BA1F080B7EC
S11327A0992787709070892BD1F781B792B7891BCD
S11327B08C3018F082B7853F18F022E030E005C075
S11327C023E030E002C025E030E0E5E02E1708F415
S11327D0E22F85B7837EFF27E854FF4F9491892B1E
S11327E0806285BF78948895F89480917B028F3FAE
S11327F0C9F090917B0280917B02E82FFF27E1587A
S1132800FD4F808180937B0280917B028F3F11F486
S113281080939802892F9927FC01E158FD4F2FEFEF
S1132820208302C08FEF90E08F3F09F494CF4FBF15
S11328300E94A80D8CCF83B783BF00B600FCFDCFE8
S113284008951F920F920FB60F9211242F933F9366
S11328504F935F936F937F938F939F93AF93BF93A4
S1132860CF93EF93FF930E941B1487B78D7F87BF8D
S113287078948FB7F894C82F8091DA019091DB0196
S1132880A091DC01B091DD010097A105B10521F40F
S113289081E00E94840002C00E947305CFBFFF91B3
S11328A0EF91CF91BF91AF919F918F917F916F9154
S11328B05F914F913F912F910F900FBE0F901F90FA
S11328C018951F920F920FB60F9211242F933F93D6
S11328D04F935F936F937F938F939F93AF93BF9324
S11328E0EF93FF930E941B148091F5019091F601E0
S11328F0A091F701B091F8010196A11DB11D80933B
S1132900F5019093F601A093F701B093F80180913B
S1132910E901882339F081508093E901882311F477
S11329200E947305FF91EF91BF91AF919F918F9199
S11329307F916F915F914F913F912F910F900FBEB7
S11329400F901F9018951F920F920FB60F9211249B
S11329500F900FBE0F901F9018951F920F920FB6F5
S11329600F9211242F933F934F935F936F937F9311
S11329708F939F93AF93BF93EF93FF9389B78D7F0B
S113298089BF83E00E948400FF91EF91BF91AF91D2
S11329909F918F917F916F915F914F913F912F9173
S11329A00F900FBE0F901F9018951F920F920FB6A5
S11329B00F9211240F900FBE0F901F9018951F9225
S11329C00F920FB60F9211240F900FBE0F901F900D
S11329D018951F920F920FB60F9211240F900FBEED
S11329E00F901F9018951F920F920FB60F921124FB
S11329F02F933F934F935F936F937F938F939F9303
S1132A00AF93BF93EF93FF9389B78F7D89BF80E224
S1132A1088BF0D9B05C089B7806289BF85E101C06D
S1132A2084E10E948400FF91EF91BF91AF919F9147
S1132A308F917F916F915F914F913F912F910F9063
S1132A400FBE0F901F9018951F920F920FB60F9202
S1132A5011242F933F934F935F936F937F938F939F
S1132A609F93AF93BF93EF93FF938091D401909181
S1132A70D501019719F40E94C00905C080919A02FA
S1132A808F5F80939A02FF91EF91BF91AF919F91D5
S1132A908F917F916F915F914F913F912F910F9003
S1132AA00FBE0F901F9018951F920F920FB60F92A2
S1132AB011240F900FBE0F901F9018951F920F9224
S1132AC00FB60F9211242F933F934F935F936F93FD
S1132AD07F938F939F93AF93BF93EF93FF9364B1CF
S1132AE075B178948FB7F894282F33278091950285
S1132AF0482F469541702FBF282F217080FD1CC0A0
S1132B0033988091000299278130910519F002973A
S1132B1059F028C0442351F07093960160939501B5
S1132B208AE00E9484001EC0442319F40E94E90232
S1132B3019C02093000216C08FB7F89499278FBF4D
S1132B408FB7F894482F552786B180618777282F4F
S1132B50332726B98F7B282F332726B980689927F6
S1132B6086B94FBFFF91EF91BF91AF919F918F9124
S1132B707F916F915F914F913F912F910F900FBE75
S1132B800F901F90189578941F920F920FB60F9282
S1132B9011242F933F934F935F936F937F938F935E
S1132BA09F93AF93BF93CF93EF93FF9387B78F7E9A
S1132BB087BF78948FB7F894C82F8091740290914E
S1132BC07502A0917602B09177020097A105B10534
S1132BD009F053C080911301909114018430910540
S1132BE041F18530910518F4039721F034C007971B
S1132BF039F131C080B3992756E0969587955A9557
S1132C00E1F780FF13C084E090E090931401809377
S1132C1013010E945405DC01CB0127E030E040E0C1
S1132C2050E0BC01CD010E94080715C00E94260790
S1132C3012C00E945D08882371F40E94F2080BC040
S1132C4081E090E0909314018093130110921B0192
S1132C508DE00E9484008091190190911A010197DE
S1132C6071F482E090E090931A0180931901DE9848
S1132C70DE9A80E00E943A0802C00E945A06CFBF42
S1132C80FF91EF91CF91BF91AF919F918F917F91E0
S1132C906F915F914F913F912F910F900FBE0F90C5
S1132CA01F90189578941F920F920FB60F921124CB
S1132CB00F900FBE0F901F90189578941F920F924B
S1132CC00FB60F9211240F900FBE0F901F901895FE
S1132CD078941F920F920FB60F9211241F932F9383
S1132CE03F934F935F936F937F938F939F93AF9390
S1132CF0BF93CF93DF93EF93FF93CCB5DDB580E221
S1132D0086BF8FB7F894182F809113019091140106
S1132D108530910519F0069739F157C080E00E947B
S1132D205D0782E00E946C0887B78F7E87BF86E0CC
S1132D3090E09093140180931301E091E201F091EB
S1132D40E3018181992787709070019721F4C5A7C9
S1132D508D2F992784A780B39927E4E096958795CA
S1132D60EA95E1F780FD77C081E00E945D07E0917C
S1132D70E201F091E301818185FF13C087E090E0D7
S1132D8090931401809313010E945405DC01CB013C
S1132D9020E830E040E050E0BC01CD010E9408078B
S1132DA00BC081E090E09093140180931301109282
S1132DB01B018DE00E94840080B3992774E09695EE
S1132DC087957A95E1F780FF46C0809112018823A8
S1132DD051F50E945D074091FF014830A0F48091B5
S1132DE0F401840F912D911D9C01887F9370281B01
S1132DF0E22FFF27EE0FFF1FEE55FD4FC083D18357
S1132E004F5F4093FF0181E080931201D0933C0215
S1132E10C0933B0280B3992764E0969587956A95A1
S1132E20E1F780FD18C0809112018823A1F081E0B0
S1132E300E945D071092120180913B0290913C0226
S1132E40C81BD90B2A9738F48091FF01882319F005
S1132E5081508093FF011FBFFF91EF91DF91CF91CC
S1132E60BF91AF919F918F917F916F915F914F919E
S1132E703F912F911F910F900FBE0F901F901895A7
S1132E8078941F920F920FB60F9211242F933F93B1
S1132E908F939F938FB7F894282F33278091C50180
S1132EA09091C60101969093C6018093C5012FBFEE
S1132EB09F918F913F912F910F900FBE0F901F9074
S1132EC018951F920F920FB60F921124EF92FF9252
S1132ED00F931F932F933F934F935F936F937F931E
S1132EE08F939F93AF93BF93CF93DF93EF93FF930E
S1132EF08FB1282F3327E0916401F0916501309759
S1132F0039F08091CB019091CC01E80FF91F208317
S1132F108091CB019091CC0101969093CC01809348
S1132F20CB0180E00E94AF072091CB013091CC010E
S1132F3080910402909105022817390718F40E9421
S1132F401D0935C1E0906401F0906501109265019E
S1132F50109264011092EB011092EA0110920502A2
S1132F60109204021092CC011092CB018FB1809187
S1132F70390290913A022091390286FFD3C02F7B07
S1132F80822F99278E33910509F411C1CF9709F047
S1132F900EC1C0912501D091260118818091D401E0
S1132FA09091D5018230910521F0039709F444C032
S1132FB0B4C083E090E09093D5018093D401412F75
S1132FC055279A012F5F3F4F60916601862F9927FD
S1132FD0821793077CF40E944A05C09AC09888E03F
S1132FE00E94700788E00E947007C09A83E00E94E4
S1132FF06C0890C080E090E0B79B02C081E090E054
S1133000892B69F481B1992726E0969587952A95AD
S1133010E1F780FD04C0611B6150609366011932C1
S113302020F4BE016F5F7F4F02C060E070E080E07B
S113303090E00E948B09BBC0C09A83E00E946C0898
S11330408091FF01882309F11B3028F18091F4015C
S1133050E82FFF27EE0FFF1FEE55FD4F8081918172
S11330608DA7892F99278CA78091F4019927019620
S11330709C01287F3170821B930B8093F401809113
S1133080FF0181508093FF0106C08FEF9FEF8DA752
S11330908FEF90E08CA7FE01E10FF11D808187FF87
S11330A039C0EF28B9F169816770E0912501F09189
S11330B02601623049F5A091E201B091E30120813B
S11330C08091130190911401079721F5ED019B81E3
S11330D083818917F9F487B78F7E87BF81E08BA737
S11330E0E20FF11D8291319688A780818F7789A79D
S11330F081E090E0909314018093130110921B01DE
S11331008DE00E94840006C0613021F482E10E94B7
S113311084004DC00E94D2094AC0C09A83E00E9434
S11331206C0845C02E3309F042C0C09A8091130147
S113313090911401089739F481E090E09093140180
S11331408093130134C08091E801882349F484E01A
S113315090E090931401809313010E94F20827C019
S113316082E00E946C0883E090E0909314018093C5
S113317013010E944201DC01CB018F719070019612
S11331809C01B3E0220F331FBA95E1F7280F391FD2
S1133190280F391F7901002711270E945405DC01EB
S11331A0CB01A8019701BC01CD010E940807FF9142
S11331B0EF91DF91CF91BF91AF919F918F917F91CB
S11331C06F915F914F913F912F911F910F91FF90BC
S11331D0EF900F900FBE0F901F9018951F920F92B3
S11331E00FB60F9211242F933F938F939F93EF93D6
S11331F0FF935F9B1EC02CB1E0913D02F0913E0213
S11332003097B9F08091FB019091FC01E80FF91F10
S1133210208301969093FC018093FB01209102028C
S1133220309103028217930720F010923E0210920D
S11332303D02FF91EF919F918F913F912F910F90BC
S11332400FBE0F901F90189578941F920F920FB68F
S11332500F9211242F933F938F939F93EF93FF9398
S113326020915F0130916001809178029091790200
S113327028173907A0F4E091B202F091B302E20FEB
S1133280F31F2F5F3F4F3093600120935F01208134
S11332908FB7F89499272CB95E9A8FBF04C0109207
S11332A0B3021092B202FF91EF919F918F913F91DF
S11332B02F910F900FBE0F901F9018951F920F9291
S11332C00FB60F9211248F9380919B0087FF02C049
S11332D080919C008F910F900FBE0F901F901895B6
S11332E078941F920F920FB60F9211240F900FBE75
S11332F00F901F90189578941F920F920FB60F920B
S113330011240F900FBE0F901F90189578941F9260
S11333100F920FB60F9211240F900FBE0F901F90B3
S1133320189578941F920F920FB60F9211240F9054
S11333300FBE0F901F90189578941F920F920FB69E
S11333400F9211248F939F9380918800909189000C
S11333509F918F910F900FBE0F901F9018957894A6
S11333601F920F920FB60F9211242F933F938F93B6
S11333709F938FB7F894282F33278091C801909199
S1133380C90101969093C9018093C8012FBF9F91F1
S11333908F913F912F910F900FBE0F901F90189512
S11333A0A0E3B0E0E6EDF9E10C94E41C222E332E08
S11333B0442E552E662E772E882E992E2A2D3B2D9F
S11333C0A8E0FE013196AA2E1192AA94E9F7298267
S11333D03A824B825C826D827E828F829886FE0165
S11333E03996BA2E1192BA94E9F729873A87CB868F
S11333F0DC86ED86FE860F87188BFE01719611928E
S1133400AA95E9F7C980DA80EB80FC80C9A6DAA620
S1133410EBA6FCA6870176018FEF9FEFA0E0B0E05A
S1133420E822F9220A231B23A9A4BAA4CBA4DCA46E
S113343016014424552489859A85AB85BC858DA7BE
S11334409EA7AFA7B8AB5C016D018FEF9FEFA0E023
S1133450B0E0A822B922CA22DB228DA59EA5AFA581
S1133460B8A93D0188249924C801B701A601950192
S11334700E94C51C69A37AA38BA39CA3C801B701AE
S1133480A40193010E94C51C6DA37EA38FA398A7DA
S1133490C201B101A60195010E94C51C7B018C01EA
S11334A0C201B101A40193010E94C51C9B01AC019E
S11334B0A9A0BAA0CBA0DCA0C601AA27BB27ADA0B7
S11334C0BEA0CFA0D8A4A80EB91ECA1EDB1EAE0C87
S11334D0BF1CC01ED11EADA2BEA2CFA2D8A6AE14E0
S11334E0BF04C006D10620F4205030404F4F5F4F38
S11334F0CDA0DEA0EFA0F8A4C701AA27BB27820FA6
S1133500931FA41FB51F8D8F9E8FAF8FB8A3A601E5
S11335103327222789A19AA1ABA1BCA1A070B070C6
S1133520280F391F4A1F5B1F298F3A8F4B8F5C8FDF
S1133530A98CBA8CCB8CDC8CED8CFE8C0F8D18A1F5
S1133540ED8AFE8A0F8B188F2D853E854F8558890D
S113355069A57AA58BA59CA50E94C51C3B014C01BD
S11335608D819E81AF81B885BC01CD012DA53EA57D
S11335704FA558A90E94C51CDC01CB01680E791E19
S11335808A1E9B1E8D899E89AF89B88D860D971DD5
S1133590A81DB91D8D8B9E8BAF8BB88F6D897E89CD
S11335A08F89988D2A2D3B2D4C2D5D2DE2E1E096DF
S11335B00C94001D8F929F92AF92BF92CF92DF9294
S11335C0EF92FF920F93CF93DF93CDB7DEB7689757
S11335D00FB6F894DEBF0FBECDBFE82E002349F42A
S11335E0298B3A8B4B8B5C8B6D8B7E8B8F8B988F5F
S11335F06CC088E0FE01319611928A95E9F729831F
S11336003A834B835C836D837E83EF82988740E2A9
S1133610401B14160CF041C08D819E81AF81B8858A
S11336206C017D0104C0CC0CDD1CEE1CFF1C4A9512
S1133630D2F7202F332727FD3095022E04C0B695EC
S1133640A795979587950A94D2F78D879E87AF871C
S1133650B88B89819A81AB81BC8104C0B695A7954A
S1133660979587952A95D2F78C299D29AE29BF294C
S113367089879A87AB87BC8729853A854B855C8582
S11336806D857E858F859889298B3A8B4B8B5C8BD6
S11336906D8B7E8B8F8B988F18C01D861E861F8620
S11336A0188A842F992787FD909522273327281B72
S11336B0390B8D819E81AF81B88504C0B695A795DD
S11336C0979587952A95D2F7D3CF29893A894B893B
S11336D05C896D897E898F89988D68960FB6F89478
S11336E0DEBF0FBECDBFDF91CF910F91FF90EF9062
S11336F0DF90CF90BF90AF909F908F900895DC01A2
S113370001C06D9341505040E0F708955058192E70
S1133710A6D001D08CC0BA17620773078407950737
S1133720B1F188F40EF410940B2EBA2FA02D062EAE
S1133730622F202D072E732F302D082E842F402D1D
S1133740092E952F502DFF275523B9F0591B49F009
S1133750573E98F0469537952795A795F040539591
S1133760C9F776F0BA0F621F731F841F30F4879570
S113377077956795B795F040939517FA0F2E0895AE
S1133780BF1BBB27BA0B620B730B840BF6CFDEF6A1
S113379083C097FB70D09F3738F0FEE9F91B982F50
S11337A0872F762F6B2F05C074C0969587957795D4
S11337B06795F150D0F73EF490958095709561959A
S11337C07F4F8F4F9F4F0895E89403C097FB0EF4EB
S11337D0F3DFB62F672F782F892F9EE9002427C0A7
S11337E00ED05EF004C00BD026F001C008D019F052
S11337F020F48FEF089580E0089581E0089597FB09
S1133800092E052600F868942DD0E89407FC07C01B
S1133810621773078407950721F008F4009407944E
S1133820989408959A95BB0F661F771F881F1124DB
S11338309923A1F08823B2F79F3F59F0BB0F48F4B6
S113384021F4002011F460FF04C06F5F7F4F8F4F9D
S11338509F4F881F9795879597F908951AC0052E4D
S1133860092607FA440F551F5F3F79F0AA27A517C9
S113387008F051E04795880F991F9F3F31F0BB270F
S1133880B91708F091E0879508959F919F911124AD
S113389057C066277727882799270895592F482FD7
S11338A0372F262FDCDF01D0C2CF992339F05523DF
S11338B029F09F575F57950F13F4CAF1EDCF915834
S11338C09F3FE1F3A62F00241124BB276627552729
S11338D0F8E0A69520F4020E131EB41F651F220FF4
S11338E0331F441F551FFA95A1F7F8E0E72F7727F8
S11338F0F8E0E69520F4130EB41F651F7A1F330F0A
S1133900441F551FAA1FFA95A1F7F82F8827F6958B
S113391020F4B40F651F7A1F8E1F440F551FAA1F72
S1133920EE1FFF23A1F788231AF4939539F408C0F6
S1133930000C111CBB1F661F771F881F01280895E8
S11339409FEF80EC0895A1E21A2EAA1BBB1BFD0178
S11339500DC0AA1FBB1FEE1FFF1FA217B307E4076A
S1133960F50720F0A21BB30BE40BF50B661F771FC2
S1133970881F991F1A9469F76095709580959095A2
S11339809B01AC01BD01CF010895629FD001739FDB
S1133990F001829FE00DF11D649FE00DF11D929FE7
S11339A0F00D839FF00D749FF00D659FF00D992726
S11339B0729FB00DE11DF91F639FB00DE11DF91F4A
S11339C0BD01CF01112408952F923F924F925F922F
S11339D06F927F928F929F92AF92BF92CF92DF921B
S11339E0EF92FF920F931F93CF93DF93CDB7DEB780
S11339F0CA1BDB0B0FB6F894DEBF0FBECDBF099414
S1133A002A88398848885F846E847D848C849B846A
S1133A10AA84B984C884DF80EE80FD800C811B8178
S1133A20AA81B981CE0FD11D0FB6F894DEBF0FBEA7
S1093A30CDBFED01089575
S1133A36FF0100FFFFFFFF24001A0302FFFF01013D
S1053A4600007A
S9030000FC
