S01A00006275696C642F686F6D656E65742F6D61696E2E7372656307
S11300000C945D000C9491130C949B130C94C313E7
S11300100C94CD130C94D7130C94E1130C94EB13A0
S11300200C941B140C947A000C947A000C942F15E5
S11300300C948A140C9419150C9407160C940F1331
S11300400C944F130C9428160C947A000C947A0098
S11300500C947A000C9425140C947A000C947A0075
S11300600C9424150C947A000C947A000C947A0065
S11300700C947A000C947A000C947A000C947A0014
S11300800C947A000C947A000C947A001C0D8C0D5C
S1130090BE0D130E510E630E750EDE0EE50EEB0E45
S11300A02C0F7C0F7E0F820FA60FAD0FC60FD50F3E
S11300B09110251100081C18141011241FBECFEF35
S11300C0D0E1DEBFCDBF11E0A0E0B1E0ECEBF5E3A1
S11300D000E00BBF02C007900D92A231B107D9F71F
S11300E012E0A2E1B1E001C01D92AA33B107E1F729
S11300F00C9471110C9400008FB7F894992708950B
S11301008FBF08958FB7F894282F33278BB392E0CD
S113011089278BBB2FBF0895982F8FB7F894282F6A
S1130120E92FFF27E95FFD4F80818F3FB1F4809174
S11301301E02891791F0809103028F3F19F4909366
S1130140030207C080911E02E82FFF27E95FFD4FDD
S1130150908390931E0280E001C085E02FBF992711
S11301600895FC0180818C5099270895FC018781B2
S11301709927382F222786819927822B932B08953C
S1130180EF920F931F93AE2D99E0899FF0011124F4
S1130190E95DFE4F40835183628373830483158337
S11301A026833783A17080858E7F8A2B8260808727
S11301B082E00E948C001F910F91EF900895CF93DD
S11301C0DF938FB7F894682F7727A0918A01B091B5
S11301D08B01C0918C01D0918D0182B706B600FECF
S11301E004C01196C11DD11D82B7282F332744277F
S11301F0552788279A2FAB2FBC2F822B932BA42B08
S1130200B52B6FBFBC01CD01DF91CF910895882339
S113021011F06E9A08956E980895809115018823BF
S113022019F480E090E0089581E090E008952F9221
S11302303F924F925F926F927F928F929F92AF9272
S1130240BF92CF92DF92EF92FF920F931F93CF93BF
S1130250DF93CDB7DEB72A970FB6F894DEBF0FBE93
S1130260CDBF8FB7F894282F332729873A8720905A
S11302706F013090700140907101509072016624BA
S1130280AEE4AA2EF3E8BF2EC62CD62CE62CF62C10
S1130290062D162D222D332D442D552D662D762D0C
S11302A0862D962D0E94B51729833A834B835C8350
S11302B06D837E838F839887822E932EA42EB52EF2
S11302C024013501769467945794479400E20E9480
S11302D0BF18A22EB32EC42ED52EC601B501640DAF
S11302E0751D861D971D97FF05C09F776F5F7F4F14
S11302F08F4F9F4F60936F017093700180937101D2
S11303009093720139853FBF2A960FB6F894DEBFE9
S11303100FBECDBFDF91CF911F910F91FF90EF9052
S1130320DF90CF90BF90AF909F908F907F906F9011
S11303305F904F903F902F900895282F8695869533
S11303408695E82FFF27ED59FE4F277081E090E056
S113035002C0880F991F2A95E2F720812823822F53
S113036099270895FF920F931F93CF93DF93082F3C
S11303708FB7F894F82E80911D01833009F062C084
S113038080910A01801709F05DC080916301882380
S113039009F03EC081E090E0892BE9F510911E013F
S11303A0C12FDD272196C330D10511F4C0E0D0E080
S11303B08C2F0E949D01882381F4812F9927C817CF
S11303C0D90781F78FEF90E08093860181E08093D5
S11303D01D0189E00E948C0024C08C2F869586958F
S11303E08695E82FFF27ED59FE4F2C2F277081E0CB
S11303F090E002C0880F991F2A95E2F7982F9095F4
S1130400808189238083C0931E018C2F9927DCCFA0
S113041080E090E0C1CF83E080930A0110921D0137
S11304203798802F99278130910561F082309105AA
S11304301CF4892B21F006C0029719F003C01C9804
S113044001C0DF98FFBE81E090E0DF91CF911F9162
S11304500F91FF9008951F93CF93DF93C82F8FB709
S1130460F894282F3327122F80911D01882301F13E
S11304708C2F0E949D018823B1F48C2F869586953C
S11304808695E82FFF27ED59FE4FC77081E090E075
S113049002C0880F991FCA95E2F72081282B208378
S11304A080E090E002C085E090E01FBF992719C06A
S11304B081E080931D01C09386012FBF8FB7F8940C
S11304C09927379A8FBF8FB7F894C82FDD2780916B
S11304D00A01833019F489E00E948C00CFBF80E0C8
S11304E090E0DF91CF911F910895982F8FB7F894E2
S11304F0282F3327422F80912101882301F1E92FEE
S1130500FF27EC5DFD4F80818F3FA1F4E0910C014A
S1130510E91781F080910D018F3F19F490930D013B
S113052004C0FF27EC5DFD4F908390930C0180E0A5
S113053090E002C085E090E04FBF9927089541E024
S113054040932101909385012FBF8091200188233E
S113055021F487E00E948C0002C040931F0180E0D8
S113056090E008952091C501822F9927813091054B
S113057059F0823091051CF4009731F004C00297C1
S113058011F487E001C08FE1582F822F9927813021
S1130590910541F0823091051CF4892B19F004C0B7
S11305A0029711F428E001C020E033278FB7F894B4
S11305B0E82F80911B028E7F80931B02322F27B17C
S11305C060E070E0922F929596959695937080E0F6
S11305D0891749F4852F8850863118F42F715217E2
S11305E011F461E070E0862F880F20911B022D7FAB
S11305F0282B852F8F71982F990F990F2378292BEA
S113060020931B028062992787B9406C2170229540
S1130610220F207E4F7D422B4861383059F580915E
S11306208E0190918F0121E08638920718F087E0BF
S113063090E01FC0833C910518F086E090E019C05B
S11306408136910518F085E090E013C08033910560
S113065018F084E090E00DC08831910518F083E033
S113066090E007C00C9718F082E090E002C080E0B0
S113067090E0382F3770487F432B842F992786B911
S1130680EFBF0895AF92BF92CF92DF92EF92FF92A5
S11306900F931F935B016C01B1E0FB2E0E94DF00FE
S11306A0DC01CB01EF2C96018501AC01BD018F2D3E
S11306B00E94C0001F910F91FF90EF90DF90CF90A8
S11306C0BF90AF90089597E087FF02C0919A01C050
S11306D09198880F909A9098915097FFF5CF08952C
S11306E0982F8FB7F894282F89B78D7F89BF82E020
S11306F088BF80916A00886080936A00992321F002
S113070080916A00846003C080916A008B7F80932B
S11307106A0089B7826089BF2FBF80E090E00895A6
S11307202F923F924F925F926F927F928F929F92FD
S1130730AF92BF92CF92DF92EF92FF920F931F93EB
S11307407B01882309F0E6C0C0906101D09062016A
S11307508FEFC8168FEFD80609F4DCC07093390206
S113076060933802CB01AA2797FDA095BA2FBC014C
S1130770CD010E94CB193B014C01F7FE08C020E0DB
S113078030E040E857E40E946C193B014C01C6017B
S1130790AA2797FDA095BA2FBC01CD010E94CB19C1
S11307A0D7FE06C020E030E040E857E40E946C1910
S11307B02AE037ED43E25CE30E94371ADC01CB0107
S11307C020E030E040E252E4BC01CD010E946B190C
S11307D01B012C0122EA37EE4BE356EBC401B301B3
S11307E00E94371ADC01CB01A4019301BC01CD01A5
S11307F00E94371A7B018C0124E533EE45E25DE368
S1130800C401B3010E94371ADC01CB019C01AD0184
S1130810C801B7010E946C19DC01CB0120E030E073
S113082040E850ECBC01CD010E946C195B016C01E5
S113083020E030E048EC51E4C201B1010E946B19A0
S11308407B018C012CEA35EC47EA58E3C401B3017F
S11308500E94371ADC01CB012AE037ED43E25CE366
S1130860BC01CD010E946C19DC01CB019C01AD01DE
S1130870C801B7010E94371ADC01CB01A60195011A
S1130880BC01CD010E946C196B017C0120E030E0B9
S113089048EC52E40E94D819181654F40F2EF0E0D4
S11308A0CF2EF0E0DF2EF8ECEF2EF2E4FF2EF02D49
S11308B02DEC3CEC4CEC5DE3C701B6010E94D5196C
S11308C0882354F40F2EFDECCF2EFCECDF2EFCEC31
S11308D0EF2EFDE3FF2EF02D8FB7F894082F11278C
S11308E0C201B1010E94AE19DC01CB0190936C01ED
S11308F080936B010FBF8FB7F894082F1127C7019E
S1130900B6010E94AE19DC01CB019093C201809321
S1130910C1010FBF82E00E942B021F910F91FF9033
S1130920EF90DF90CF90BF90AF909F908F907F908B
S11309306F905F904F903F902F90089530E0232F59
S1130940909A80B399279695879580FD31602730DA
S113095009F0330F90982F5F283090F3899A91987B
S1130960909A90988998919A832F99270895899AB3
S1130970919A909A90980895CF93982F8FB7F8945E
S1130980C82F809121018330A1F580910B01891733
S113099081F520E030E080910D018F3F11F421E0DA
S11309A030E0232BD9F48F3F81F0282F3327F9012E
S11309B0EC5DFD4F808180930D018F3F11F4809396
S11309C00C018FEF8083C90102C08FEF90E0809308
S11309D0850181E08093210186E009C082E0809353
S11309E00B011092210181E08093200188E00E9494
S11309F08C00CFBF81E090E0CF9108951F93CF93F7
S1130A00DF93182FEB0180E00E94BC04112321F432
S1130A10D0936201C093610181E00E947502DF916D
S1130A20CF911F91089580E880935B011092BE01DD
S1130A3010928901109220020895A89AA998AA9A5E
S1130A4080E090E00895A898A99AAA9A80E090E09E
S1130A5008958FB7F894682F772780915F0190915C
S1130A6060012CB53DB506B602FE03C001962CB557
S1130A703DB5AA27BB2744275527DC01992788279A
S1130A80822B932BA42BB52B6FBFBC01CD010895F2
S1130A90AF92BF92CF92DF92EF92FF920F931F9388
S1130AA0CF93DF930E94DF00FC01EB0120917D01D5
S1130AB030917E0140917F01509180017B018C0136
S1130AC0E21AF30A040B150B109282018091730150
S1130AD090917401A0917501B0917601E816F90620
S1130AE00A071B07C0F0EE24FF248701280F391FD3
S1130AF04A1F5B1F20937D0130937E0140937F0149
S1130B0050938001E0927301F09274010093750197
S1130B101093760163C05C016D01AE18BF08C00A72
S1130B20D10A8601750161E0A61661E0B60660E0AF
S1130B30C60660E0D60690F080E0A81680E0B8060D
S1130B4081E0C80680E0D80610F08FEF04C0BB2710
S1130B50AD2D9C2D8B2D8093820158C061E8A61683
S1130B60B104C104D10430F1C058DF4FEF4FFF4F3F
S1130B70C0937D01D0937E01E0937F01F0938001C7
S1130B80C058D040E040F04080E89FEFAFEFBFEFA7
S1130B90E80EF91E0A1F1B1FE0927301F092740104
S1130BA00093750110937601E0E8EE2EF12C012DEF
S1130BB0112D14C0280F391F4A1F5B1F20937D017C
S1130BC030937E0140937F01509380011092730112
S1130BD01092740110927501109276016E2D82B7F5
S1130BE0282F8C1B8E5F8E1518F0622F6E5F01C04C
S1130BF06C0F662309F461E0615000B601FCFDCF7F
S1130C0061BF82E086BF87B7826087BFDF91CF91E3
S1130C101F910F91FF90EF90DF90CF90BF90AF9016
S1130C2008950F931F93DC01CB016FB7F894062F3F
S1130C30112780937D0190937E01A0937F01B0934F
S1130C408001209373013093740140937501509394
S1130C5076010E9448050FBF1F910F910895AF922E
S1130C60BF92CF92DF92EF92FF920F931F93CF9395
S1130C70DF930E942905FC01EB018091770190919B
S1130C807801A0917901B0917A01A090FE01B09011
S1130C90FF01C0900002D09001029C01AD012A0D19
S1130CA03B1D4C1D5D1D79018A01EC1AFD0A0E0BDA
S1130CB01F0BC817D907EA07FB0730F028173907B5
S1130CC04A075B0770F005C0281739074A075B0716
S1130CD028F4C217D307E407F50718F0EE24FF241D
S1130CE0870121E0E21620E8F20620E0020720E076
S1130CF0120730F1C050D048EF4FFF4FC093770137
S1130D00D0937801E0937901F0937A01C050D048F0
S1130D10E040F04080E090E8AFEFBFEFE80EF91E4E
S1130D200A1F1B1FE092FE01F092FF0100930002D4
S1130D3010930102E12CA0E8FA2E012D112D14C00C
S1130D408A0D9B1DAC1DBD1D809377019093780186
S1130D50A0937901B0937A011092FE011092FF01E1
S1130D601092000210920102B7012CB53DB5C901E1
S1130D708C1B9D0B03968E159F0520F0B9016D5FAA
S1130D807F4F02C06C0F7D1F6115710511F461E086
S1130D9070E0615070407BBD6ABD80E186BF87B75B
S1130DA0806187BFDF91CF911F910F91FF90EF90EA
S1130DB0DF90CF90BF90AF9008950F931F93DC0105
S1130DC0CB016FB7F894062F112780937701909386
S1130DD07801A0937901B0937A012093FE013093B6
S1130DE0FF0140930002509301020E942F060FBF9F
S1130DF01F910F910895EF92FF920F931F93CF933A
S1130E008FB7F894C82F0E941701DC01CB019C0115
S1130E10277030702F5F3F4FC1F0C901B3E0880FD6
S1130E20991FBA95E1F7820F931F820F931F7C01DC
S1130E30002711270E942905DC01CB01A801970195
S1130E40BC01CD010E94DD0606C081E090E09093D4
S1130E50140180931301CFBFCF911F910F91FF9085
S1130E60EF90089597B79F7D97BF90E296BF882330
S1130E7019F08EB5806402C08EB58F7B8EBD87B7A6
S1130E80806287BF80E090E008958FB9779BFECFA2
S1130E908FB1992708950F931F938B010E944507E3
S1130EA0812F99270E944507802F0E944507992783
S1130EB01F910F910895DF92EF92FF920F931F936A
S1130EC0CF937A01C22FDD248C01060F111D802FD0
S1130ED080680E94450716950795802F807C0E94A4
S1130EE04507CC2341F0F70181917F010E9445071A
S1130EF0D82EC150F6CF8D2D9927CF911F910F91E8
S1130F00FF90EF90DF900895882311F06F9A089571
S1130F106F9808951F9310E0812F0E940701BA9AD9
S1130F20BB98B99AB89A6C9AC098812F0E9484078A
S1130F30709A6B986A98689881E00E9407011F91E3
S1130F4008950F931F93CF93082F8FB7F894282FEA
S1130F503327122F80911701882321F02FBF85E0BA
S1130F6090E021C090911501992341F482E080938F
S1130F7015019093030180E090E002C081E090E0CD
S1130F809927C82F882311F40E948A078C2F992748
S1130F90282F882329F40093060181E08093170108
S1130FA01FBF822F9927CF911F910F910895CF933F
S1130FB0C82F0E940D01882311F40E948A07809192
S1130FC01501882359F481E080931501C093C00171
S1130FD081E10E948C0080E090E01EC0EC2FFF278E
S1130FE0E85AFE4F80818F3FA1F4E0910401EC1791
S1130FF081F0809105018F3F19F4C093050104C06D
S1131000FF27E85AFE4FC083C093040180E090E0BC
S113101002C085E090E099279927CF910895CF9356
S1131020282F8FB7F894C82F90911701992369F04E
S113103081E090E002C0880F991F2A95E2F7209181
S11310401601282B2093160108C02093060181E085
S113105080931701892F0E94D707CFBF80E090E0CB
S1131060CF910895CF9382E00E94A1079927C82FBA
S1131070882319F082E00E940F088C2F9927CF91C2
S113108008951F93CF93DF93982F8FB7F894282F49
S11310903327122F80910601891721F02FBF81E099
S11310A090E071C04FEF40930601809115018230AA
S11310B009F03FC0909103019923D9F520E030E075
S11310C080910501841711F421E030E0232B69F5A8
S11310D08F3F79F0282F3327F901E85AFE4F80819A
S11310E0809305018F3F11F4409304014083C901AB
S11310F002C08FEF90E08093C00181E080931501DE
S113110081E10E948C0015C02093060181E090E0EB
S113111002C0880F991F4A95E2F7809538233093CF
S1131120160180E00E94D7072BC0409303019093DF
S113113015010E940D01C82FDD27CC2331F48C2F1B
S11311400E940701C0931F02C09A309116013323F5
S1131150A9F0209106012F5F632F7727243008F030
S113116020E0422F5527CB01042E02C09595879588
S11311700A94E2F780FDC8CF2F5FF0CF10921701D9
S11311801FBF80E090E0DF91CF911F910895CF932E
S1131190C1E0C09880918101882311F085E001C0ED
S11311A084E00E94450783FD05C080E00E94450756
S11311B083FDC0E08FB7F894CC2319F023E030E02E
S11311C002C025E030E030931401209313018FBF57
S11311D0C09ACC2329F082E00E9441080E94FB06B9
S11311E0CF9108952F923F924F925F926F927F9288
S11311F08F929F92AF92BF92CF92DF92EF92FF9223
S11312000F931F93CF93DF93CDB7DEB724970FB619
S1131210F894DEBF0FBECDBF1B012C016624AA24A7
S1131220BB2467E2862E61E0962EF401608561FF9F
S113123033C12081318142815381D201C101821B9A
S1131240930BA40BB50BE480F580068117818E15F2
S11312509F05A007B10708F41FC160FF03C06D7F9D
S1131260608709C02E0D3F1D401F511FF4012083CC
S1131270318342835383F2E0AF16B104C9F183E0B2
S1131280A816B10444F4A114B10481F091E0A916A4
S1131290B10481F001C1E3E0AE16B10409F45DC00C
S11312A0F4E0AF16B10409F4F4C0F6C080E00E9483
S11312B02B02F2C08FB7F894082F1127902F80913A
S11312C00B01823099F480912101813021F486E070
S11312D00E948C0009C0823049F48091850180937A
S11312E00B0183E0809321010FBFD6C09FBFD4C000
S11312F0809122029091230285309105D1F08630AD
S1131300910518F4039739F0C7C04E9709F0C4C08B
S113131010922401C1C01092240180910402682F0C
S113132077276115710509F0B7C081E00E94FE04BA
S1131330B3C010922401809104029927009709F404
S1131340ABC0019709F0A8C081E00E94BC0460E032
S113135070E081E00E9490039FC08FB7F8949927B2
S1131360C0901801CC2011F08FBF96C08FBF80B3FE
S1131370992756E0969587955A95E1F7782E81E05E
S113138078228091880190915501891709F47BC0D6
S1131390791609F078C084E090E090931A01809364
S11313A019018E010F5F1F4F809107019091080171
S11313B08983892F9927F80181838091050290916F
S11313C006028B83892F99278C838FB7F8949927EA
S11313D021E0D22ED09218018FBF80E10E948C00B0
S11313E060E070E08DE10E944B0724E0A8016C2DC1
S11313F088E691E00E945B07C09AC0988FB7F89482
S1131400E82EFF248D2D0E94320701E010E0109396
S1131410140100931301C0921201C0920202EFBEA4
S11314208FB7F894E82EFF240E94130510936A01E5
S11314300093690189B78F7B89BF80E488BF8AB72D
S113144080628ABF8AB78F7E8ABF89B7806489BF6A
S1131450EFBE8FB7F894082F11278091190190914E
S11314601A01049719F483E00E9445070FBF8FB750
S1131470F894082F1127C09A80E00E9441080FBFFA
S11314808BE00E948C00709288018FE00E948C0097
S113149003C0A898A998AA98639489E090E0880E5C
S11314A0991E0894A11CB11C94E0961508F0BDCEB9
S11314B082E00E948C0024960FB6F894DEBF0FBE23
S11314C0CDBFDF91CF911F910F91FF90EF90DF90EF
S11314D0CF90BF90AF909F908F907F906F905F90D0
S11314E04F903F902F9008958F929F92AF92BF920A
S11314F0CF92DF92EF92FF920F931F93CF93DF93DC
S11315008FB7F894C0908301D090840180905901E2
S113151090905A01C0916601D0916701AE01465F77
S11315205F4F2091C3013091C4012417350708F09F
S11315309A018FBF59010894A108B108CA15DB05A7
S1131540E8F47E01E80CF91C8E010C0D1D1DC1147C
S1131550D10419F0F801808101C080E00E944507A0
S11315608114910411F0F701808321960F5F1F4FBE
S11315700894E11CF11CCA15DB0548F381E00E94C4
S113158084078FB7F894982FC114D10431F0CC0E8E
S1131590DD1EF60180818FB901C01FB8D0936701A9
S11315A0C09366019FBF80E090E0DF91CF911F91CF
S11315B00F91FF90EF90DF90CF90BF90AF909F90EE
S11315C08F9008959C018FB7F894992730938401E4
S11315D02093830170935A01609359015093C4017D
S11315E04093C30110926701109266018FBF8FB1BF
S11315F00E94740A992708950F931F93C09800912D
S11316002501109126018FE790E09093F6018093D5
S1131610F5018091F5010E94450741E050E0B801D1
S113162080E090E00E94E20A1F910F91089582E009
S113163090E090936A018093690183E00E94A1077E
S1131640882319F40E94FC0A089583E00E940F087D
S11316500895CF938FB7F894282F3327C22F809102
S1131660690190916A01892B11F42FBF26C0209142
S11316702002222341F080E090E0B79B02C081E089
S113168090E0892B49F481B1992776E09695879566
S11316907A95E1F780FD08C0222319F021502093A8
S11316A020020E94170B08C081E090E090936A0129
S11316B08093690110922002CFBFCF9108951F93A8
S11316C0CF93DF93C0917B01D0917C018FA19927A7
S11316D0182F882309F41FE1C09880910202811712
S11316E041F0812F9927806E9068BC0185E10E94AA
S11316F04B0710930202188111508EE390E09093EF
S1131700F6018093F5018091F5010E944507812F30
S11317109927AC0160E070E0CE010E94E20ADF91FB
S1131720CF911F910895CF93DF93DA01EA018A875D
S11317306E83872F99278F8384E290E08C8360E007
S113174070E06D83245F8FB7F894482F55278091FC
S11317501C01833021F04FBF81E090E059C085E047
S113176080931C01B0931D02A0931C028091F90187
S11317708F5F8093F901FD0183834FBF2193ED01B6
S113178089819927807290708983892F9927818311
S11317909927982F882729813327822B932B8164BB
S11317A098688983892F9927818380910101909179
S11317B002018887892F992789876BA768A769A75A
S11317C01DA66CA740911C0250911D028FB7F8947E
S11317D0282F33278091130190911401019711F060
S11317E02FBF14C082E090E0909314018093130102
S11317F081E08093810150937C0140937B012FBF52
S11318000E943208882311F40E945F0B80E090E06C
S11318109927DF91CF910895CF92DF92EF92FF92B3
S11318200F931F93209100012F3F09F420E03327E9
S1131830C90101962817390748F4809156019091FF
S11318405701892B19F01092000103C08FEF809388
S11318500001E0910001EF3FF1F0FF27EE0FFF1FC1
S1131860EA5AFE4F00811181F8018285C82EDD24D9
S1131870C8010E94B6007C01C8010E94B1009927EA
S1131880282FA801B7018C2D0E94930B882319F0EF
S113189083E10E948C001F910F91FF90EF90DF90E5
S11318A0CF9008958998919A909A80B399279695A4
S11318B0879580FF03C081E090E00895909880E0D0
S11318C090E00895AF92BF92CF92DF92EF920F9380
S11318D01F935B016C010E94DF00DC01CB0151E02E
S11318E0E52E96018501AC01BD0182E00E94C00095
S11318F01F910F91EF90DF90CF90BF90AF9008951C
S11319001F93889A90988998919A89B78D7F89BFF7
S1131910899A919A909888E0909A9098815087FF3C
S1131920FBCF899A919A9098909A91989098909ACE
S1131930919A909880912202909123028F719070D5
S11319409093230280932202809122020E946303D7
S11319500E94520C882329F01092240181E090E027
S113196048C020912202309123022630310561F1D2
S11319702730310538F42330310579F0253031052D
S113198061F035C02730310599F02E31310579F5F4
S11319906BE070E080E090E008C08998919A0E9422
S11319A070036AEF70E080E090E00E94620C1FC058
S11319B00E949E04182F0E949E040E94B704109354
S11319C0230184E00E948C00809187010E946303BC
S11319D00E94520C882321F081E08093220104C0EC
S11319E0809187018093230184E00E948C0080E031
S11319F090E01F910895AF92BF92CF92DF92EF9241
S1131A00FF920F931F93CF93DF93CDB7DEB7629707
S1131A100FB6F894DEBF0FBECDBF9927AA27BB2708
S1131A20FC01449708F021C4EA5BFF4FEE0FFF1F4F
S1131A300590F491E02D09948FB7F894282F33275B
S1131A4080911001898381E08A8385E08B838AE019
S1131A508C8380916D0190916E018D839E83809122
S1131A606101909162018F839887809138029091EF
S1131A70390289879A8780912602909127028B8761
S1131A809C8780916401909165018D879E872FBF0B
S1131A900BE911E02EE0B22EFE013196D8012B2D78
S1131AA001900D922A95E1F70B5010408FEF9FEFB4
S1131AB0809396018FEF90E08093970199E0C92E6F
S1131AC0C0929A01E0905601F0905701E114F1049C
S1131AD009F0CBC310935701009356018AE1809318
S1131AE09001D09000013FEFD31609F0BEC3C801A6
S1131AF00E94B600109200012B2DA801BC018C2D70
S1131B000E94930B882309F4B0C3D0920001F09291
S1131B105701E0925601A9C340915401442339F579
S1131B208FB7F894282F3327E0907D01F0907E0141
S1131B3000917F0110918001809173019091740153
S1131B40A0917501B0917601E80EF91E0A1F1B1FC2
S1131B502FBF8091FA019091FB01A091FC01B091FB
S1131B60FD019C01AD01C801B7010E9411060E944C
S1131B70DF00DC01CB01BC01CD0140C00E94DF00CD
S1131B807B018C018FEFA82E8FEFB82E8FEFC82E1C
S1131B908FE7D82E70E087B78D7F87BFE7E2F1E04B
S1131BA064E0808581FF1CC080819181A281B38122
S1131BB0A8019701281B390B4A0B5B0BDA01C901F9
S1131BC02481358146815781281B390B4A0B5B0BD5
S1131BD02A153B054C055D051CF459016A0171E0A9
S1131BE06150399667FFDDCF772309F43EC31A1499
S1131BF01B041C041D042CF0C801B7010E94F20848
S1131C0034C3A092FA01B092FB01C092FC01D092BD
S1131C10FD0181E080935401A6019501C801B7013B
S1131C200E94110622C380912401882309F41DC354
S1131C30809141018D7F809341010E949E049927E8
S1131C40182F00270E949E049927082B192B0E9405
S1131C509E040E94B7048091220290912302833053
S1131C60910519F0059761F000C310922401809149
S1131C700402882309F0F9C2B8010E94FE04F5C2E7
S1131C8010922401809104029927009709F4EDC26F
S1131C90019709F0EAC281E00E94BC04B80180E027
S1131CA08AC080912202909123028630910531F0FE
S1131CB0079709F0DAC210922401D7C210922401C6
S1131CC010922201D2C280911F01813031F46BE065
S1131CD070E080E090E00E9442038FB7F894992767
S1131CE010921F011092200136C18FB7F894282F4B
S1131CF033279091850190930B0183E08093210118
S1131D002FBF892F9927009719F0019769F1ADC268
S1131D1080910E01882319F484E090E015C020918D
S1131D202401222319F085E090E00EC081E0809325
S1131D30240183E090E09093230280932202209375
S1131D4004020E94800C9927082F1127002309F40C
S1131D508CC280E00E94BC04002321F41092620132
S1131D601092610181E0AEC021E080910E018823D0
S1131D7019F484E090E014C080912401882319F0C0
S1131D8085E090E00DC02093240185E090E09093DD
S1131D90230280932202209304020E94800C99273C
S1131DA0082F1127002309F460C281E00E94BC04BB
S1131DB060E070E0802F0E94900357C26BE070E0F7
S1131DC080E090E00E94420350C2889890988998DD
S1131DD0919885E088C18FB7F894282F3327909184
S1131DE0860190930A0183E080931D012FBF892F00
S1131DF099278130910571F0823091051CF4892B6B
S1131E0021F008C0029721F005C0149A1C9A02C060
S1131E10D79ADF9A80910A0199278130910579F048
S1131E20823091051CF4892B21F01FC2029759F0CE
S1131E301CC281E08093BF011092C5010AC081E0F9
S1131E408093BF0104C081E08093BF0182E080934E
S1131E50C5010E94B20209C21092BF018091C5015E
S1131E60E0905D01F0905E01082F1127013011050B
S1131E7069F00230110524F40115110529F00BC095
S1131E800230110529F007C080E003C081E001C0E1
S1131E9082E00E94B20101301105B9F0023011054F
S1131EA01CF4012B29F0E1C102301105C1F0DDC1A0
S1131EB016E0F694E7941A95E1F7F0926E01E09239
S1131EC06D0180E00E947502D0C1B6E0F694E794FB
S1131ED0BA95E1F7F0922702E0922602C6C1A6E085
S1131EE0F694E794AA95E1F7F0926501E092640113
S1131EF081E00E942B02B9C183E001C081E080939C
S1131F001C01B3C18FB7F89499278FBF83E08093E6
S1131F101C0120911C0230911D0280910001082FA8
S1131F201127F801E00FF11FEA5AFE4F80819181D9
S1131F308217930709F099C1108211820E940C0C38
S1131F40012B09F092C10E9482008FC18FB7F894CF
S1131F509927109268018FBF88C18FB7F894C82E53
S1131F60DD2480911801882379F40E94DF00DC01CC
S1131F70CB01F1E0EF2E01E010E020E030E0AC0115
S1131F80BD0183E00E94C000CFBE6FC18FB7F8943B
S1131F90282F332780911801882329F080914A0142
S1131FA08D7F80934A012FBF60C18FB7F894282F8B
S1131FB033279091C0019093030182E0809315012F
S1131FC02FBF992309F051C18FB7F8949927209115
S1131FD006018FBF33272130310509F453C0223065
S1131FE031051CF4232B51F040C12230310509F492
S1131FF07DC02330310509F491C037C1C0988FB733
S1132000F894E82EFF248091190190911A01029707
S1132010B9F583E090E090931A018093190168E187
S113202070E08DE10E944B0711E01093550110926E
S1132030180180B39927E6E096958795EA95E1F72C
S11320408123809388018FE00E948C00812F0E945D
S113205045076FE772E08CE10E944B0790910901FC
S113206085E0989FC0011124825D9E4F9064BC015D
S113207088E10E944B0762EF7AE281E10E944B07FC
S1132080EFBEF3C08FB7F894282F3327409109018E
S113209080910701909108018F87892F9927888B58
S11320A08091050290910602898B892F99278A8B4A
S11320B02FBFC09885E0489FC0011124825D9E4FC8
S11320C09064BC0188E10E944B0724E0AE01415FAB
S11320D05F4F60E088E691E00E945B07C09A81E070
S11320E00E9441088EE00E948C00BFC08FB7F89414
S11320F09927209113018FBF33272230310521F016
S11321002430310521F006C00E945F0BAEC00E944E
S1132110C708ABC082E00E944108A7C00E94FC0A25
S1132120A4C0A0912501B09126018C919D01280F96
S1132130311DF9018081881F8827881FFD0182A72E
S1132140F90182919F012F5F3F4FFD0180A7F901A3
S113215080818F77FD0181A7C0902501D090260151
S11321608601055F1F4FC6010E94B6009C01809145
S11321700101909102012817390721F02F5F3F4F89
S113218009F05CC0F6018285893009F057C0F384F8
S1132190F1E0FF1609F049C0F801818199278230E6
S11321A0910581F0039709F040C082818330E9F5FD
S11321B080910F01813019F00E9423051BC00E94F9
S11321C01D0531C0F80182818731B9F480910F0176
S11321D0813059F10E941D050E94DF00DC01CB0112
S11321E0EF2C08E213E220E030E0AC01BD0184E012
S11321F00E94C000F0920F0118C08831B1F48091A0
S11322000F01882391F00E9423050E94DF00DC0166
S1132210CB01EF2C08E213E220E030E0AC01BD0179
S113222084E00E94C00010920F018FB7F894282F09
S113223033278BB391E089278BBB2FBFD092260124
S1132240C09225010E94290B10C08091000199279A
S1132250FC01E80FF91FEA5AFE4F10821182892B04
S113226011F40E9482000E940C0C62960FB6F8943E
S1132270DEBF0FBECDBFDF91CF911F910F91FF90B5
S1132280EF90DF90CF90BF90AF90089580910302BC
S11322908F3FD1F09091030280910302E82FFF2732
S11322A0E95FFD4F808180930302809103028F3F99
S11322B011F480931E02892F9927FC01E95FFD4FD9
S11322C02FEF20839C0102C02FEF30E02F3F19F441
S11322D080E090E00895822F0E94FB0C81E090E062
S11322E00895CFEFD0E1DEBFCDBF8FB7F894182F9C
S11322F044E150E06FEF70E087E092E00E946419DF
S11323008FEF8093030280931E0281E08EBD88E0EC
S113231080BF83E083BF2CB53DB54AE78CB59DB53E
S11323208217930708F441509C014423B9F792B7EC
S113233082B78917E9F32CB53DB592B782B78917EF
S1132340E9F38CB59DB5821B930B409635E09695C9
S113235087953A95E1F790938F0180938E0113BE90
S113236083B78EBD8EB580BF12BE1DBC1CBC8FEF63
S113237086BF86B780937C0080B7282F33272770C9
S1132380307021153105C1F7D29AD19AD09ADA9AD0
S1132390D99AD89A25BB8FEF84BB3DBD2CBD87B796
S11323A0846087BF8EB5887F84608EBD16B880B781
S11323B0886080BF80E285BF0E9446118823E1F7D0
S11323C080911001909111010196AA27BB27809357
S11323D06F0190937001A0937101B09372018FEF1C
S11323E08093580180911C01882319F481E0809323
S11323F01C01B89AD69AD59A809101019091020154
S113240090930602809305028E98B89A8C9886EC75
S113241091E09093260180932501109263018FEF40
S11324209FEF909325028093240200B602FCFDCF17
S113243012BE87B7816087BF83B7887F836000B689
S113244000FCFDCF83BF0E944611C82FDD27CC239B
S1132450D1F71FBF78948FB7F894282F33278FEFC5
S11324609FEF90936C0180936B019093C2018093D2
S1132470C10190936E0180936D0190932702809324
S113248026029093620180936101909339028093B4
S1132490380290936501809364012FBFA09AA19A9A
S11324A0A29AAA98A49AA49AA69AAE98C093F40160
S11324B0C0935C010E94DF00DC01CB01EC2E08EE2E
S11324C013E020E030E0AC01BD018C2F0E94C0007D
S11324D080911C01813049F582E080931C010E94A7
S11324E01701DC01CB018093F9018FB7F894282FF1
S11324F033278091190190911A01892B11F02FBF74
S113250014C081E090E090931A01809319012FBFC9
S1132510DD9A0E942905DC01CB0124E130E040E092
S113252050E0BC01CD010E94DD068FB7F894482F1E
S11325304AC087B79927887B892B41F480917D0015
S1132540282F33272B7F2115310519F020E030E0A7
S11325502AC06F9928C08AB1807C29F580919A009D
S1132560807C09F5379B03C021E030E01CC087B7AD
S1132570992783709070892BA1F080B79927877071
S11325809070892BD1F781B792B7891B8C3018F0E2
S113259082B7853F18F022E030E005C023E030E048
S11325A002C025E030E0E5E02E1708F4E22F85B7FD
S11325B0837EFF27EC54FF4F9491892B806285BF63
S11325C078948895F894809103028F3FC9F0909194
S11325D0030280910302E82FFF27E95FFD4F80810A
S11325E080930302809103028F3F11F480931E02B3
S11325F0892F9927FC01E95FFD4F2FEF208302C04B
S11326008FEF90E08F3F09F494CF4FBF0E94FB0CF3
S11326108CCF83B783BF00B600FCFDCF08951F9213
S11326200F920FB60F9211242F933F934F935F9302
S11326306F937F938F939F93AF93BF93CF93EF93B6
S1132640FF930E94091387B78D7F87BF78948FB754
S1132650F894C82F8091730190917401A091750131
S1132660B09176010097A105B10521F481E00E94A3
S11326708C0002C00E944805CFBFFF91EF91CF911B
S1132680BF91AF919F918F917F916F915F914F9186
S11326903F912F910F900FBE0F901F9018951F928E
S11326A00F920FB60F9211242F933F934F935F9382
S11326B06F937F938F939F93AF93BF93EF93FF9306
S11326C00E94091380918A0190918B01A0918C0141
S11326D0B0918D010196A11DB11D80938A01909343
S11326E08B01A0938C01B0938D018091820188238A
S11326F039F0815080938201882311F40E944805A7
S1132700FF91EF91BF91AF919F918F917F916F91C5
S11327105F914F913F912F910F900FBE0F901F909B
S113272018951F920F920FB60F9211240F900FBE9F
S11327300F901F9018951F920F920FB60F921124AD
S11327402F933F934F935F936F937F938F939F93B5
S1132750AF93BF93EF93FF9389B78D7F89BF83E0D6
S11327600E948C00FF91EF91BF91AF919F918F9147
S11327707F916F915F914F913F912F910F900FBE79
S11327800F901F9018951F920F920FB60F9211245D
S11327900F900FBE0F901F9018951F920F920FB6B7
S11327A00F9211240F900FBE0F901F9018951F9237
S11327B00F920FB60F9211240F900FBE0F901F901F
S11327C018951F920F920FB60F9211240F900FBEFF
S11327D00F901F9018951F920F920FB60F9211240D
S11327E02F933F934F935F936F937F938F939F9315
S11327F0AF93BF93EF93FF938091690190916A0126
S1132800019719F40E94170B05C0809120028F5F75
S113281080932002FF91EF91BF91AF919F918F918F
S11328207F916F915F914F913F912F910F900FBEC8
S11328300F901F9018951F920F920FB60F921124AC
S11328400F900FBE0F901F9018951F920F920FB606
S11328500F9211242F933F934F935F936F937F9322
S11328608F939F93AF93BF93EF93FF9364B175B12D
S113287078948FB7F894282F332780911B02482F20
S1132880469541702FBF282F217080FD1CC03398BE
S11328908091BF0199278130910519F0029759F071
S11328A028C0442351F070935E0160935D018AE077
S11328B00E948C001EC0442319F40E94B20219C065
S11328C02093BF0116C08FB7F89499278FBF8FB795
S11328D0F894482F552786B180618777282F3327AE
S11328E026B98F7B282F332726B98068992786B984
S11328F04FBFFF91EF91BF91AF919F918F917F91C6
S11329006F915F914F913F912F910F900FBE0F9058
S11329101F90189578941F920F920FB60F9211245E
S11329202F933F934F935F936F937F938F939F93D3
S1132930AF93BF93CF93EF93FF9387B78F7E87BFF8
S113294078948FB7F894C82F8091FE019091FF017D
S1132950A0910002B09101020097A105B10509F010
S113296053C080911301909114018430910541F179
S11329708530910518F4039721F034C0079739F195
S113298031C080B3992746E0969587954A95E1F73B
S113299080FF13C084E090E09093140180931301AE
S11329A00E942905DC01CB0127E030E040E050E043
S11329B0BC01CD010E94DD0615C00E94FB0612C0B9
S11329C00E943208882371F40E94C7080BC081E07A
S11329D090E0909314018093130110921B018DE0F9
S11329E00E948C008091190190911A01019771F451
S11329F082E090E090931A0180931901DE98DE9AA8
S1132A0080E00E940F0802C00E942F06CFBFFF91F2
S1132A10EF91CF91BF91AF919F918F917F916F91E2
S1132A205F914F913F912F910F900FBE0F901F9088
S1132A30189578941F920F920FB60F9211240F904D
S1132A400FBE0F901F90189578941F920F920FB697
S1132A500F9211240F900FBE0F901F901895789429
S1132A601F920F920FB60F9211241F932F933F932F
S1132A704F935F936F937F938F939F93AF93BF9382
S1132A80CF93DF93EF93FF93CCB5DDB580E286BFA0
S1132A908FB7F894182F8091130190911401853009
S1132AA0910519F0069739F157C080E00E9432076A
S1132AB082E00E94410887B78F7E87BF86E090E05E
S1132AC09093140180931301E0917B01F0917C01B8
S1132AD08181992787709070019721F4C5A78D2F64
S1132AE0992784A780B3992774E0969587957A955A
S1132AF0E1F780FD77C081E00E943207E0917B011D
S1132B00F0917C01818185FF13C087E090E0909370
S1132B101401809313010E942905DC01CB0120E8F4
S1132B2030E040E050E0BC01CD010E94DD060BC066
S1132B3081E090E0909314018093130110921B01A3
S1132B408DE00E948C0080B3992764E09695879568
S1132B506A95E1F780FF46C080911201882351F500
S1132B600E9432074091BE014830A0F4809189014F
S1132B70840F912D911D9C01887F9370281BE22F57
S1132B80FF27EE0FFF1FE85DFD4FC083D1834F5F2A
S1132B904093BE0181E080931201D093F801C09369
S1132BA0F70180B3992754E0969587955A95E1F7F4
S1132BB080FD18C0809112018823A1F081E00E9459
S1132BC03207109212018091F7019091F801C81B0D
S1132BD0D90B2A9738F48091BE01882319F08150CB
S1132BE08093BE011FBFFF91EF91DF91CF91BF9101
S1132BF0AF919F918F917F916F915F914F913F9191
S1132C002F911F910F900FBE0F901F9018957894DD
S1132C101F920F920FB60F9211242F933F938F930D
S1132C209F938FB7F894282F332780915F01909159
S1132C30600101969093600180935F012FBF9F9183
S1132C408F913F912F910F900FBE0F901F90189569
S1132C501F920F920FB60F921124EF92FF920F93CF
S1132C601F932F933F934F935F936F937F938F9310
S1132C709F93AF93BF93CF93DF93EF93FF938FB162
S1132C80282F3327E0915901F0915A01309739F0F8
S1132C908091660190916701E80FF91F208380916C
S1132CA06601909167010196909367018093660194
S1132CB080E00E9484072091660130916701809131
S1132CC0C3019091C4012817390718F40E94740AAB
S1132CD035C1E0905901F0905A0110925A011092B6
S1132CE0590110928401109283011092C401109230
S1132CF0C30110926701109266018FB18091F501B2
S1132D009091F6012091F50186FFD3C02F7B822F8D
S1132D1099278E33910509F411C1CF9709F00EC19B
S1132D20C0912501D091260118818091690190916B
S1132D306A018230910521F0039709F444C0B4C0BC
S1132D4083E090E090936A0180936901412F5527B5
S1132D509A012F5F3F4F60915B01862F992782175D
S1132D6093077CF40E941305C09AC09888E00E94DF
S1132D70450788E00E944507C09A83E00E94410805
S1132D8090C080E090E0B79B02C081E090E0892B86
S1132D9069F481B1992726E0969587952A95E1F7FC
S1132DA080FD04C0611B615060935B01193220F403
S1132DB0BE016F5F7F4F02C060E070E080E090E092
S1132DC00E94E20ABBC0C09A83E00E94410880913D
S1132DD0BE01882309F11B3028F180918901E82F75
S1132DE0FF27EE0FFF1FE85DFD4F808191818DA7C6
S1132DF0892F99278CA780918901992701969C0195
S1132E00287F3170821B930B809389018091BE01CE
S1132E1081508093BE0106C08FEF9FEF8DA78FEF87
S1132E2090E08CA7FE01E10FF11D808187FF39C07E
S1132E30EF28B9F169816770E0912501F0912601CD
S1132E40623049F5A0917B01B0917C012081809191
S1132E50130190911401079721F5ED019B81838162
S1132E608917F9F487B78F7E87BF81E08BA7E20FBC
S1132E70F11D8291319688A780818F7789A781E09F
S1132E8090E0909314018093130110921B018DE044
S1132E900E948C0006C0613021F482E10E948C0003
S1132EA04DC00E94290B4AC0C09A83E00E94410889
S1132EB045C02E3309F042C0C09A8091130190910D
S1132EC01401089739F481E090E090931401809301
S1132ED0130134C080918101882349F484E090E097
S1132EE090931401809313010E94C70827C082E0C5
S1132EF00E94410883E090E09093140180931301B1
S1132F000E941701DC01CB018F71907001969C0126
S1132F10B3E0220F331FBA95E1F7280F391F280FAA
S1132F20391F7901002711270E942905DC01CB01F3
S1132F30A8019701BC01CD010E94DD06FF91EF912C
S1132F40DF91CF91BF91AF919F918F917F916F91BD
S1132F505F914F913F912F911F910F91FF90EF90AF
S1132F600F900FBE0F901F901895A0E3B0E0EBEB0D
S1132F70F7E10C94A71A222E332E442E552E662EDA
S1132F80772E882E992E2A2D3B2DA8E0FE0131960E
S1132F90AA2E1192AA94E9F729823A824B825C8282
S1132FA06D827E828F829886FE013996BA2E1192A6
S1132FB0BA94E9F729873A87CB86DC86ED86FE86C4
S1132FC00F87188BFE0171961192AA95E9F7C980B3
S1132FD0DA80EB80FC80C9A6DAA6EBA6FCA6870102
S1132FE076018FEF9FEFA0E0B0E0E822F9220A23F8
S1132FF01B23A9A4BAA4CBA4DCA4160144245524FD
S113300089859A85AB85BC858DA79EA7AFA7B8ABEC
S11330105C016D018FEF9FEFA0E0B0E0A822B92220
S1133020CA22DB228DA59EA5AFA5B8A93D0188249F
S11330309924C801B701A60195010E94881A69A3C1
S11330407AA38BA39CA3C801B701A40193010E9496
S1133050881A6DA37EA38FA398A7C201B101A6010C
S113306095010E94881A7B018C01C201B101A4015F
S113307093010E94881A9B01AC01A9A0BAA0CBA01D
S1133080DCA0C601AA27BB27ADA0BEA0CFA0D8A4B0
S1133090A80EB91ECA1EDB1EAE0CBF1CC01ED11E5C
S11330A0ADA2BEA2CFA2D8A6AE14BF04C006D1065C
S11330B020F4205030404F4F5F4FCDA0DEA0EFA052
S11330C0F8A4C701AA27BB27820F931FA41FB51F0B
S11330D08D8F9E8FAF8FB8A3A6013327222789A196
S11330E09AA1ABA1BCA1A070B070280F391F4A1FD0
S11330F05B1F298F3A8F4B8F5C8FA98CBA8CCB8C3A
S1133100DC8CED8CFE8C0F8D18A1ED8AFE8A0F8B62
S1133110188F2D853E854F85588969A57AA58BA57D
S11331209CA50E94881A3B014C018D819E81AF8130
S1133130B885BC01CD012DA53EA54FA558A90E9477
S1133140881ADC01CB01680E791E8A1E9B1E8D89AC
S11331509E89AF89B88D860D971DA81DB91D8D8BCD
S11331609E8BAF8BB88F6D897E898F89988D2A2D20
S11331703B2D4C2D5D2DE2E1E0960C94C31A8F9209
S11331809F92AF92BF92CF92DF92EF92FF920F93F2
S1133190CF93DF93CDB7DEB768970FB6F894DEBF51
S11331A00FBECDBFE82E002349F4298B3A8B4B8BFD
S11331B05C8B6D8B7E8B8F8B988F6CC088E0FE014F
S11331C0319611928A95E9F729833A834B835C837C
S11331D06D837E83EF82988740E2401B14160CF0C7
S11331E041C08D819E81AF81B8856C017D0104C091
S11331F0CC0CDD1CEE1CFF1C4A95D2F7202F332784
S113320027FD3095022E04C0B695A795979587950E
S11332100A94D2F78D879E87AF87B88B89819A816C
S1133220AB81BC8104C0B695A795979587952A95DF
S1133230D2F78C299D29AE29BF2989879A87AB8724
S1133240BC8729853A854B855C856D857E858F8510
S11332509889298B3A8B4B8B5C8B6D8B7E8B8F8BF8
S1133260988F18C01D861E861F86188A842F99275A
S113327087FD909522273327281B390B8D819E814A
S1133280AF81B88504C0B695A795979587952A957B
S1133290D2F7D3CF29893A894B895C896D897E8994
S11332A08F89988D68960FB6F894DEBF0FBECDBF98
S11332B0DF91CF910F91FF90EF90DF90CF90BF906F
S11332C0AF909F908F900895DC0101C06D934150A1
S11332D05040E0F708955058192EA6D001D08CC064
S11332E0BA176207730784079507B1F188F40EF4DF
S11332F010940B2EBA2FA02D062E622F202D072EF0
S1133300732F302D082E842F402D092E952F502DEC
S1133310FF275523B9F0591B49F0573E98F04695BD
S113332037952795A795F0405395C9F776F0BA0FCE
S1133330621F731F841F30F4879577956795B7953F
S1133340F040939517FA0F2E0895BF1BBB27BA0BB5
S1133350620B730B840BF6CFDEF683C097FB70D041
S11333609F3738F0FEE9F91B982F872F762F6B2FA4
S113337005C074C09695879577956795F150D0F7F9
S11333803EF490958095709561957F4F8F4F9F4F38
S11333900895E89403C097FB0EF4F3DFB62F672F6C
S11333A0782F892F9EE9002427C00ED05EF004C038
S11333B00BD026F001C008D019F020F48FEF089547
S11333C080E0089581E0089597FB092E052600F812
S11333D068942DD0E89407FC07C06217730784072C
S11333E0950721F008F400940794989408959A9509
S11333F0BB0F661F771F881F11249923A1F0882310
S1133400B2F79F3F59F0BB0F48F421F4002011F4A8
S113341060FF04C06F5F7F4F8F4F9F4F881F97954A
S1133420879597F908951AC0052E092607FA440FBF
S1133430551F5F3F79F0AA27A51708F051E047957B
S1133440880F991F9F3F31F0BB27B91708F091E00F
S1133450879508959F919F91112457C066277727D8
S1133460882799270895592F482F372F262FDCDFD7
S113347001D0C2CF992339F0552329F09F575F57C4
S1133480950F13F4CAF1EDCF91589F3FE1F3A62FA6
S113349000241124BB2766275527F8E0A69520F4BD
S11334A0020E131EB41F651F220F331F441F551F26
S11334B0FA95A1F7F8E0E72F7727F8E0E69520F4EE
S11334C0130EB41F651F7A1F330F441F551FAA1F05
S11334D0FA95A1F7F82F8827F69520F4B40F651F05
S11334E07A1F8E1F440F551FAA1FEE1FFF23A1F73B
S11334F088231AF4939539F408C0000C111CBB1FDF
S1133500661F771F881F012808959FEF80EC089598
S1133510629FD001739FF001829FE00DF11D649FB3
S1133520E00DF11D929FF00D839FF00D749FF00D3F
S1133530659FF00D9927729FB00DE11DF91F639FE0
S1133540B00DE11DF91FBD01CF01112408952F9283
S11335503F924F925F926F927F928F929F92AF921F
S1133560BF92CF92DF92EF92FF920F931F93CF936C
S1133570DF93CDB7DEB7CA1BDB0B0FB6F894DEBF03
S11335800FBECDBF09942A88398848885F846E8429
S11335907D848C849B84AA84B984C884DF80EE8073
S11335A0FD800C811B81AA81B981CE0FD11D0FB67C
S10F35B0F894DEBF0FBECDBFED010895FE
S11335BCFF0100FFFFFFFF24001A0302FFFF0101BC
S10535CC0100F8
S9030000FC
